{
	"contracts/12_EjemploMapping.sol": {
		"EjemploMapping": {
			"abi": [
				{
					"inputs": [
						{
							"internalType": "uint256",
							"name": "_id",
							"type": "uint256"
						},
						{
							"internalType": "string",
							"name": "_nombre",
							"type": "string"
						},
						{
							"internalType": "uint256",
							"name": "_edad",
							"type": "uint256"
						}
					],
					"name": "agregarPersonaMapping",
					"outputs": [],
					"stateMutability": "nonpayable",
					"type": "function"
				},
				{
					"inputs": [
						{
							"internalType": "uint256",
							"name": "",
							"type": "uint256"
						}
					],
					"name": "personasMapping",
					"outputs": [
						{
							"internalType": "string",
							"name": "nombre",
							"type": "string"
						},
						{
							"internalType": "uint256",
							"name": "edad",
							"type": "uint256"
						}
					],
					"stateMutability": "view",
					"type": "function"
				}
			],
			"devdoc": {
				"kind": "dev",
				"methods": {},
				"version": 1
			},
			"evm": {
				"assembly": "    /* \"contracts/12_EjemploMapping.sol\":74:394  contract EjemploMapping {... */\n  mstore(0x40, 0x80)\n  callvalue\n  dup1\n  iszero\n  tag_1\n  jumpi\n  0x00\n  dup1\n  revert\ntag_1:\n  pop\n  dataSize(sub_0)\n  dup1\n  dataOffset(sub_0)\n  0x00\n  codecopy\n  0x00\n  return\nstop\n\nsub_0: assembly {\n        /* \"contracts/12_EjemploMapping.sol\":74:394  contract EjemploMapping {... */\n      mstore(0x40, 0x80)\n      callvalue\n      dup1\n      iszero\n      tag_1\n      jumpi\n      0x00\n      dup1\n      revert\n    tag_1:\n      pop\n      jumpi(tag_2, lt(calldatasize, 0x04))\n      shr(0xe0, calldataload(0x00))\n      dup1\n      0x54bb68f5\n      eq\n      tag_3\n      jumpi\n      dup1\n      0x89e7fcd0\n      eq\n      tag_4\n      jumpi\n    tag_2:\n      0x00\n      dup1\n      revert\n        /* \"contracts/12_EjemploMapping.sol\":186:233  mapping(uint => Persona) public personasMapping */\n    tag_3:\n      tag_5\n      0x04\n      dup1\n      calldatasize\n      sub\n      dup2\n      add\n      swap1\n      tag_6\n      swap2\n      swap1\n      tag_7\n      jump\t// in\n    tag_6:\n      tag_8\n      jump\t// in\n    tag_5:\n      mload(0x40)\n      tag_9\n      swap3\n      swap2\n      swap1\n      tag_10\n      jump\t// in\n    tag_9:\n      mload(0x40)\n      dup1\n      swap2\n      sub\n      swap1\n      return\n        /* \"contracts/12_EjemploMapping.sol\":242:389  function agregarPersonaMapping(uint _id, string memory _nombre, uint _edad) public{... */\n    tag_4:\n      tag_11\n      0x04\n      dup1\n      calldatasize\n      sub\n      dup2\n      add\n      swap1\n      tag_12\n      swap2\n      swap1\n      tag_13\n      jump\t// in\n    tag_12:\n      tag_14\n      jump\t// in\n    tag_11:\n      stop\n        /* \"contracts/12_EjemploMapping.sol\":186:233  mapping(uint => Persona) public personasMapping */\n    tag_8:\n      mstore(0x20, 0x00)\n      dup1\n      0x00\n      mstore\n      keccak256(0x00, 0x40)\n      0x00\n      swap2\n      pop\n      swap1\n      pop\n      dup1\n      0x00\n      add\n      dup1\n      sload\n      tag_15\n      swap1\n      tag_16\n      jump\t// in\n    tag_15:\n      dup1\n      0x1f\n      add\n      0x20\n      dup1\n      swap2\n      div\n      mul\n      0x20\n      add\n      mload(0x40)\n      swap1\n      dup2\n      add\n      0x40\n      mstore\n      dup1\n      swap3\n      swap2\n      swap1\n      dup2\n      dup2\n      mstore\n      0x20\n      add\n      dup3\n      dup1\n      sload\n      tag_17\n      swap1\n      tag_16\n      jump\t// in\n    tag_17:\n      dup1\n      iszero\n      tag_18\n      jumpi\n      dup1\n      0x1f\n      lt\n      tag_19\n      jumpi\n      0x0100\n      dup1\n      dup4\n      sload\n      div\n      mul\n      dup4\n      mstore\n      swap2\n      0x20\n      add\n      swap2\n      jump(tag_18)\n    tag_19:\n      dup3\n      add\n      swap2\n      swap1\n      0x00\n      mstore\n      keccak256(0x00, 0x20)\n      swap1\n    tag_20:\n      dup2\n      sload\n      dup2\n      mstore\n      swap1\n      0x01\n      add\n      swap1\n      0x20\n      add\n      dup1\n      dup4\n      gt\n      tag_20\n      jumpi\n      dup3\n      swap1\n      sub\n      0x1f\n      and\n      dup3\n      add\n      swap2\n    tag_18:\n      pop\n      pop\n      pop\n      pop\n      pop\n      swap1\n      dup1\n      0x01\n      add\n      sload\n      swap1\n      pop\n      dup3\n      jump\t// out\n        /* \"contracts/12_EjemploMapping.sol\":242:389  function agregarPersonaMapping(uint _id, string memory _nombre, uint _edad) public{... */\n    tag_14:\n        /* \"contracts/12_EjemploMapping.sol\":358:381  Persona(_nombre, _edad) */\n      mload(0x40)\n      dup1\n      0x40\n      add\n      0x40\n      mstore\n      dup1\n        /* \"contracts/12_EjemploMapping.sol\":366:373  _nombre */\n      dup4\n        /* \"contracts/12_EjemploMapping.sol\":358:381  Persona(_nombre, _edad) */\n      dup2\n      mstore\n      0x20\n      add\n        /* \"contracts/12_EjemploMapping.sol\":375:380  _edad */\n      dup3\n        /* \"contracts/12_EjemploMapping.sol\":358:381  Persona(_nombre, _edad) */\n      dup2\n      mstore\n      pop\n        /* \"contracts/12_EjemploMapping.sol\":335:350  personasMapping */\n      0x00\n        /* \"contracts/12_EjemploMapping.sol\":335:355  personasMapping[_id] */\n      dup1\n        /* \"contracts/12_EjemploMapping.sol\":351:354  _id */\n      dup6\n        /* \"contracts/12_EjemploMapping.sol\":335:355  personasMapping[_id] */\n      dup2\n      mstore\n      0x20\n      add\n      swap1\n      dup2\n      mstore\n      0x20\n      add\n      0x00\n      keccak256\n        /* \"contracts/12_EjemploMapping.sol\":335:381  personasMapping[_id] = Persona(_nombre, _edad) */\n      0x00\n      dup3\n      add\n      mload\n      dup2\n      0x00\n      add\n      swap1\n      dup2\n      tag_22\n      swap2\n      swap1\n      tag_23\n      jump\t// in\n    tag_22:\n      pop\n      0x20\n      dup3\n      add\n      mload\n      dup2\n      0x01\n      add\n      sstore\n      swap1\n      pop\n      pop\n        /* \"contracts/12_EjemploMapping.sol\":242:389  function agregarPersonaMapping(uint _id, string memory _nombre, uint _edad) public{... */\n      pop\n      pop\n      pop\n      jump\t// out\n        /* \"#utility.yul\":7:82   */\n    tag_24:\n        /* \"#utility.yul\":40:46   */\n      0x00\n        /* \"#utility.yul\":73:75   */\n      0x40\n        /* \"#utility.yul\":67:76   */\n      mload\n        /* \"#utility.yul\":57:76   */\n      swap1\n      pop\n        /* \"#utility.yul\":7:82   */\n      swap1\n      jump\t// out\n        /* \"#utility.yul\":88:205   */\n    tag_25:\n        /* \"#utility.yul\":197:198   */\n      0x00\n        /* \"#utility.yul\":194:195   */\n      dup1\n        /* \"#utility.yul\":187:199   */\n      revert\n        /* \"#utility.yul\":211:328   */\n    tag_26:\n        /* \"#utility.yul\":320:321   */\n      0x00\n        /* \"#utility.yul\":317:318   */\n      dup1\n        /* \"#utility.yul\":310:322   */\n      revert\n        /* \"#utility.yul\":334:411   */\n    tag_27:\n        /* \"#utility.yul\":371:378   */\n      0x00\n        /* \"#utility.yul\":400:405   */\n      dup2\n        /* \"#utility.yul\":389:405   */\n      swap1\n      pop\n        /* \"#utility.yul\":334:411   */\n      swap2\n      swap1\n      pop\n      jump\t// out\n        /* \"#utility.yul\":417:539   */\n    tag_28:\n        /* \"#utility.yul\":490:514   */\n      tag_67\n        /* \"#utility.yul\":508:513   */\n      dup2\n        /* \"#utility.yul\":490:514   */\n      tag_27\n      jump\t// in\n    tag_67:\n        /* \"#utility.yul\":483:488   */\n      dup2\n        /* \"#utility.yul\":480:515   */\n      eq\n        /* \"#utility.yul\":470:533   */\n      tag_68\n      jumpi\n        /* \"#utility.yul\":529:530   */\n      0x00\n        /* \"#utility.yul\":526:527   */\n      dup1\n        /* \"#utility.yul\":519:531   */\n      revert\n        /* \"#utility.yul\":470:533   */\n    tag_68:\n        /* \"#utility.yul\":417:539   */\n      pop\n      jump\t// out\n        /* \"#utility.yul\":545:684   */\n    tag_29:\n        /* \"#utility.yul\":591:596   */\n      0x00\n        /* \"#utility.yul\":629:635   */\n      dup2\n        /* \"#utility.yul\":616:636   */\n      calldataload\n        /* \"#utility.yul\":607:636   */\n      swap1\n      pop\n        /* \"#utility.yul\":645:678   */\n      tag_70\n        /* \"#utility.yul\":672:677   */\n      dup2\n        /* \"#utility.yul\":645:678   */\n      tag_28\n      jump\t// in\n    tag_70:\n        /* \"#utility.yul\":545:684   */\n      swap3\n      swap2\n      pop\n      pop\n      jump\t// out\n        /* \"#utility.yul\":690:1019   */\n    tag_7:\n        /* \"#utility.yul\":749:755   */\n      0x00\n        /* \"#utility.yul\":798:800   */\n      0x20\n        /* \"#utility.yul\":786:795   */\n      dup3\n        /* \"#utility.yul\":777:784   */\n      dup5\n        /* \"#utility.yul\":773:796   */\n      sub\n        /* \"#utility.yul\":769:801   */\n      slt\n        /* \"#utility.yul\":766:885   */\n      iszero\n      tag_72\n      jumpi\n        /* \"#utility.yul\":804:883   */\n      tag_73\n      tag_25\n      jump\t// in\n    tag_73:\n        /* \"#utility.yul\":766:885   */\n    tag_72:\n        /* \"#utility.yul\":924:925   */\n      0x00\n        /* \"#utility.yul\":949:1002   */\n      tag_74\n        /* \"#utility.yul\":994:1001   */\n      dup5\n        /* \"#utility.yul\":985:991   */\n      dup3\n        /* \"#utility.yul\":974:983   */\n      dup6\n        /* \"#utility.yul\":970:992   */\n      add\n        /* \"#utility.yul\":949:1002   */\n      tag_29\n      jump\t// in\n    tag_74:\n        /* \"#utility.yul\":939:1002   */\n      swap2\n      pop\n        /* \"#utility.yul\":895:1012   */\n      pop\n        /* \"#utility.yul\":690:1019   */\n      swap3\n      swap2\n      pop\n      pop\n      jump\t// out\n        /* \"#utility.yul\":1025:1124   */\n    tag_30:\n        /* \"#utility.yul\":1077:1083   */\n      0x00\n        /* \"#utility.yul\":1111:1116   */\n      dup2\n        /* \"#utility.yul\":1105:1117   */\n      mload\n        /* \"#utility.yul\":1095:1117   */\n      swap1\n      pop\n        /* \"#utility.yul\":1025:1124   */\n      swap2\n      swap1\n      pop\n      jump\t// out\n        /* \"#utility.yul\":1130:1299   */\n    tag_31:\n        /* \"#utility.yul\":1214:1225   */\n      0x00\n        /* \"#utility.yul\":1248:1254   */\n      dup3\n        /* \"#utility.yul\":1243:1246   */\n      dup3\n        /* \"#utility.yul\":1236:1255   */\n      mstore\n        /* \"#utility.yul\":1288:1292   */\n      0x20\n        /* \"#utility.yul\":1283:1286   */\n      dup3\n        /* \"#utility.yul\":1279:1293   */\n      add\n        /* \"#utility.yul\":1264:1293   */\n      swap1\n      pop\n        /* \"#utility.yul\":1130:1299   */\n      swap3\n      swap2\n      pop\n      pop\n      jump\t// out\n        /* \"#utility.yul\":1305:1551   */\n    tag_32:\n        /* \"#utility.yul\":1386:1387   */\n      0x00\n        /* \"#utility.yul\":1396:1509   */\n    tag_78:\n        /* \"#utility.yul\":1410:1416   */\n      dup4\n        /* \"#utility.yul\":1407:1408   */\n      dup2\n        /* \"#utility.yul\":1404:1417   */\n      lt\n        /* \"#utility.yul\":1396:1509   */\n      iszero\n      tag_80\n      jumpi\n        /* \"#utility.yul\":1495:1496   */\n      dup1\n        /* \"#utility.yul\":1490:1493   */\n      dup3\n        /* \"#utility.yul\":1486:1497   */\n      add\n        /* \"#utility.yul\":1480:1498   */\n      mload\n        /* \"#utility.yul\":1476:1477   */\n      dup2\n        /* \"#utility.yul\":1471:1474   */\n      dup5\n        /* \"#utility.yul\":1467:1478   */\n      add\n        /* \"#utility.yul\":1460:1499   */\n      mstore\n        /* \"#utility.yul\":1432:1434   */\n      0x20\n        /* \"#utility.yul\":1429:1430   */\n      dup2\n        /* \"#utility.yul\":1425:1435   */\n      add\n        /* \"#utility.yul\":1420:1435   */\n      swap1\n      pop\n        /* \"#utility.yul\":1396:1509   */\n      jump(tag_78)\n    tag_80:\n        /* \"#utility.yul\":1543:1544   */\n      0x00\n        /* \"#utility.yul\":1534:1540   */\n      dup5\n        /* \"#utility.yul\":1529:1532   */\n      dup5\n        /* \"#utility.yul\":1525:1541   */\n      add\n        /* \"#utility.yul\":1518:1545   */\n      mstore\n        /* \"#utility.yul\":1367:1551   */\n      pop\n        /* \"#utility.yul\":1305:1551   */\n      pop\n      pop\n      pop\n      jump\t// out\n        /* \"#utility.yul\":1557:1659   */\n    tag_33:\n        /* \"#utility.yul\":1598:1604   */\n      0x00\n        /* \"#utility.yul\":1649:1651   */\n      0x1f\n        /* \"#utility.yul\":1645:1652   */\n      not\n        /* \"#utility.yul\":1640:1642   */\n      0x1f\n        /* \"#utility.yul\":1633:1638   */\n      dup4\n        /* \"#utility.yul\":1629:1643   */\n      add\n        /* \"#utility.yul\":1625:1653   */\n      and\n        /* \"#utility.yul\":1615:1653   */\n      swap1\n      pop\n        /* \"#utility.yul\":1557:1659   */\n      swap2\n      swap1\n      pop\n      jump\t// out\n        /* \"#utility.yul\":1665:2042   */\n    tag_34:\n        /* \"#utility.yul\":1753:1756   */\n      0x00\n        /* \"#utility.yul\":1781:1820   */\n      tag_83\n        /* \"#utility.yul\":1814:1819   */\n      dup3\n        /* \"#utility.yul\":1781:1820   */\n      tag_30\n      jump\t// in\n    tag_83:\n        /* \"#utility.yul\":1836:1907   */\n      tag_84\n        /* \"#utility.yul\":1900:1906   */\n      dup2\n        /* \"#utility.yul\":1895:1898   */\n      dup6\n        /* \"#utility.yul\":1836:1907   */\n      tag_31\n      jump\t// in\n    tag_84:\n        /* \"#utility.yul\":1829:1907   */\n      swap4\n      pop\n        /* \"#utility.yul\":1916:1981   */\n      tag_85\n        /* \"#utility.yul\":1974:1980   */\n      dup2\n        /* \"#utility.yul\":1969:1972   */\n      dup6\n        /* \"#utility.yul\":1962:1966   */\n      0x20\n        /* \"#utility.yul\":1955:1960   */\n      dup7\n        /* \"#utility.yul\":1951:1967   */\n      add\n        /* \"#utility.yul\":1916:1981   */\n      tag_32\n      jump\t// in\n    tag_85:\n        /* \"#utility.yul\":2006:2035   */\n      tag_86\n        /* \"#utility.yul\":2028:2034   */\n      dup2\n        /* \"#utility.yul\":2006:2035   */\n      tag_33\n      jump\t// in\n    tag_86:\n        /* \"#utility.yul\":2001:2004   */\n      dup5\n        /* \"#utility.yul\":1997:2036   */\n      add\n        /* \"#utility.yul\":1990:2036   */\n      swap2\n      pop\n        /* \"#utility.yul\":1757:2042   */\n      pop\n        /* \"#utility.yul\":1665:2042   */\n      swap3\n      swap2\n      pop\n      pop\n      jump\t// out\n        /* \"#utility.yul\":2048:2166   */\n    tag_35:\n        /* \"#utility.yul\":2135:2159   */\n      tag_88\n        /* \"#utility.yul\":2153:2158   */\n      dup2\n        /* \"#utility.yul\":2135:2159   */\n      tag_27\n      jump\t// in\n    tag_88:\n        /* \"#utility.yul\":2130:2133   */\n      dup3\n        /* \"#utility.yul\":2123:2160   */\n      mstore\n        /* \"#utility.yul\":2048:2166   */\n      pop\n      pop\n      jump\t// out\n        /* \"#utility.yul\":2172:2595   */\n    tag_10:\n        /* \"#utility.yul\":2313:2317   */\n      0x00\n        /* \"#utility.yul\":2351:2353   */\n      0x40\n        /* \"#utility.yul\":2340:2349   */\n      dup3\n        /* \"#utility.yul\":2336:2354   */\n      add\n        /* \"#utility.yul\":2328:2354   */\n      swap1\n      pop\n        /* \"#utility.yul\":2400:2409   */\n      dup2\n        /* \"#utility.yul\":2394:2398   */\n      dup2\n        /* \"#utility.yul\":2390:2410   */\n      sub\n        /* \"#utility.yul\":2386:2387   */\n      0x00\n        /* \"#utility.yul\":2375:2384   */\n      dup4\n        /* \"#utility.yul\":2371:2388   */\n      add\n        /* \"#utility.yul\":2364:2411   */\n      mstore\n        /* \"#utility.yul\":2428:2506   */\n      tag_90\n        /* \"#utility.yul\":2501:2505   */\n      dup2\n        /* \"#utility.yul\":2492:2498   */\n      dup6\n        /* \"#utility.yul\":2428:2506   */\n      tag_34\n      jump\t// in\n    tag_90:\n        /* \"#utility.yul\":2420:2506   */\n      swap1\n      pop\n        /* \"#utility.yul\":2516:2588   */\n      tag_91\n        /* \"#utility.yul\":2584:2586   */\n      0x20\n        /* \"#utility.yul\":2573:2582   */\n      dup4\n        /* \"#utility.yul\":2569:2587   */\n      add\n        /* \"#utility.yul\":2560:2566   */\n      dup5\n        /* \"#utility.yul\":2516:2588   */\n      tag_35\n      jump\t// in\n    tag_91:\n        /* \"#utility.yul\":2172:2595   */\n      swap4\n      swap3\n      pop\n      pop\n      pop\n      jump\t// out\n        /* \"#utility.yul\":2601:2718   */\n    tag_36:\n        /* \"#utility.yul\":2710:2711   */\n      0x00\n        /* \"#utility.yul\":2707:2708   */\n      dup1\n        /* \"#utility.yul\":2700:2712   */\n      revert\n        /* \"#utility.yul\":2724:2841   */\n    tag_37:\n        /* \"#utility.yul\":2833:2834   */\n      0x00\n        /* \"#utility.yul\":2830:2831   */\n      dup1\n        /* \"#utility.yul\":2823:2835   */\n      revert\n        /* \"#utility.yul\":2847:3027   */\n    tag_38:\n        /* \"#utility.yul\":2895:2972   */\n      0x4e487b7100000000000000000000000000000000000000000000000000000000\n        /* \"#utility.yul\":2892:2893   */\n      0x00\n        /* \"#utility.yul\":2885:2973   */\n      mstore\n        /* \"#utility.yul\":2992:2996   */\n      0x41\n        /* \"#utility.yul\":2989:2990   */\n      0x04\n        /* \"#utility.yul\":2982:2997   */\n      mstore\n        /* \"#utility.yul\":3016:3020   */\n      0x24\n        /* \"#utility.yul\":3013:3014   */\n      0x00\n        /* \"#utility.yul\":3006:3021   */\n      revert\n        /* \"#utility.yul\":3033:3314   */\n    tag_39:\n        /* \"#utility.yul\":3116:3143   */\n      tag_96\n        /* \"#utility.yul\":3138:3142   */\n      dup3\n        /* \"#utility.yul\":3116:3143   */\n      tag_33\n      jump\t// in\n    tag_96:\n        /* \"#utility.yul\":3108:3114   */\n      dup2\n        /* \"#utility.yul\":3104:3144   */\n      add\n        /* \"#utility.yul\":3246:3252   */\n      dup2\n        /* \"#utility.yul\":3234:3244   */\n      dup2\n        /* \"#utility.yul\":3231:3253   */\n      lt\n        /* \"#utility.yul\":3210:3228   */\n      0xffffffffffffffff\n        /* \"#utility.yul\":3198:3208   */\n      dup3\n        /* \"#utility.yul\":3195:3229   */\n      gt\n        /* \"#utility.yul\":3192:3254   */\n      or\n        /* \"#utility.yul\":3189:3277   */\n      iszero\n      tag_97\n      jumpi\n        /* \"#utility.yul\":3257:3275   */\n      tag_98\n      tag_38\n      jump\t// in\n    tag_98:\n        /* \"#utility.yul\":3189:3277   */\n    tag_97:\n        /* \"#utility.yul\":3297:3307   */\n      dup1\n        /* \"#utility.yul\":3293:3295   */\n      0x40\n        /* \"#utility.yul\":3286:3308   */\n      mstore\n        /* \"#utility.yul\":3076:3314   */\n      pop\n        /* \"#utility.yul\":3033:3314   */\n      pop\n      pop\n      jump\t// out\n        /* \"#utility.yul\":3320:3449   */\n    tag_40:\n        /* \"#utility.yul\":3354:3360   */\n      0x00\n        /* \"#utility.yul\":3381:3401   */\n      tag_100\n      tag_24\n      jump\t// in\n    tag_100:\n        /* \"#utility.yul\":3371:3401   */\n      swap1\n      pop\n        /* \"#utility.yul\":3410:3443   */\n      tag_101\n        /* \"#utility.yul\":3438:3442   */\n      dup3\n        /* \"#utility.yul\":3430:3436   */\n      dup3\n        /* \"#utility.yul\":3410:3443   */\n      tag_39\n      jump\t// in\n    tag_101:\n        /* \"#utility.yul\":3320:3449   */\n      swap2\n      swap1\n      pop\n      jump\t// out\n        /* \"#utility.yul\":3455:3763   */\n    tag_41:\n        /* \"#utility.yul\":3517:3521   */\n      0x00\n        /* \"#utility.yul\":3607:3625   */\n      0xffffffffffffffff\n        /* \"#utility.yul\":3599:3605   */\n      dup3\n        /* \"#utility.yul\":3596:3626   */\n      gt\n        /* \"#utility.yul\":3593:3649   */\n      iszero\n      tag_103\n      jumpi\n        /* \"#utility.yul\":3629:3647   */\n      tag_104\n      tag_38\n      jump\t// in\n    tag_104:\n        /* \"#utility.yul\":3593:3649   */\n    tag_103:\n        /* \"#utility.yul\":3667:3696   */\n      tag_105\n        /* \"#utility.yul\":3689:3695   */\n      dup3\n        /* \"#utility.yul\":3667:3696   */\n      tag_33\n      jump\t// in\n    tag_105:\n        /* \"#utility.yul\":3659:3696   */\n      swap1\n      pop\n        /* \"#utility.yul\":3751:3755   */\n      0x20\n        /* \"#utility.yul\":3745:3749   */\n      dup2\n        /* \"#utility.yul\":3741:3756   */\n      add\n        /* \"#utility.yul\":3733:3756   */\n      swap1\n      pop\n        /* \"#utility.yul\":3455:3763   */\n      swap2\n      swap1\n      pop\n      jump\t// out\n        /* \"#utility.yul\":3769:3915   */\n    tag_42:\n        /* \"#utility.yul\":3866:3872   */\n      dup3\n        /* \"#utility.yul\":3861:3864   */\n      dup2\n        /* \"#utility.yul\":3856:3859   */\n      dup4\n        /* \"#utility.yul\":3843:3873   */\n      calldatacopy\n        /* \"#utility.yul\":3907:3908   */\n      0x00\n        /* \"#utility.yul\":3898:3904   */\n      dup4\n        /* \"#utility.yul\":3893:3896   */\n      dup4\n        /* \"#utility.yul\":3889:3905   */\n      add\n        /* \"#utility.yul\":3882:3909   */\n      mstore\n        /* \"#utility.yul\":3769:3915   */\n      pop\n      pop\n      pop\n      jump\t// out\n        /* \"#utility.yul\":3921:4346   */\n    tag_43:\n        /* \"#utility.yul\":3999:4004   */\n      0x00\n        /* \"#utility.yul\":4024:4090   */\n      tag_108\n        /* \"#utility.yul\":4040:4089   */\n      tag_109\n        /* \"#utility.yul\":4082:4088   */\n      dup5\n        /* \"#utility.yul\":4040:4089   */\n      tag_41\n      jump\t// in\n    tag_109:\n        /* \"#utility.yul\":4024:4090   */\n      tag_40\n      jump\t// in\n    tag_108:\n        /* \"#utility.yul\":4015:4090   */\n      swap1\n      pop\n        /* \"#utility.yul\":4113:4119   */\n      dup3\n        /* \"#utility.yul\":4106:4111   */\n      dup2\n        /* \"#utility.yul\":4099:4120   */\n      mstore\n        /* \"#utility.yul\":4151:4155   */\n      0x20\n        /* \"#utility.yul\":4144:4149   */\n      dup2\n        /* \"#utility.yul\":4140:4156   */\n      add\n        /* \"#utility.yul\":4189:4192   */\n      dup5\n        /* \"#utility.yul\":4180:4186   */\n      dup5\n        /* \"#utility.yul\":4175:4178   */\n      dup5\n        /* \"#utility.yul\":4171:4187   */\n      add\n        /* \"#utility.yul\":4168:4193   */\n      gt\n        /* \"#utility.yul\":4165:4277   */\n      iszero\n      tag_110\n      jumpi\n        /* \"#utility.yul\":4196:4275   */\n      tag_111\n      tag_37\n      jump\t// in\n    tag_111:\n        /* \"#utility.yul\":4165:4277   */\n    tag_110:\n        /* \"#utility.yul\":4286:4340   */\n      tag_112\n        /* \"#utility.yul\":4333:4339   */\n      dup5\n        /* \"#utility.yul\":4328:4331   */\n      dup3\n        /* \"#utility.yul\":4323:4326   */\n      dup6\n        /* \"#utility.yul\":4286:4340   */\n      tag_42\n      jump\t// in\n    tag_112:\n        /* \"#utility.yul\":4005:4346   */\n      pop\n        /* \"#utility.yul\":3921:4346   */\n      swap4\n      swap3\n      pop\n      pop\n      pop\n      jump\t// out\n        /* \"#utility.yul\":4366:4706   */\n    tag_44:\n        /* \"#utility.yul\":4422:4427   */\n      0x00\n        /* \"#utility.yul\":4471:4474   */\n      dup3\n        /* \"#utility.yul\":4464:4468   */\n      0x1f\n        /* \"#utility.yul\":4456:4462   */\n      dup4\n        /* \"#utility.yul\":4452:4469   */\n      add\n        /* \"#utility.yul\":4448:4475   */\n      slt\n        /* \"#utility.yul\":4438:4560   */\n      tag_114\n      jumpi\n        /* \"#utility.yul\":4479:4558   */\n      tag_115\n      tag_36\n      jump\t// in\n    tag_115:\n        /* \"#utility.yul\":4438:4560   */\n    tag_114:\n        /* \"#utility.yul\":4596:4602   */\n      dup2\n        /* \"#utility.yul\":4583:4603   */\n      calldataload\n        /* \"#utility.yul\":4621:4700   */\n      tag_116\n        /* \"#utility.yul\":4696:4699   */\n      dup5\n        /* \"#utility.yul\":4688:4694   */\n      dup3\n        /* \"#utility.yul\":4681:4685   */\n      0x20\n        /* \"#utility.yul\":4673:4679   */\n      dup7\n        /* \"#utility.yul\":4669:4686   */\n      add\n        /* \"#utility.yul\":4621:4700   */\n      tag_43\n      jump\t// in\n    tag_116:\n        /* \"#utility.yul\":4612:4700   */\n      swap2\n      pop\n        /* \"#utility.yul\":4428:4706   */\n      pop\n        /* \"#utility.yul\":4366:4706   */\n      swap3\n      swap2\n      pop\n      pop\n      jump\t// out\n        /* \"#utility.yul\":4712:5511   */\n    tag_13:\n        /* \"#utility.yul\":4799:4805   */\n      0x00\n        /* \"#utility.yul\":4807:4813   */\n      dup1\n        /* \"#utility.yul\":4815:4821   */\n      0x00\n        /* \"#utility.yul\":4864:4866   */\n      0x60\n        /* \"#utility.yul\":4852:4861   */\n      dup5\n        /* \"#utility.yul\":4843:4850   */\n      dup7\n        /* \"#utility.yul\":4839:4862   */\n      sub\n        /* \"#utility.yul\":4835:4867   */\n      slt\n        /* \"#utility.yul\":4832:4951   */\n      iszero\n      tag_118\n      jumpi\n        /* \"#utility.yul\":4870:4949   */\n      tag_119\n      tag_25\n      jump\t// in\n    tag_119:\n        /* \"#utility.yul\":4832:4951   */\n    tag_118:\n        /* \"#utility.yul\":4990:4991   */\n      0x00\n        /* \"#utility.yul\":5015:5068   */\n      tag_120\n        /* \"#utility.yul\":5060:5067   */\n      dup7\n        /* \"#utility.yul\":5051:5057   */\n      dup3\n        /* \"#utility.yul\":5040:5049   */\n      dup8\n        /* \"#utility.yul\":5036:5058   */\n      add\n        /* \"#utility.yul\":5015:5068   */\n      tag_29\n      jump\t// in\n    tag_120:\n        /* \"#utility.yul\":5005:5068   */\n      swap4\n      pop\n        /* \"#utility.yul\":4961:5078   */\n      pop\n        /* \"#utility.yul\":5145:5147   */\n      0x20\n        /* \"#utility.yul\":5134:5143   */\n      dup5\n        /* \"#utility.yul\":5130:5148   */\n      add\n        /* \"#utility.yul\":5117:5149   */\n      calldataload\n        /* \"#utility.yul\":5176:5194   */\n      0xffffffffffffffff\n        /* \"#utility.yul\":5168:5174   */\n      dup2\n        /* \"#utility.yul\":5165:5195   */\n      gt\n        /* \"#utility.yul\":5162:5279   */\n      iszero\n      tag_121\n      jumpi\n        /* \"#utility.yul\":5198:5277   */\n      tag_122\n      tag_26\n      jump\t// in\n    tag_122:\n        /* \"#utility.yul\":5162:5279   */\n    tag_121:\n        /* \"#utility.yul\":5303:5366   */\n      tag_123\n        /* \"#utility.yul\":5358:5365   */\n      dup7\n        /* \"#utility.yul\":5349:5355   */\n      dup3\n        /* \"#utility.yul\":5338:5347   */\n      dup8\n        /* \"#utility.yul\":5334:5356   */\n      add\n        /* \"#utility.yul\":5303:5366   */\n      tag_44\n      jump\t// in\n    tag_123:\n        /* \"#utility.yul\":5293:5366   */\n      swap3\n      pop\n        /* \"#utility.yul\":5088:5376   */\n      pop\n        /* \"#utility.yul\":5415:5417   */\n      0x40\n        /* \"#utility.yul\":5441:5494   */\n      tag_124\n        /* \"#utility.yul\":5486:5493   */\n      dup7\n        /* \"#utility.yul\":5477:5483   */\n      dup3\n        /* \"#utility.yul\":5466:5475   */\n      dup8\n        /* \"#utility.yul\":5462:5484   */\n      add\n        /* \"#utility.yul\":5441:5494   */\n      tag_29\n      jump\t// in\n    tag_124:\n        /* \"#utility.yul\":5431:5494   */\n      swap2\n      pop\n        /* \"#utility.yul\":5386:5504   */\n      pop\n        /* \"#utility.yul\":4712:5511   */\n      swap3\n      pop\n      swap3\n      pop\n      swap3\n      jump\t// out\n        /* \"#utility.yul\":5517:5697   */\n    tag_45:\n        /* \"#utility.yul\":5565:5642   */\n      0x4e487b7100000000000000000000000000000000000000000000000000000000\n        /* \"#utility.yul\":5562:5563   */\n      0x00\n        /* \"#utility.yul\":5555:5643   */\n      mstore\n        /* \"#utility.yul\":5662:5666   */\n      0x22\n        /* \"#utility.yul\":5659:5660   */\n      0x04\n        /* \"#utility.yul\":5652:5667   */\n      mstore\n        /* \"#utility.yul\":5686:5690   */\n      0x24\n        /* \"#utility.yul\":5683:5684   */\n      0x00\n        /* \"#utility.yul\":5676:5691   */\n      revert\n        /* \"#utility.yul\":5703:6023   */\n    tag_16:\n        /* \"#utility.yul\":5747:5753   */\n      0x00\n        /* \"#utility.yul\":5784:5785   */\n      0x02\n        /* \"#utility.yul\":5778:5782   */\n      dup3\n        /* \"#utility.yul\":5774:5786   */\n      div\n        /* \"#utility.yul\":5764:5786   */\n      swap1\n      pop\n        /* \"#utility.yul\":5831:5832   */\n      0x01\n        /* \"#utility.yul\":5825:5829   */\n      dup3\n        /* \"#utility.yul\":5821:5833   */\n      and\n        /* \"#utility.yul\":5852:5870   */\n      dup1\n        /* \"#utility.yul\":5842:5923   */\n      tag_127\n      jumpi\n        /* \"#utility.yul\":5908:5912   */\n      0x7f\n        /* \"#utility.yul\":5900:5906   */\n      dup3\n        /* \"#utility.yul\":5896:5913   */\n      and\n        /* \"#utility.yul\":5886:5913   */\n      swap2\n      pop\n        /* \"#utility.yul\":5842:5923   */\n    tag_127:\n        /* \"#utility.yul\":5970:5972   */\n      0x20\n        /* \"#utility.yul\":5962:5968   */\n      dup3\n        /* \"#utility.yul\":5959:5973   */\n      lt\n        /* \"#utility.yul\":5939:5957   */\n      dup2\n        /* \"#utility.yul\":5936:5974   */\n      sub\n        /* \"#utility.yul\":5933:6017   */\n      tag_128\n      jumpi\n        /* \"#utility.yul\":5989:6007   */\n      tag_129\n      tag_45\n      jump\t// in\n    tag_129:\n        /* \"#utility.yul\":5933:6017   */\n    tag_128:\n        /* \"#utility.yul\":5754:6023   */\n      pop\n        /* \"#utility.yul\":5703:6023   */\n      swap2\n      swap1\n      pop\n      jump\t// out\n        /* \"#utility.yul\":6029:6170   */\n    tag_46:\n        /* \"#utility.yul\":6078:6082   */\n      0x00\n        /* \"#utility.yul\":6101:6104   */\n      dup2\n        /* \"#utility.yul\":6093:6104   */\n      swap1\n      pop\n        /* \"#utility.yul\":6124:6127   */\n      dup2\n        /* \"#utility.yul\":6121:6122   */\n      0x00\n        /* \"#utility.yul\":6114:6128   */\n      mstore\n        /* \"#utility.yul\":6158:6162   */\n      0x20\n        /* \"#utility.yul\":6155:6156   */\n      0x00\n        /* \"#utility.yul\":6145:6163   */\n      keccak256\n        /* \"#utility.yul\":6137:6163   */\n      swap1\n      pop\n        /* \"#utility.yul\":6029:6170   */\n      swap2\n      swap1\n      pop\n      jump\t// out\n        /* \"#utility.yul\":6176:6269   */\n    tag_47:\n        /* \"#utility.yul\":6213:6219   */\n      0x00\n        /* \"#utility.yul\":6260:6262   */\n      0x20\n        /* \"#utility.yul\":6255:6257   */\n      0x1f\n        /* \"#utility.yul\":6248:6253   */\n      dup4\n        /* \"#utility.yul\":6244:6258   */\n      add\n        /* \"#utility.yul\":6240:6263   */\n      div\n        /* \"#utility.yul\":6230:6263   */\n      swap1\n      pop\n        /* \"#utility.yul\":6176:6269   */\n      swap2\n      swap1\n      pop\n      jump\t// out\n        /* \"#utility.yul\":6275:6382   */\n    tag_48:\n        /* \"#utility.yul\":6319:6327   */\n      0x00\n        /* \"#utility.yul\":6369:6374   */\n      dup3\n        /* \"#utility.yul\":6363:6367   */\n      dup3\n        /* \"#utility.yul\":6359:6375   */\n      shl\n        /* \"#utility.yul\":6338:6375   */\n      swap1\n      pop\n        /* \"#utility.yul\":6275:6382   */\n      swap3\n      swap2\n      pop\n      pop\n      jump\t// out\n        /* \"#utility.yul\":6388:6781   */\n    tag_49:\n        /* \"#utility.yul\":6457:6463   */\n      0x00\n        /* \"#utility.yul\":6507:6508   */\n      0x08\n        /* \"#utility.yul\":6495:6505   */\n      dup4\n        /* \"#utility.yul\":6491:6509   */\n      mul\n        /* \"#utility.yul\":6530:6627   */\n      tag_134\n        /* \"#utility.yul\":6560:6626   */\n      0xffffffffffffffffffffffffffffffffffffffffffffffffffffffffffffffff\n        /* \"#utility.yul\":6549:6558   */\n      dup3\n        /* \"#utility.yul\":6530:6627   */\n      tag_48\n      jump\t// in\n    tag_134:\n        /* \"#utility.yul\":6648:6687   */\n      tag_135\n        /* \"#utility.yul\":6678:6686   */\n      dup7\n        /* \"#utility.yul\":6667:6676   */\n      dup4\n        /* \"#utility.yul\":6648:6687   */\n      tag_48\n      jump\t// in\n    tag_135:\n        /* \"#utility.yul\":6636:6687   */\n      swap6\n      pop\n        /* \"#utility.yul\":6720:6724   */\n      dup1\n        /* \"#utility.yul\":6716:6725   */\n      not\n        /* \"#utility.yul\":6709:6714   */\n      dup5\n        /* \"#utility.yul\":6705:6726   */\n      and\n        /* \"#utility.yul\":6696:6726   */\n      swap4\n      pop\n        /* \"#utility.yul\":6769:6773   */\n      dup1\n        /* \"#utility.yul\":6759:6767   */\n      dup7\n        /* \"#utility.yul\":6755:6774   */\n      and\n        /* \"#utility.yul\":6748:6753   */\n      dup5\n        /* \"#utility.yul\":6745:6775   */\n      or\n        /* \"#utility.yul\":6735:6775   */\n      swap3\n      pop\n        /* \"#utility.yul\":6464:6781   */\n      pop\n      pop\n        /* \"#utility.yul\":6388:6781   */\n      swap4\n      swap3\n      pop\n      pop\n      pop\n      jump\t// out\n        /* \"#utility.yul\":6787:6847   */\n    tag_50:\n        /* \"#utility.yul\":6815:6818   */\n      0x00\n        /* \"#utility.yul\":6836:6841   */\n      dup2\n        /* \"#utility.yul\":6829:6841   */\n      swap1\n      pop\n        /* \"#utility.yul\":6787:6847   */\n      swap2\n      swap1\n      pop\n      jump\t// out\n        /* \"#utility.yul\":6853:6995   */\n    tag_51:\n        /* \"#utility.yul\":6903:6912   */\n      0x00\n        /* \"#utility.yul\":6936:6989   */\n      tag_138\n        /* \"#utility.yul\":6954:6988   */\n      tag_139\n        /* \"#utility.yul\":6963:6987   */\n      tag_140\n        /* \"#utility.yul\":6981:6986   */\n      dup5\n        /* \"#utility.yul\":6963:6987   */\n      tag_27\n      jump\t// in\n    tag_140:\n        /* \"#utility.yul\":6954:6988   */\n      tag_50\n      jump\t// in\n    tag_139:\n        /* \"#utility.yul\":6936:6989   */\n      tag_27\n      jump\t// in\n    tag_138:\n        /* \"#utility.yul\":6923:6989   */\n      swap1\n      pop\n        /* \"#utility.yul\":6853:6995   */\n      swap2\n      swap1\n      pop\n      jump\t// out\n        /* \"#utility.yul\":7001:7076   */\n    tag_52:\n        /* \"#utility.yul\":7044:7047   */\n      0x00\n        /* \"#utility.yul\":7065:7070   */\n      dup2\n        /* \"#utility.yul\":7058:7070   */\n      swap1\n      pop\n        /* \"#utility.yul\":7001:7076   */\n      swap2\n      swap1\n      pop\n      jump\t// out\n        /* \"#utility.yul\":7082:7351   */\n    tag_53:\n        /* \"#utility.yul\":7192:7231   */\n      tag_143\n        /* \"#utility.yul\":7223:7230   */\n      dup4\n        /* \"#utility.yul\":7192:7231   */\n      tag_51\n      jump\t// in\n    tag_143:\n        /* \"#utility.yul\":7253:7344   */\n      tag_144\n        /* \"#utility.yul\":7302:7343   */\n      tag_145\n        /* \"#utility.yul\":7326:7342   */\n      dup3\n        /* \"#utility.yul\":7302:7343   */\n      tag_52\n      jump\t// in\n    tag_145:\n        /* \"#utility.yul\":7294:7300   */\n      dup5\n        /* \"#utility.yul\":7287:7291   */\n      dup5\n        /* \"#utility.yul\":7281:7292   */\n      sload\n        /* \"#utility.yul\":7253:7344   */\n      tag_49\n      jump\t// in\n    tag_144:\n        /* \"#utility.yul\":7247:7251   */\n      dup3\n        /* \"#utility.yul\":7240:7345   */\n      sstore\n        /* \"#utility.yul\":7158:7351   */\n      pop\n        /* \"#utility.yul\":7082:7351   */\n      pop\n      pop\n      pop\n      jump\t// out\n        /* \"#utility.yul\":7357:7430   */\n    tag_54:\n        /* \"#utility.yul\":7402:7405   */\n      0x00\n        /* \"#utility.yul\":7357:7430   */\n      swap1\n      jump\t// out\n        /* \"#utility.yul\":7436:7625   */\n    tag_55:\n        /* \"#utility.yul\":7513:7545   */\n      tag_148\n      tag_54\n      jump\t// in\n    tag_148:\n        /* \"#utility.yul\":7554:7619   */\n      tag_149\n        /* \"#utility.yul\":7612:7618   */\n      dup2\n        /* \"#utility.yul\":7604:7610   */\n      dup5\n        /* \"#utility.yul\":7598:7602   */\n      dup5\n        /* \"#utility.yul\":7554:7619   */\n      tag_53\n      jump\t// in\n    tag_149:\n        /* \"#utility.yul\":7489:7625   */\n      pop\n        /* \"#utility.yul\":7436:7625   */\n      pop\n      pop\n      jump\t// out\n        /* \"#utility.yul\":7631:7817   */\n    tag_56:\n        /* \"#utility.yul\":7691:7811   */\n    tag_151:\n        /* \"#utility.yul\":7708:7711   */\n      dup2\n        /* \"#utility.yul\":7701:7706   */\n      dup2\n        /* \"#utility.yul\":7698:7712   */\n      lt\n        /* \"#utility.yul\":7691:7811   */\n      iszero\n      tag_153\n      jumpi\n        /* \"#utility.yul\":7762:7801   */\n      tag_154\n        /* \"#utility.yul\":7799:7800   */\n      0x00\n        /* \"#utility.yul\":7792:7797   */\n      dup3\n        /* \"#utility.yul\":7762:7801   */\n      tag_55\n      jump\t// in\n    tag_154:\n        /* \"#utility.yul\":7735:7736   */\n      0x01\n        /* \"#utility.yul\":7728:7733   */\n      dup2\n        /* \"#utility.yul\":7724:7737   */\n      add\n        /* \"#utility.yul\":7715:7737   */\n      swap1\n      pop\n        /* \"#utility.yul\":7691:7811   */\n      jump(tag_151)\n    tag_153:\n        /* \"#utility.yul\":7631:7817   */\n      pop\n      pop\n      jump\t// out\n        /* \"#utility.yul\":7823:8366   */\n    tag_57:\n        /* \"#utility.yul\":7924:7926   */\n      0x1f\n        /* \"#utility.yul\":7919:7922   */\n      dup3\n        /* \"#utility.yul\":7916:7927   */\n      gt\n        /* \"#utility.yul\":7913:8359   */\n      iszero\n      tag_156\n      jumpi\n        /* \"#utility.yul\":7958:7996   */\n      tag_157\n        /* \"#utility.yul\":7990:7995   */\n      dup2\n        /* \"#utility.yul\":7958:7996   */\n      tag_46\n      jump\t// in\n    tag_157:\n        /* \"#utility.yul\":8042:8071   */\n      tag_158\n        /* \"#utility.yul\":8060:8070   */\n      dup5\n        /* \"#utility.yul\":8042:8071   */\n      tag_47\n      jump\t// in\n    tag_158:\n        /* \"#utility.yul\":8032:8040   */\n      dup2\n        /* \"#utility.yul\":8028:8072   */\n      add\n        /* \"#utility.yul\":8225:8227   */\n      0x20\n        /* \"#utility.yul\":8213:8223   */\n      dup6\n        /* \"#utility.yul\":8210:8228   */\n      lt\n        /* \"#utility.yul\":8207:8256   */\n      iszero\n      tag_159\n      jumpi\n        /* \"#utility.yul\":8246:8254   */\n      dup2\n        /* \"#utility.yul\":8231:8254   */\n      swap1\n      pop\n        /* \"#utility.yul\":8207:8256   */\n    tag_159:\n        /* \"#utility.yul\":8269:8349   */\n      tag_160\n        /* \"#utility.yul\":8325:8347   */\n      tag_161\n        /* \"#utility.yul\":8343:8346   */\n      dup6\n        /* \"#utility.yul\":8325:8347   */\n      tag_47\n      jump\t// in\n    tag_161:\n        /* \"#utility.yul\":8315:8323   */\n      dup4\n        /* \"#utility.yul\":8311:8348   */\n      add\n        /* \"#utility.yul\":8298:8309   */\n      dup3\n        /* \"#utility.yul\":8269:8349   */\n      tag_56\n      jump\t// in\n    tag_160:\n        /* \"#utility.yul\":7928:8359   */\n      pop\n      pop\n        /* \"#utility.yul\":7913:8359   */\n    tag_156:\n        /* \"#utility.yul\":7823:8366   */\n      pop\n      pop\n      pop\n      jump\t// out\n        /* \"#utility.yul\":8372:8489   */\n    tag_58:\n        /* \"#utility.yul\":8426:8434   */\n      0x00\n        /* \"#utility.yul\":8476:8481   */\n      dup3\n        /* \"#utility.yul\":8470:8474   */\n      dup3\n        /* \"#utility.yul\":8466:8482   */\n      shr\n        /* \"#utility.yul\":8445:8482   */\n      swap1\n      pop\n        /* \"#utility.yul\":8372:8489   */\n      swap3\n      swap2\n      pop\n      pop\n      jump\t// out\n        /* \"#utility.yul\":8495:8664   */\n    tag_59:\n        /* \"#utility.yul\":8539:8545   */\n      0x00\n        /* \"#utility.yul\":8572:8623   */\n      tag_164\n        /* \"#utility.yul\":8620:8621   */\n      0x00\n        /* \"#utility.yul\":8616:8622   */\n      not\n        /* \"#utility.yul\":8608:8613   */\n      dup5\n        /* \"#utility.yul\":8605:8606   */\n      0x08\n        /* \"#utility.yul\":8601:8614   */\n      mul\n        /* \"#utility.yul\":8572:8623   */\n      tag_58\n      jump\t// in\n    tag_164:\n        /* \"#utility.yul\":8568:8624   */\n      not\n        /* \"#utility.yul\":8653:8657   */\n      dup1\n        /* \"#utility.yul\":8647:8651   */\n      dup4\n        /* \"#utility.yul\":8643:8658   */\n      and\n        /* \"#utility.yul\":8633:8658   */\n      swap2\n      pop\n        /* \"#utility.yul\":8546:8664   */\n      pop\n        /* \"#utility.yul\":8495:8664   */\n      swap3\n      swap2\n      pop\n      pop\n      jump\t// out\n        /* \"#utility.yul\":8669:8964   */\n    tag_60:\n        /* \"#utility.yul\":8745:8749   */\n      0x00\n        /* \"#utility.yul\":8891:8920   */\n      tag_166\n        /* \"#utility.yul\":8916:8919   */\n      dup4\n        /* \"#utility.yul\":8910:8914   */\n      dup4\n        /* \"#utility.yul\":8891:8920   */\n      tag_59\n      jump\t// in\n    tag_166:\n        /* \"#utility.yul\":8883:8920   */\n      swap2\n      pop\n        /* \"#utility.yul\":8953:8956   */\n      dup3\n        /* \"#utility.yul\":8950:8951   */\n      0x02\n        /* \"#utility.yul\":8946:8957   */\n      mul\n        /* \"#utility.yul\":8940:8944   */\n      dup3\n        /* \"#utility.yul\":8937:8958   */\n      or\n        /* \"#utility.yul\":8929:8958   */\n      swap1\n      pop\n        /* \"#utility.yul\":8669:8964   */\n      swap3\n      swap2\n      pop\n      pop\n      jump\t// out\n        /* \"#utility.yul\":8969:10364   */\n    tag_23:\n        /* \"#utility.yul\":9086:9123   */\n      tag_168\n        /* \"#utility.yul\":9119:9122   */\n      dup3\n        /* \"#utility.yul\":9086:9123   */\n      tag_30\n      jump\t// in\n    tag_168:\n        /* \"#utility.yul\":9188:9206   */\n      0xffffffffffffffff\n        /* \"#utility.yul\":9180:9186   */\n      dup2\n        /* \"#utility.yul\":9177:9207   */\n      gt\n        /* \"#utility.yul\":9174:9230   */\n      iszero\n      tag_169\n      jumpi\n        /* \"#utility.yul\":9210:9228   */\n      tag_170\n      tag_38\n      jump\t// in\n    tag_170:\n        /* \"#utility.yul\":9174:9230   */\n    tag_169:\n        /* \"#utility.yul\":9254:9292   */\n      tag_171\n        /* \"#utility.yul\":9286:9290   */\n      dup3\n        /* \"#utility.yul\":9280:9291   */\n      sload\n        /* \"#utility.yul\":9254:9292   */\n      tag_16\n      jump\t// in\n    tag_171:\n        /* \"#utility.yul\":9339:9406   */\n      tag_172\n        /* \"#utility.yul\":9399:9405   */\n      dup3\n        /* \"#utility.yul\":9391:9397   */\n      dup3\n        /* \"#utility.yul\":9385:9389   */\n      dup6\n        /* \"#utility.yul\":9339:9406   */\n      tag_57\n      jump\t// in\n    tag_172:\n        /* \"#utility.yul\":9433:9434   */\n      0x00\n        /* \"#utility.yul\":9457:9461   */\n      0x20\n        /* \"#utility.yul\":9444:9461   */\n      swap1\n      pop\n        /* \"#utility.yul\":9489:9491   */\n      0x1f\n        /* \"#utility.yul\":9481:9487   */\n      dup4\n        /* \"#utility.yul\":9478:9492   */\n      gt\n        /* \"#utility.yul\":9506:9507   */\n      0x01\n        /* \"#utility.yul\":9501:10119   */\n      dup2\n      eq\n      tag_174\n      jumpi\n        /* \"#utility.yul\":10163:10164   */\n      0x00\n        /* \"#utility.yul\":10180:10186   */\n      dup5\n        /* \"#utility.yul\":10177:10254   */\n      iszero\n      tag_175\n      jumpi\n        /* \"#utility.yul\":10229:10238   */\n      dup3\n        /* \"#utility.yul\":10224:10227   */\n      dup8\n        /* \"#utility.yul\":10220:10239   */\n      add\n        /* \"#utility.yul\":10214:10240   */\n      mload\n        /* \"#utility.yul\":10205:10240   */\n      swap1\n      pop\n        /* \"#utility.yul\":10177:10254   */\n    tag_175:\n        /* \"#utility.yul\":10280:10347   */\n      tag_176\n        /* \"#utility.yul\":10340:10346   */\n      dup6\n        /* \"#utility.yul\":10333:10338   */\n      dup3\n        /* \"#utility.yul\":10280:10347   */\n      tag_60\n      jump\t// in\n    tag_176:\n        /* \"#utility.yul\":10274:10278   */\n      dup7\n        /* \"#utility.yul\":10267:10348   */\n      sstore\n        /* \"#utility.yul\":10136:10358   */\n      pop\n        /* \"#utility.yul\":9471:10358   */\n      jump(tag_173)\n        /* \"#utility.yul\":9501:10119   */\n    tag_174:\n        /* \"#utility.yul\":9553:9557   */\n      0x1f\n        /* \"#utility.yul\":9549:9558   */\n      not\n        /* \"#utility.yul\":9541:9547   */\n      dup5\n        /* \"#utility.yul\":9537:9559   */\n      and\n        /* \"#utility.yul\":9587:9624   */\n      tag_177\n        /* \"#utility.yul\":9619:9623   */\n      dup7\n        /* \"#utility.yul\":9587:9624   */\n      tag_46\n      jump\t// in\n    tag_177:\n        /* \"#utility.yul\":9646:9647   */\n      0x00\n        /* \"#utility.yul\":9660:9868   */\n    tag_178:\n        /* \"#utility.yul\":9674:9681   */\n      dup3\n        /* \"#utility.yul\":9671:9672   */\n      dup2\n        /* \"#utility.yul\":9668:9682   */\n      lt\n        /* \"#utility.yul\":9660:9868   */\n      iszero\n      tag_180\n      jumpi\n        /* \"#utility.yul\":9753:9762   */\n      dup5\n        /* \"#utility.yul\":9748:9751   */\n      dup10\n        /* \"#utility.yul\":9744:9763   */\n      add\n        /* \"#utility.yul\":9738:9764   */\n      mload\n        /* \"#utility.yul\":9730:9736   */\n      dup3\n        /* \"#utility.yul\":9723:9765   */\n      sstore\n        /* \"#utility.yul\":9804:9805   */\n      0x01\n        /* \"#utility.yul\":9796:9802   */\n      dup3\n        /* \"#utility.yul\":9792:9806   */\n      add\n        /* \"#utility.yul\":9782:9806   */\n      swap2\n      pop\n        /* \"#utility.yul\":9851:9853   */\n      0x20\n        /* \"#utility.yul\":9840:9849   */\n      dup6\n        /* \"#utility.yul\":9836:9854   */\n      add\n        /* \"#utility.yul\":9823:9854   */\n      swap5\n      pop\n        /* \"#utility.yul\":9697:9701   */\n      0x20\n        /* \"#utility.yul\":9694:9695   */\n      dup2\n        /* \"#utility.yul\":9690:9702   */\n      add\n        /* \"#utility.yul\":9685:9702   */\n      swap1\n      pop\n        /* \"#utility.yul\":9660:9868   */\n      jump(tag_178)\n    tag_180:\n        /* \"#utility.yul\":9896:9902   */\n      dup7\n        /* \"#utility.yul\":9887:9894   */\n      dup4\n        /* \"#utility.yul\":9884:9903   */\n      lt\n        /* \"#utility.yul\":9881:10060   */\n      iszero\n      tag_181\n      jumpi\n        /* \"#utility.yul\":9954:9963   */\n      dup5\n        /* \"#utility.yul\":9949:9952   */\n      dup10\n        /* \"#utility.yul\":9945:9964   */\n      add\n        /* \"#utility.yul\":9939:9965   */\n      mload\n        /* \"#utility.yul\":9997:10045   */\n      tag_182\n        /* \"#utility.yul\":10039:10043   */\n      0x1f\n        /* \"#utility.yul\":10031:10037   */\n      dup10\n        /* \"#utility.yul\":10027:10044   */\n      and\n        /* \"#utility.yul\":10016:10025   */\n      dup3\n        /* \"#utility.yul\":9997:10045   */\n      tag_59\n      jump\t// in\n    tag_182:\n        /* \"#utility.yul\":9989:9995   */\n      dup4\n        /* \"#utility.yul\":9982:10046   */\n      sstore\n        /* \"#utility.yul\":9904:10060   */\n      pop\n        /* \"#utility.yul\":9881:10060   */\n    tag_181:\n        /* \"#utility.yul\":10106:10107   */\n      0x01\n        /* \"#utility.yul\":10102:10103   */\n      0x02\n        /* \"#utility.yul\":10094:10100   */\n      dup9\n        /* \"#utility.yul\":10090:10104   */\n      mul\n        /* \"#utility.yul\":10086:10108   */\n      add\n        /* \"#utility.yul\":10080:10084   */\n      dup9\n        /* \"#utility.yul\":10073:10109   */\n      sstore\n        /* \"#utility.yul\":9508:10119   */\n      pop\n      pop\n      pop\n        /* \"#utility.yul\":9471:10358   */\n    tag_173:\n      pop\n        /* \"#utility.yul\":9061:10364   */\n      pop\n      pop\n      pop\n        /* \"#utility.yul\":8969:10364   */\n      pop\n      pop\n      jump\t// out\n\n    auxdata: 0xa26469706673582212201af3e61f1d92783d7cc2bd9f5e4ee331bb4a269585b739263f434e9ac04a944f64736f6c63430008170033\n}\n",
				"bytecode": {
					"linkReferences": {},
					"object": "608060405234801561000f575f80fd5b506107428061001d5f395ff3fe608060405234801561000f575f80fd5b5060043610610034575f3560e01c806354bb68f51461003857806389e7fcd014610069575b5f80fd5b610052600480360381019061004d91906101b9565b610085565b60405161006092919061027d565b60405180910390f35b610083600480360381019061007e91906103d7565b61012a565b005b5f602052805f5260405f205f91509050805f0180546100a390610470565b80601f01602080910402602001604051908101604052809291908181526020018280546100cf90610470565b801561011a5780601f106100f15761010080835404028352916020019161011a565b820191905f5260205f20905b8154815290600101906020018083116100fd57829003601f168201915b5050505050908060010154905082565b6040518060400160405280838152602001828152505f808581526020019081526020015f205f820151815f019081610162919061063d565b5060208201518160010155905050505050565b5f604051905090565b5f80fd5b5f80fd5b5f819050919050565b61019881610186565b81146101a2575f80fd5b50565b5f813590506101b38161018f565b92915050565b5f602082840312156101ce576101cd61017e565b5b5f6101db848285016101a5565b91505092915050565b5f81519050919050565b5f82825260208201905092915050565b5f5b8381101561021b578082015181840152602081019050610200565b5f8484015250505050565b5f601f19601f8301169050919050565b5f610240826101e4565b61024a81856101ee565b935061025a8185602086016101fe565b61026381610226565b840191505092915050565b61027781610186565b82525050565b5f6040820190508181035f8301526102958185610236565b90506102a4602083018461026e565b9392505050565b5f80fd5b5f80fd5b7f4e487b71000000000000000000000000000000000000000000000000000000005f52604160045260245ffd5b6102e982610226565b810181811067ffffffffffffffff82111715610308576103076102b3565b5b80604052505050565b5f61031a610175565b905061032682826102e0565b919050565b5f67ffffffffffffffff821115610345576103446102b3565b5b61034e82610226565b9050602081019050919050565b828183375f83830152505050565b5f61037b6103768461032b565b610311565b905082815260208101848484011115610397576103966102af565b5b6103a284828561035b565b509392505050565b5f82601f8301126103be576103bd6102ab565b5b81356103ce848260208601610369565b91505092915050565b5f805f606084860312156103ee576103ed61017e565b5b5f6103fb868287016101a5565b935050602084013567ffffffffffffffff81111561041c5761041b610182565b5b610428868287016103aa565b9250506040610439868287016101a5565b9150509250925092565b7f4e487b71000000000000000000000000000000000000000000000000000000005f52602260045260245ffd5b5f600282049050600182168061048757607f821691505b60208210810361049a57610499610443565b5b50919050565b5f819050815f5260205f209050919050565b5f6020601f8301049050919050565b5f82821b905092915050565b5f600883026104fc7fffffffffffffffffffffffffffffffffffffffffffffffffffffffffffffffff826104c1565b61050686836104c1565b95508019841693508086168417925050509392505050565b5f819050919050565b5f61054161053c61053784610186565b61051e565b610186565b9050919050565b5f819050919050565b61055a83610527565b61056e61056682610548565b8484546104cd565b825550505050565b5f90565b610582610576565b61058d818484610551565b505050565b5b818110156105b0576105a55f8261057a565b600181019050610593565b5050565b601f8211156105f5576105c6816104a0565b6105cf846104b2565b810160208510156105de578190505b6105f26105ea856104b2565b830182610592565b50505b505050565b5f82821c905092915050565b5f6106155f19846008026105fa565b1980831691505092915050565b5f61062d8383610606565b9150826002028217905092915050565b610646826101e4565b67ffffffffffffffff81111561065f5761065e6102b3565b5b6106698254610470565b6106748282856105b4565b5f60209050601f8311600181146106a5575f8415610693578287015190505b61069d8582610622565b865550610704565b601f1984166106b3866104a0565b5f5b828110156106da578489015182556001820191506020850194506020810190506106b5565b868310156106f757848901516106f3601f891682610606565b8355505b6001600288020188555050505b50505050505056fea26469706673582212201af3e61f1d92783d7cc2bd9f5e4ee331bb4a269585b739263f434e9ac04a944f64736f6c63430008170033",
					"opcodes": "PUSH1 0x80 PUSH1 0x40 MSTORE CALLVALUE DUP1 ISZERO PUSH2 0xF JUMPI PUSH0 DUP1 REVERT JUMPDEST POP PUSH2 0x742 DUP1 PUSH2 0x1D PUSH0 CODECOPY PUSH0 RETURN INVALID PUSH1 0x80 PUSH1 0x40 MSTORE CALLVALUE DUP1 ISZERO PUSH2 0xF JUMPI PUSH0 DUP1 REVERT JUMPDEST POP PUSH1 0x4 CALLDATASIZE LT PUSH2 0x34 JUMPI PUSH0 CALLDATALOAD PUSH1 0xE0 SHR DUP1 PUSH4 0x54BB68F5 EQ PUSH2 0x38 JUMPI DUP1 PUSH4 0x89E7FCD0 EQ PUSH2 0x69 JUMPI JUMPDEST PUSH0 DUP1 REVERT JUMPDEST PUSH2 0x52 PUSH1 0x4 DUP1 CALLDATASIZE SUB DUP2 ADD SWAP1 PUSH2 0x4D SWAP2 SWAP1 PUSH2 0x1B9 JUMP JUMPDEST PUSH2 0x85 JUMP JUMPDEST PUSH1 0x40 MLOAD PUSH2 0x60 SWAP3 SWAP2 SWAP1 PUSH2 0x27D JUMP JUMPDEST PUSH1 0x40 MLOAD DUP1 SWAP2 SUB SWAP1 RETURN JUMPDEST PUSH2 0x83 PUSH1 0x4 DUP1 CALLDATASIZE SUB DUP2 ADD SWAP1 PUSH2 0x7E SWAP2 SWAP1 PUSH2 0x3D7 JUMP JUMPDEST PUSH2 0x12A JUMP JUMPDEST STOP JUMPDEST PUSH0 PUSH1 0x20 MSTORE DUP1 PUSH0 MSTORE PUSH1 0x40 PUSH0 KECCAK256 PUSH0 SWAP2 POP SWAP1 POP DUP1 PUSH0 ADD DUP1 SLOAD PUSH2 0xA3 SWAP1 PUSH2 0x470 JUMP JUMPDEST DUP1 PUSH1 0x1F ADD PUSH1 0x20 DUP1 SWAP2 DIV MUL PUSH1 0x20 ADD PUSH1 0x40 MLOAD SWAP1 DUP2 ADD PUSH1 0x40 MSTORE DUP1 SWAP3 SWAP2 SWAP1 DUP2 DUP2 MSTORE PUSH1 0x20 ADD DUP3 DUP1 SLOAD PUSH2 0xCF SWAP1 PUSH2 0x470 JUMP JUMPDEST DUP1 ISZERO PUSH2 0x11A JUMPI DUP1 PUSH1 0x1F LT PUSH2 0xF1 JUMPI PUSH2 0x100 DUP1 DUP4 SLOAD DIV MUL DUP4 MSTORE SWAP2 PUSH1 0x20 ADD SWAP2 PUSH2 0x11A JUMP JUMPDEST DUP3 ADD SWAP2 SWAP1 PUSH0 MSTORE PUSH1 0x20 PUSH0 KECCAK256 SWAP1 JUMPDEST DUP2 SLOAD DUP2 MSTORE SWAP1 PUSH1 0x1 ADD SWAP1 PUSH1 0x20 ADD DUP1 DUP4 GT PUSH2 0xFD JUMPI DUP3 SWAP1 SUB PUSH1 0x1F AND DUP3 ADD SWAP2 JUMPDEST POP POP POP POP POP SWAP1 DUP1 PUSH1 0x1 ADD SLOAD SWAP1 POP DUP3 JUMP JUMPDEST PUSH1 0x40 MLOAD DUP1 PUSH1 0x40 ADD PUSH1 0x40 MSTORE DUP1 DUP4 DUP2 MSTORE PUSH1 0x20 ADD DUP3 DUP2 MSTORE POP PUSH0 DUP1 DUP6 DUP2 MSTORE PUSH1 0x20 ADD SWAP1 DUP2 MSTORE PUSH1 0x20 ADD PUSH0 KECCAK256 PUSH0 DUP3 ADD MLOAD DUP2 PUSH0 ADD SWAP1 DUP2 PUSH2 0x162 SWAP2 SWAP1 PUSH2 0x63D JUMP JUMPDEST POP PUSH1 0x20 DUP3 ADD MLOAD DUP2 PUSH1 0x1 ADD SSTORE SWAP1 POP POP POP POP POP JUMP JUMPDEST PUSH0 PUSH1 0x40 MLOAD SWAP1 POP SWAP1 JUMP JUMPDEST PUSH0 DUP1 REVERT JUMPDEST PUSH0 DUP1 REVERT JUMPDEST PUSH0 DUP2 SWAP1 POP SWAP2 SWAP1 POP JUMP JUMPDEST PUSH2 0x198 DUP2 PUSH2 0x186 JUMP JUMPDEST DUP2 EQ PUSH2 0x1A2 JUMPI PUSH0 DUP1 REVERT JUMPDEST POP JUMP JUMPDEST PUSH0 DUP2 CALLDATALOAD SWAP1 POP PUSH2 0x1B3 DUP2 PUSH2 0x18F JUMP JUMPDEST SWAP3 SWAP2 POP POP JUMP JUMPDEST PUSH0 PUSH1 0x20 DUP3 DUP5 SUB SLT ISZERO PUSH2 0x1CE JUMPI PUSH2 0x1CD PUSH2 0x17E JUMP JUMPDEST JUMPDEST PUSH0 PUSH2 0x1DB DUP5 DUP3 DUP6 ADD PUSH2 0x1A5 JUMP JUMPDEST SWAP2 POP POP SWAP3 SWAP2 POP POP JUMP JUMPDEST PUSH0 DUP2 MLOAD SWAP1 POP SWAP2 SWAP1 POP JUMP JUMPDEST PUSH0 DUP3 DUP3 MSTORE PUSH1 0x20 DUP3 ADD SWAP1 POP SWAP3 SWAP2 POP POP JUMP JUMPDEST PUSH0 JUMPDEST DUP4 DUP2 LT ISZERO PUSH2 0x21B JUMPI DUP1 DUP3 ADD MLOAD DUP2 DUP5 ADD MSTORE PUSH1 0x20 DUP2 ADD SWAP1 POP PUSH2 0x200 JUMP JUMPDEST PUSH0 DUP5 DUP5 ADD MSTORE POP POP POP POP JUMP JUMPDEST PUSH0 PUSH1 0x1F NOT PUSH1 0x1F DUP4 ADD AND SWAP1 POP SWAP2 SWAP1 POP JUMP JUMPDEST PUSH0 PUSH2 0x240 DUP3 PUSH2 0x1E4 JUMP JUMPDEST PUSH2 0x24A DUP2 DUP6 PUSH2 0x1EE JUMP JUMPDEST SWAP4 POP PUSH2 0x25A DUP2 DUP6 PUSH1 0x20 DUP7 ADD PUSH2 0x1FE JUMP JUMPDEST PUSH2 0x263 DUP2 PUSH2 0x226 JUMP JUMPDEST DUP5 ADD SWAP2 POP POP SWAP3 SWAP2 POP POP JUMP JUMPDEST PUSH2 0x277 DUP2 PUSH2 0x186 JUMP JUMPDEST DUP3 MSTORE POP POP JUMP JUMPDEST PUSH0 PUSH1 0x40 DUP3 ADD SWAP1 POP DUP2 DUP2 SUB PUSH0 DUP4 ADD MSTORE PUSH2 0x295 DUP2 DUP6 PUSH2 0x236 JUMP JUMPDEST SWAP1 POP PUSH2 0x2A4 PUSH1 0x20 DUP4 ADD DUP5 PUSH2 0x26E JUMP JUMPDEST SWAP4 SWAP3 POP POP POP JUMP JUMPDEST PUSH0 DUP1 REVERT JUMPDEST PUSH0 DUP1 REVERT JUMPDEST PUSH32 0x4E487B7100000000000000000000000000000000000000000000000000000000 PUSH0 MSTORE PUSH1 0x41 PUSH1 0x4 MSTORE PUSH1 0x24 PUSH0 REVERT JUMPDEST PUSH2 0x2E9 DUP3 PUSH2 0x226 JUMP JUMPDEST DUP2 ADD DUP2 DUP2 LT PUSH8 0xFFFFFFFFFFFFFFFF DUP3 GT OR ISZERO PUSH2 0x308 JUMPI PUSH2 0x307 PUSH2 0x2B3 JUMP JUMPDEST JUMPDEST DUP1 PUSH1 0x40 MSTORE POP POP POP JUMP JUMPDEST PUSH0 PUSH2 0x31A PUSH2 0x175 JUMP JUMPDEST SWAP1 POP PUSH2 0x326 DUP3 DUP3 PUSH2 0x2E0 JUMP JUMPDEST SWAP2 SWAP1 POP JUMP JUMPDEST PUSH0 PUSH8 0xFFFFFFFFFFFFFFFF DUP3 GT ISZERO PUSH2 0x345 JUMPI PUSH2 0x344 PUSH2 0x2B3 JUMP JUMPDEST JUMPDEST PUSH2 0x34E DUP3 PUSH2 0x226 JUMP JUMPDEST SWAP1 POP PUSH1 0x20 DUP2 ADD SWAP1 POP SWAP2 SWAP1 POP JUMP JUMPDEST DUP3 DUP2 DUP4 CALLDATACOPY PUSH0 DUP4 DUP4 ADD MSTORE POP POP POP JUMP JUMPDEST PUSH0 PUSH2 0x37B PUSH2 0x376 DUP5 PUSH2 0x32B JUMP JUMPDEST PUSH2 0x311 JUMP JUMPDEST SWAP1 POP DUP3 DUP2 MSTORE PUSH1 0x20 DUP2 ADD DUP5 DUP5 DUP5 ADD GT ISZERO PUSH2 0x397 JUMPI PUSH2 0x396 PUSH2 0x2AF JUMP JUMPDEST JUMPDEST PUSH2 0x3A2 DUP5 DUP3 DUP6 PUSH2 0x35B JUMP JUMPDEST POP SWAP4 SWAP3 POP POP POP JUMP JUMPDEST PUSH0 DUP3 PUSH1 0x1F DUP4 ADD SLT PUSH2 0x3BE JUMPI PUSH2 0x3BD PUSH2 0x2AB JUMP JUMPDEST JUMPDEST DUP2 CALLDATALOAD PUSH2 0x3CE DUP5 DUP3 PUSH1 0x20 DUP7 ADD PUSH2 0x369 JUMP JUMPDEST SWAP2 POP POP SWAP3 SWAP2 POP POP JUMP JUMPDEST PUSH0 DUP1 PUSH0 PUSH1 0x60 DUP5 DUP7 SUB SLT ISZERO PUSH2 0x3EE JUMPI PUSH2 0x3ED PUSH2 0x17E JUMP JUMPDEST JUMPDEST PUSH0 PUSH2 0x3FB DUP7 DUP3 DUP8 ADD PUSH2 0x1A5 JUMP JUMPDEST SWAP4 POP POP PUSH1 0x20 DUP5 ADD CALLDATALOAD PUSH8 0xFFFFFFFFFFFFFFFF DUP2 GT ISZERO PUSH2 0x41C JUMPI PUSH2 0x41B PUSH2 0x182 JUMP JUMPDEST JUMPDEST PUSH2 0x428 DUP7 DUP3 DUP8 ADD PUSH2 0x3AA JUMP JUMPDEST SWAP3 POP POP PUSH1 0x40 PUSH2 0x439 DUP7 DUP3 DUP8 ADD PUSH2 0x1A5 JUMP JUMPDEST SWAP2 POP POP SWAP3 POP SWAP3 POP SWAP3 JUMP JUMPDEST PUSH32 0x4E487B7100000000000000000000000000000000000000000000000000000000 PUSH0 MSTORE PUSH1 0x22 PUSH1 0x4 MSTORE PUSH1 0x24 PUSH0 REVERT JUMPDEST PUSH0 PUSH1 0x2 DUP3 DIV SWAP1 POP PUSH1 0x1 DUP3 AND DUP1 PUSH2 0x487 JUMPI PUSH1 0x7F DUP3 AND SWAP2 POP JUMPDEST PUSH1 0x20 DUP3 LT DUP2 SUB PUSH2 0x49A JUMPI PUSH2 0x499 PUSH2 0x443 JUMP JUMPDEST JUMPDEST POP SWAP2 SWAP1 POP JUMP JUMPDEST PUSH0 DUP2 SWAP1 POP DUP2 PUSH0 MSTORE PUSH1 0x20 PUSH0 KECCAK256 SWAP1 POP SWAP2 SWAP1 POP JUMP JUMPDEST PUSH0 PUSH1 0x20 PUSH1 0x1F DUP4 ADD DIV SWAP1 POP SWAP2 SWAP1 POP JUMP JUMPDEST PUSH0 DUP3 DUP3 SHL SWAP1 POP SWAP3 SWAP2 POP POP JUMP JUMPDEST PUSH0 PUSH1 0x8 DUP4 MUL PUSH2 0x4FC PUSH32 0xFFFFFFFFFFFFFFFFFFFFFFFFFFFFFFFFFFFFFFFFFFFFFFFFFFFFFFFFFFFFFFFF DUP3 PUSH2 0x4C1 JUMP JUMPDEST PUSH2 0x506 DUP7 DUP4 PUSH2 0x4C1 JUMP JUMPDEST SWAP6 POP DUP1 NOT DUP5 AND SWAP4 POP DUP1 DUP7 AND DUP5 OR SWAP3 POP POP POP SWAP4 SWAP3 POP POP POP JUMP JUMPDEST PUSH0 DUP2 SWAP1 POP SWAP2 SWAP1 POP JUMP JUMPDEST PUSH0 PUSH2 0x541 PUSH2 0x53C PUSH2 0x537 DUP5 PUSH2 0x186 JUMP JUMPDEST PUSH2 0x51E JUMP JUMPDEST PUSH2 0x186 JUMP JUMPDEST SWAP1 POP SWAP2 SWAP1 POP JUMP JUMPDEST PUSH0 DUP2 SWAP1 POP SWAP2 SWAP1 POP JUMP JUMPDEST PUSH2 0x55A DUP4 PUSH2 0x527 JUMP JUMPDEST PUSH2 0x56E PUSH2 0x566 DUP3 PUSH2 0x548 JUMP JUMPDEST DUP5 DUP5 SLOAD PUSH2 0x4CD JUMP JUMPDEST DUP3 SSTORE POP POP POP POP JUMP JUMPDEST PUSH0 SWAP1 JUMP JUMPDEST PUSH2 0x582 PUSH2 0x576 JUMP JUMPDEST PUSH2 0x58D DUP2 DUP5 DUP5 PUSH2 0x551 JUMP JUMPDEST POP POP POP JUMP JUMPDEST JUMPDEST DUP2 DUP2 LT ISZERO PUSH2 0x5B0 JUMPI PUSH2 0x5A5 PUSH0 DUP3 PUSH2 0x57A JUMP JUMPDEST PUSH1 0x1 DUP2 ADD SWAP1 POP PUSH2 0x593 JUMP JUMPDEST POP POP JUMP JUMPDEST PUSH1 0x1F DUP3 GT ISZERO PUSH2 0x5F5 JUMPI PUSH2 0x5C6 DUP2 PUSH2 0x4A0 JUMP JUMPDEST PUSH2 0x5CF DUP5 PUSH2 0x4B2 JUMP JUMPDEST DUP2 ADD PUSH1 0x20 DUP6 LT ISZERO PUSH2 0x5DE JUMPI DUP2 SWAP1 POP JUMPDEST PUSH2 0x5F2 PUSH2 0x5EA DUP6 PUSH2 0x4B2 JUMP JUMPDEST DUP4 ADD DUP3 PUSH2 0x592 JUMP JUMPDEST POP POP JUMPDEST POP POP POP JUMP JUMPDEST PUSH0 DUP3 DUP3 SHR SWAP1 POP SWAP3 SWAP2 POP POP JUMP JUMPDEST PUSH0 PUSH2 0x615 PUSH0 NOT DUP5 PUSH1 0x8 MUL PUSH2 0x5FA JUMP JUMPDEST NOT DUP1 DUP4 AND SWAP2 POP POP SWAP3 SWAP2 POP POP JUMP JUMPDEST PUSH0 PUSH2 0x62D DUP4 DUP4 PUSH2 0x606 JUMP JUMPDEST SWAP2 POP DUP3 PUSH1 0x2 MUL DUP3 OR SWAP1 POP SWAP3 SWAP2 POP POP JUMP JUMPDEST PUSH2 0x646 DUP3 PUSH2 0x1E4 JUMP JUMPDEST PUSH8 0xFFFFFFFFFFFFFFFF DUP2 GT ISZERO PUSH2 0x65F JUMPI PUSH2 0x65E PUSH2 0x2B3 JUMP JUMPDEST JUMPDEST PUSH2 0x669 DUP3 SLOAD PUSH2 0x470 JUMP JUMPDEST PUSH2 0x674 DUP3 DUP3 DUP6 PUSH2 0x5B4 JUMP JUMPDEST PUSH0 PUSH1 0x20 SWAP1 POP PUSH1 0x1F DUP4 GT PUSH1 0x1 DUP2 EQ PUSH2 0x6A5 JUMPI PUSH0 DUP5 ISZERO PUSH2 0x693 JUMPI DUP3 DUP8 ADD MLOAD SWAP1 POP JUMPDEST PUSH2 0x69D DUP6 DUP3 PUSH2 0x622 JUMP JUMPDEST DUP7 SSTORE POP PUSH2 0x704 JUMP JUMPDEST PUSH1 0x1F NOT DUP5 AND PUSH2 0x6B3 DUP7 PUSH2 0x4A0 JUMP JUMPDEST PUSH0 JUMPDEST DUP3 DUP2 LT ISZERO PUSH2 0x6DA JUMPI DUP5 DUP10 ADD MLOAD DUP3 SSTORE PUSH1 0x1 DUP3 ADD SWAP2 POP PUSH1 0x20 DUP6 ADD SWAP5 POP PUSH1 0x20 DUP2 ADD SWAP1 POP PUSH2 0x6B5 JUMP JUMPDEST DUP7 DUP4 LT ISZERO PUSH2 0x6F7 JUMPI DUP5 DUP10 ADD MLOAD PUSH2 0x6F3 PUSH1 0x1F DUP10 AND DUP3 PUSH2 0x606 JUMP JUMPDEST DUP4 SSTORE POP JUMPDEST PUSH1 0x1 PUSH1 0x2 DUP9 MUL ADD DUP9 SSTORE POP POP POP JUMPDEST POP POP POP POP POP POP JUMP INVALID LOG2 PUSH5 0x6970667358 0x22 SLT KECCAK256 BYTE RETURN 0xE6 0x1F SAR SWAP3 PUSH25 0x3D7CC2BD9F5E4EE331BB4A269585B739263F434E9AC04A944F PUSH5 0x736F6C6343 STOP ADDMOD OR STOP CALLER "
				},
				"gasEstimates": {
					"creation": {
						"codeDepositCost": "371600",
						"executionCost": "409",
						"totalCost": "372009"
					},
					"external": {
						"agregarPersonaMapping(uint256,string,uint256)": "infinite",
						"personasMapping(uint256)": "infinite"
					}
				},
				"methodIdentifiers": {
					"agregarPersonaMapping(uint256,string,uint256)": "89e7fcd0",
					"personasMapping(uint256)": "54bb68f5"
				}
			},
			"storageLayout": {
				"storage": [
					{
						"astId": 11,
						"contract": "contracts/12_EjemploMapping.sol:EjemploMapping",
						"label": "personasMapping",
						"offset": 0,
						"slot": "0",
						"type": "t_mapping(t_uint256,t_struct(Persona)6_storage)"
					}
				],
				"types": {
					"t_mapping(t_uint256,t_struct(Persona)6_storage)": {
						"encoding": "mapping",
						"key": "t_uint256",
						"label": "mapping(uint256 => struct EjemploMapping.Persona)",
						"numberOfBytes": "32",
						"value": "t_struct(Persona)6_storage"
					},
					"t_string_storage": {
						"encoding": "bytes",
						"label": "string",
						"numberOfBytes": "32"
					},
					"t_struct(Persona)6_storage": {
						"encoding": "inplace",
						"label": "struct EjemploMapping.Persona",
						"members": [
							{
								"astId": 3,
								"contract": "contracts/12_EjemploMapping.sol:EjemploMapping",
								"label": "nombre",
								"offset": 0,
								"slot": "0",
								"type": "t_string_storage"
							},
							{
								"astId": 5,
								"contract": "contracts/12_EjemploMapping.sol:EjemploMapping",
								"label": "edad",
								"offset": 0,
								"slot": "1",
								"type": "t_uint256"
							}
						],
						"numberOfBytes": "64"
					},
					"t_uint256": {
						"encoding": "inplace",
						"label": "uint256",
						"numberOfBytes": "32"
					}
				}
			},
			"userdoc": {
				"kind": "user",
				"methods": {},
				"version": 1
			}
		}
	}
}