{
	"contracts/7_WhereAmI.sol": {
		"WhereAmI": {
			"abi": [
				{
					"inputs": [
						{
							"internalType": "uint256",
							"name": "_zipCode",
							"type": "uint256"
						}
					],
					"stateMutability": "nonpayable",
					"type": "constructor"
				},
				{
					"inputs": [],
					"name": "destAccount",
					"outputs": [
						{
							"internalType": "address payable",
							"name": "",
							"type": "address"
						}
					],
					"stateMutability": "view",
					"type": "function"
				},
				{
					"inputs": [],
					"name": "getBalance",
					"outputs": [
						{
							"internalType": "uint256",
							"name": "",
							"type": "uint256"
						}
					],
					"stateMutability": "view",
					"type": "function"
				},
				{
					"inputs": [],
					"name": "owner",
					"outputs": [
						{
							"internalType": "address",
							"name": "",
							"type": "address"
						}
					],
					"stateMutability": "view",
					"type": "function"
				},
				{
					"inputs": [
						{
							"internalType": "uint256",
							"name": "_newZipCode",
							"type": "uint256"
						}
					],
					"name": "setZipCode",
					"outputs": [],
					"stateMutability": "payable",
					"type": "function"
				},
				{
					"inputs": [],
					"name": "withdraw",
					"outputs": [],
					"stateMutability": "nonpayable",
					"type": "function"
				},
				{
					"inputs": [],
					"name": "zipCode",
					"outputs": [
						{
							"internalType": "uint256",
							"name": "",
							"type": "uint256"
						}
					],
					"stateMutability": "view",
					"type": "function"
				},
				{
					"stateMutability": "payable",
					"type": "receive"
				}
			],
			"devdoc": {
				"kind": "dev",
				"methods": {},
				"version": 1
			},
			"evm": {
				"assembly": "    /* \"contracts/7_WhereAmI.sol\":74:1289  contract WhereAmI {... */\n  mstore(0x40, 0x80)\n    /* \"contracts/7_WhereAmI.sol\":230:495  constructor(uint256 _zipCode) {... */\n  callvalue\n  dup1\n  iszero\n  tag_1\n  jumpi\n  revert(0x00, 0x00)\ntag_1:\n  pop\n  mload(0x40)\n  sub(codesize, bytecodeSize)\n  dup1\n  bytecodeSize\n  dup4\n  codecopy\n  dup2\n  dup2\n  add\n  0x40\n  mstore\n  dup2\n  add\n  swap1\n  tag_2\n  swap2\n  swap1\n  tag_3\n  jump\t// in\ntag_2:\n    /* \"contracts/7_WhereAmI.sol\":281:289  _zipCode */\n  dup1\n    /* \"contracts/7_WhereAmI.sol\":271:278  zipCode */\n  0x00\n    /* \"contracts/7_WhereAmI.sol\":271:289  zipCode = _zipCode */\n  dup2\n  swap1\n  sstore\n  pop\n    /* \"contracts/7_WhereAmI.sol\":308:318  msg.sender */\n  caller\n    /* \"contracts/7_WhereAmI.sol\":300:305  owner */\n  0x01\n  0x00\n    /* \"contracts/7_WhereAmI.sol\":300:318  owner = msg.sender */\n  0x0100\n  exp\n  dup2\n  sload\n  dup2\n  0xffffffffffffffffffffffffffffffffffffffff\n  mul\n  not\n  and\n  swap1\n  dup4\n  0xffffffffffffffffffffffffffffffffffffffff\n  and\n  mul\n  or\n  swap1\n  sstore\n  pop\n    /* \"contracts/7_WhereAmI.sol\":351:393  0x5c6B0f7Bf3E7ce046039Bd8FABdfD3f9F5021678 */\n  0x5c6b0f7bf3e7ce046039bd8fabdfd3f9f5021678\n    /* \"contracts/7_WhereAmI.sol\":329:340  destAccount */\n  0x02\n  0x00\n    /* \"contracts/7_WhereAmI.sol\":329:394  destAccount = payable(0x5c6B0f7Bf3E7ce046039Bd8FABdfD3f9F5021678) */\n  0x0100\n  exp\n  dup2\n  sload\n  dup2\n  0xffffffffffffffffffffffffffffffffffffffff\n  mul\n  not\n  and\n  swap1\n  dup4\n  0xffffffffffffffffffffffffffffffffffffffff\n  and\n  mul\n  or\n  swap1\n  sstore\n  pop\n    /* \"contracts/7_WhereAmI.sol\":420:435  block.timestamp */\n  timestamp\n    /* \"contracts/7_WhereAmI.sol\":405:417  creationTime */\n  0x03\n    /* \"contracts/7_WhereAmI.sol\":405:435  creationTime = block.timestamp */\n  dup2\n  swap1\n  sstore\n  pop\n    /* \"contracts/7_WhereAmI.sol\":230:495  constructor(uint256 _zipCode) {... */\n  pop\n    /* \"contracts/7_WhereAmI.sol\":74:1289  contract WhereAmI {... */\n  jump(tag_6)\n    /* \"#utility.yul\":88:205   */\ntag_8:\n    /* \"#utility.yul\":197:198   */\n  0x00\n    /* \"#utility.yul\":194:195   */\n  0x00\n    /* \"#utility.yul\":187:199   */\n  revert\n    /* \"#utility.yul\":334:411   */\ntag_10:\n    /* \"#utility.yul\":371:378   */\n  0x00\n    /* \"#utility.yul\":400:405   */\n  dup2\n    /* \"#utility.yul\":389:405   */\n  swap1\n  pop\n    /* \"#utility.yul\":334:411   */\n  swap2\n  swap1\n  pop\n  jump\t// out\n    /* \"#utility.yul\":417:539   */\ntag_11:\n    /* \"#utility.yul\":490:514   */\n  tag_19\n    /* \"#utility.yul\":508:513   */\n  dup2\n    /* \"#utility.yul\":490:514   */\n  tag_10\n  jump\t// in\ntag_19:\n    /* \"#utility.yul\":483:488   */\n  dup2\n    /* \"#utility.yul\":480:515   */\n  eq\n    /* \"#utility.yul\":470:533   */\n  tag_20\n  jumpi\n    /* \"#utility.yul\":529:530   */\n  0x00\n    /* \"#utility.yul\":526:527   */\n  0x00\n    /* \"#utility.yul\":519:531   */\n  revert\n    /* \"#utility.yul\":470:533   */\ntag_20:\n    /* \"#utility.yul\":417:539   */\n  pop\n  jump\t// out\n    /* \"#utility.yul\":545:688   */\ntag_12:\n    /* \"#utility.yul\":602:607   */\n  0x00\n    /* \"#utility.yul\":633:639   */\n  dup2\n    /* \"#utility.yul\":627:640   */\n  mload\n    /* \"#utility.yul\":618:640   */\n  swap1\n  pop\n    /* \"#utility.yul\":649:682   */\n  tag_22\n    /* \"#utility.yul\":676:681   */\n  dup2\n    /* \"#utility.yul\":649:682   */\n  tag_11\n  jump\t// in\ntag_22:\n    /* \"#utility.yul\":545:688   */\n  swap3\n  swap2\n  pop\n  pop\n  jump\t// out\n    /* \"#utility.yul\":694:1045   */\ntag_3:\n    /* \"#utility.yul\":764:770   */\n  0x00\n    /* \"#utility.yul\":813:815   */\n  0x20\n    /* \"#utility.yul\":801:810   */\n  dup3\n    /* \"#utility.yul\":792:799   */\n  dup5\n    /* \"#utility.yul\":788:811   */\n  sub\n    /* \"#utility.yul\":784:816   */\n  slt\n    /* \"#utility.yul\":781:900   */\n  iszero\n  tag_24\n  jumpi\n    /* \"#utility.yul\":819:898   */\n  tag_25\n  tag_8\n  jump\t// in\ntag_25:\n    /* \"#utility.yul\":781:900   */\ntag_24:\n    /* \"#utility.yul\":939:940   */\n  0x00\n    /* \"#utility.yul\":964:1028   */\n  tag_26\n    /* \"#utility.yul\":1020:1027   */\n  dup5\n    /* \"#utility.yul\":1011:1017   */\n  dup3\n    /* \"#utility.yul\":1000:1009   */\n  dup6\n    /* \"#utility.yul\":996:1018   */\n  add\n    /* \"#utility.yul\":964:1028   */\n  tag_12\n  jump\t// in\ntag_26:\n    /* \"#utility.yul\":954:1028   */\n  swap2\n  pop\n    /* \"#utility.yul\":910:1038   */\n  pop\n    /* \"#utility.yul\":694:1045   */\n  swap3\n  swap2\n  pop\n  pop\n  jump\t// out\n    /* \"contracts/7_WhereAmI.sol\":74:1289  contract WhereAmI {... */\ntag_6:\n  dataSize(sub_0)\n  dup1\n  dataOffset(sub_0)\n  0x00\n  codecopy\n  0x00\n  return\nstop\n\nsub_0: assembly {\n        /* \"contracts/7_WhereAmI.sol\":74:1289  contract WhereAmI {... */\n      mstore(0x40, 0x80)\n      jumpi(tag_1, lt(calldatasize, 0x04))\n      shr(0xe0, calldataload(0x00))\n      dup1\n      0x12065fe0\n      eq\n      tag_3\n      jumpi\n      dup1\n      0x1b8795ff\n      eq\n      tag_4\n      jumpi\n      dup1\n      0x3ccfd60b\n      eq\n      tag_5\n      jumpi\n      dup1\n      0x8da5cb5b\n      eq\n      tag_6\n      jumpi\n      dup1\n      0x8f65e5ef\n      eq\n      tag_7\n      jumpi\n      dup1\n      0xfbd7193e\n      eq\n      tag_8\n      jumpi\n      jump(tag_2)\n    tag_1:\n      jumpi(tag_2, calldatasize)\n      stop\n    tag_2:\n      revert(0x00, 0x00)\n        /* \"contracts/7_WhereAmI.sol\":926:1027  function getBalance() external view returns (uint256) {... */\n    tag_3:\n      callvalue\n      dup1\n      iszero\n      tag_11\n      jumpi\n      revert(0x00, 0x00)\n    tag_11:\n      pop\n      tag_12\n      tag_13\n      jump\t// in\n    tag_12:\n      mload(0x40)\n      tag_14\n      swap2\n      swap1\n      tag_15\n      jump\t// in\n    tag_14:\n      mload(0x40)\n      dup1\n      swap2\n      sub\n      swap1\n      return\n        /* \"contracts/7_WhereAmI.sol\":155:189  address payable public destAccount */\n    tag_4:\n      callvalue\n      dup1\n      iszero\n      tag_16\n      jumpi\n      revert(0x00, 0x00)\n    tag_16:\n      pop\n      tag_17\n      tag_18\n      jump\t// in\n    tag_17:\n      mload(0x40)\n      tag_19\n      swap2\n      swap1\n      tag_20\n      jump\t// in\n    tag_19:\n      mload(0x40)\n      dup1\n      swap2\n      sub\n      swap1\n      return\n        /* \"contracts/7_WhereAmI.sol\":1035:1244  function withdraw() public onlyOwner {... */\n    tag_5:\n      callvalue\n      dup1\n      iszero\n      tag_21\n      jumpi\n      revert(0x00, 0x00)\n    tag_21:\n      pop\n      tag_22\n      tag_23\n      jump\t// in\n    tag_22:\n      stop\n        /* \"contracts/7_WhereAmI.sol\":128:148  address public owner */\n    tag_6:\n      callvalue\n      dup1\n      iszero\n      tag_24\n      jumpi\n      revert(0x00, 0x00)\n    tag_24:\n      pop\n      tag_25\n      tag_26\n      jump\t// in\n    tag_25:\n      mload(0x40)\n      tag_27\n      swap2\n      swap1\n      tag_28\n      jump\t// in\n    tag_27:\n      mload(0x40)\n      dup1\n      swap2\n      sub\n      swap1\n      return\n        /* \"contracts/7_WhereAmI.sol\":99:121  uint256 public zipCode */\n    tag_7:\n      callvalue\n      dup1\n      iszero\n      tag_29\n      jumpi\n      revert(0x00, 0x00)\n    tag_29:\n      pop\n      tag_30\n      tag_31\n      jump\t// in\n    tag_30:\n      mload(0x40)\n      tag_32\n      swap2\n      swap1\n      tag_15\n      jump\t// in\n    tag_32:\n      mload(0x40)\n      dup1\n      swap2\n      sub\n      swap1\n      return\n        /* \"contracts/7_WhereAmI.sol\":615:918  function setZipCode(uint256 _newZipCode) public onlyOwner payable {... */\n    tag_8:\n      tag_33\n      0x04\n      dup1\n      calldatasize\n      sub\n      dup2\n      add\n      swap1\n      tag_34\n      swap2\n      swap1\n      tag_35\n      jump\t// in\n    tag_34:\n      tag_36\n      jump\t// in\n    tag_33:\n      stop\n        /* \"contracts/7_WhereAmI.sol\":926:1027  function getBalance() external view returns (uint256) {... */\n    tag_13:\n        /* \"contracts/7_WhereAmI.sol\":971:978  uint256 */\n      0x00\n        /* \"contracts/7_WhereAmI.sol\":998:1019  address(this).balance */\n      selfbalance\n        /* \"contracts/7_WhereAmI.sol\":991:1019  return address(this).balance */\n      swap1\n      pop\n        /* \"contracts/7_WhereAmI.sol\":926:1027  function getBalance() external view returns (uint256) {... */\n      swap1\n      jump\t// out\n        /* \"contracts/7_WhereAmI.sol\":155:189  address payable public destAccount */\n    tag_18:\n      0x02\n      0x00\n      swap1\n      sload\n      swap1\n      0x0100\n      exp\n      swap1\n      div\n      0xffffffffffffffffffffffffffffffffffffffff\n      and\n      dup2\n      jump\t// out\n        /* \"contracts/7_WhereAmI.sol\":1035:1244  function withdraw() public onlyOwner {... */\n    tag_23:\n        /* \"contracts/7_WhereAmI.sol\":557:562  owner */\n      0x01\n      0x00\n      swap1\n      sload\n      swap1\n      0x0100\n      exp\n      swap1\n      div\n      0xffffffffffffffffffffffffffffffffffffffff\n      and\n        /* \"contracts/7_WhereAmI.sol\":543:562  msg.sender == owner */\n      0xffffffffffffffffffffffffffffffffffffffff\n      and\n        /* \"contracts/7_WhereAmI.sol\":543:553  msg.sender */\n      caller\n        /* \"contracts/7_WhereAmI.sol\":543:562  msg.sender == owner */\n      0xffffffffffffffffffffffffffffffffffffffff\n      and\n      eq\n        /* \"contracts/7_WhereAmI.sol\":535:587  require(msg.sender == owner, \"No es el propietario\") */\n      tag_39\n      jumpi\n      mload(0x40)\n      0x08c379a000000000000000000000000000000000000000000000000000000000\n      dup2\n      mstore\n      0x04\n      add\n      tag_40\n      swap1\n      tag_41\n      jump\t// in\n    tag_40:\n      mload(0x40)\n      dup1\n      swap2\n      sub\n      swap1\n      revert\n    tag_39:\n        /* \"contracts/7_WhereAmI.sol\":1124:1133  2 minutes */\n      0x78\n        /* \"contracts/7_WhereAmI.sol\":1109:1121  creationTime */\n      sload(0x03)\n        /* \"contracts/7_WhereAmI.sol\":1109:1133  creationTime + 2 minutes */\n      tag_43\n      swap2\n      swap1\n      tag_44\n      jump\t// in\n    tag_43:\n        /* \"contracts/7_WhereAmI.sol\":1091:1106  block.timestamp */\n      timestamp\n        /* \"contracts/7_WhereAmI.sol\":1091:1133  block.timestamp > creationTime + 2 minutes */\n      gt\n        /* \"contracts/7_WhereAmI.sol\":1083:1182  require(block.timestamp > creationTime + 2 minutes, \"No puede retirar antes de que pase 2 minutos\") */\n      tag_45\n      jumpi\n      mload(0x40)\n      0x08c379a000000000000000000000000000000000000000000000000000000000\n      dup2\n      mstore\n      0x04\n      add\n      tag_46\n      swap1\n      tag_47\n      jump\t// in\n    tag_46:\n      mload(0x40)\n      dup1\n      swap2\n      sub\n      swap1\n      revert\n    tag_45:\n        /* \"contracts/7_WhereAmI.sol\":1193:1204  destAccount */\n      0x02\n      0x00\n      swap1\n      sload\n      swap1\n      0x0100\n      exp\n      swap1\n      div\n      0xffffffffffffffffffffffffffffffffffffffff\n      and\n        /* \"contracts/7_WhereAmI.sol\":1193:1213  destAccount.transfer */\n      0xffffffffffffffffffffffffffffffffffffffff\n      and\n        /* \"contracts/7_WhereAmI.sol\":1193:1236  destAccount.transfer(address(this).balance) */\n      0x08fc\n        /* \"contracts/7_WhereAmI.sol\":1214:1235  address(this).balance */\n      selfbalance\n        /* \"contracts/7_WhereAmI.sol\":1193:1236  destAccount.transfer(address(this).balance) */\n      swap1\n      dup2\n      iszero\n      mul\n      swap1\n      mload(0x40)\n      0x00\n      mload(0x40)\n      dup1\n      dup4\n      sub\n      dup2\n      dup6\n      dup9\n      dup9\n      call\n      swap4\n      pop\n      pop\n      pop\n      pop\n      iszero\n      dup1\n      iszero\n      tag_49\n      jumpi\n      returndatacopy(0x00, 0x00, returndatasize)\n      revert(0x00, returndatasize)\n    tag_49:\n      pop\n        /* \"contracts/7_WhereAmI.sol\":1035:1244  function withdraw() public onlyOwner {... */\n      jump\t// out\n        /* \"contracts/7_WhereAmI.sol\":128:148  address public owner */\n    tag_26:\n      0x01\n      0x00\n      swap1\n      sload\n      swap1\n      0x0100\n      exp\n      swap1\n      div\n      0xffffffffffffffffffffffffffffffffffffffff\n      and\n      dup2\n      jump\t// out\n        /* \"contracts/7_WhereAmI.sol\":99:121  uint256 public zipCode */\n    tag_31:\n      sload(0x00)\n      dup2\n      jump\t// out\n        /* \"contracts/7_WhereAmI.sol\":615:918  function setZipCode(uint256 _newZipCode) public onlyOwner payable {... */\n    tag_36:\n        /* \"contracts/7_WhereAmI.sol\":557:562  owner */\n      0x01\n      0x00\n      swap1\n      sload\n      swap1\n      0x0100\n      exp\n      swap1\n      div\n      0xffffffffffffffffffffffffffffffffffffffff\n      and\n        /* \"contracts/7_WhereAmI.sol\":543:562  msg.sender == owner */\n      0xffffffffffffffffffffffffffffffffffffffff\n      and\n        /* \"contracts/7_WhereAmI.sol\":543:553  msg.sender */\n      caller\n        /* \"contracts/7_WhereAmI.sol\":543:562  msg.sender == owner */\n      0xffffffffffffffffffffffffffffffffffffffff\n      and\n      eq\n        /* \"contracts/7_WhereAmI.sol\":535:587  require(msg.sender == owner, \"No es el propietario\") */\n      tag_51\n      jumpi\n      mload(0x40)\n      0x08c379a000000000000000000000000000000000000000000000000000000000\n      dup2\n      mstore\n      0x04\n      add\n      tag_52\n      swap1\n      tag_41\n      jump\t// in\n    tag_52:\n      mload(0x40)\n      dup1\n      swap2\n      sub\n      swap1\n      revert\n    tag_51:\n        /* \"contracts/7_WhereAmI.sol\":713:723  0.01 ether */\n      0x2386f26fc10000\n        /* \"contracts/7_WhereAmI.sol\":700:709  msg.value */\n      callvalue\n        /* \"contracts/7_WhereAmI.sol\":700:723  msg.value >= 0.01 ether */\n      lt\n      iszero\n        /* \"contracts/7_WhereAmI.sol\":692:757  require(msg.value >= 0.01 ether, \"El valor debe ser minimo 0.01\") */\n      tag_54\n      jumpi\n      mload(0x40)\n      0x08c379a000000000000000000000000000000000000000000000000000000000\n      dup2\n      mstore\n      0x04\n      add\n      tag_55\n      swap1\n      tag_56\n      jump\t// in\n    tag_55:\n      mload(0x40)\n      dup1\n      swap2\n      sub\n      swap1\n      revert\n    tag_54:\n        /* \"contracts/7_WhereAmI.sol\":791:796  10000 */\n      0x2710\n        /* \"contracts/7_WhereAmI.sol\":776:787  _newZipCode */\n      dup2\n        /* \"contracts/7_WhereAmI.sol\":776:796  _newZipCode >= 10000 */\n      lt\n      iszero\n        /* \"contracts/7_WhereAmI.sol\":776:820  _newZipCode >= 10000 && _newZipCode <= 99999 */\n      dup1\n      iszero\n      tag_57\n      jumpi\n      pop\n        /* \"contracts/7_WhereAmI.sol\":815:820  99999 */\n      0x01869f\n        /* \"contracts/7_WhereAmI.sol\":800:811  _newZipCode */\n      dup2\n        /* \"contracts/7_WhereAmI.sol\":800:820  _newZipCode <= 99999 */\n      gt\n      iszero\n        /* \"contracts/7_WhereAmI.sol\":776:820  _newZipCode >= 10000 && _newZipCode <= 99999 */\n    tag_57:\n        /* \"contracts/7_WhereAmI.sol\":768:862  require(_newZipCode >= 10000 && _newZipCode <= 99999, \"El codigo postal debe tener 5 digitos\") */\n      tag_58\n      jumpi\n      mload(0x40)\n      0x08c379a000000000000000000000000000000000000000000000000000000000\n      dup2\n      mstore\n      0x04\n      add\n      tag_59\n      swap1\n      tag_60\n      jump\t// in\n    tag_59:\n      mload(0x40)\n      dup1\n      swap2\n      sub\n      swap1\n      revert\n    tag_58:\n        /* \"contracts/7_WhereAmI.sol\":899:910  _newZipCode */\n      dup1\n        /* \"contracts/7_WhereAmI.sol\":889:896  zipCode */\n      0x00\n        /* \"contracts/7_WhereAmI.sol\":889:910  zipCode = _newZipCode */\n      dup2\n      swap1\n      sstore\n      pop\n        /* \"contracts/7_WhereAmI.sol\":615:918  function setZipCode(uint256 _newZipCode) public onlyOwner payable {... */\n      pop\n      jump\t// out\n        /* \"#utility.yul\":7:84   */\n    tag_61:\n        /* \"#utility.yul\":44:51   */\n      0x00\n        /* \"#utility.yul\":73:78   */\n      dup2\n        /* \"#utility.yul\":62:78   */\n      swap1\n      pop\n        /* \"#utility.yul\":7:84   */\n      swap2\n      swap1\n      pop\n      jump\t// out\n        /* \"#utility.yul\":90:208   */\n    tag_62:\n        /* \"#utility.yul\":177:201   */\n      tag_86\n        /* \"#utility.yul\":195:200   */\n      dup2\n        /* \"#utility.yul\":177:201   */\n      tag_61\n      jump\t// in\n    tag_86:\n        /* \"#utility.yul\":172:175   */\n      dup3\n        /* \"#utility.yul\":165:202   */\n      mstore\n        /* \"#utility.yul\":90:208   */\n      pop\n      pop\n      jump\t// out\n        /* \"#utility.yul\":214:436   */\n    tag_15:\n        /* \"#utility.yul\":307:311   */\n      0x00\n        /* \"#utility.yul\":345:347   */\n      0x20\n        /* \"#utility.yul\":334:343   */\n      dup3\n        /* \"#utility.yul\":330:348   */\n      add\n        /* \"#utility.yul\":322:348   */\n      swap1\n      pop\n        /* \"#utility.yul\":358:429   */\n      tag_88\n        /* \"#utility.yul\":426:427   */\n      0x00\n        /* \"#utility.yul\":415:424   */\n      dup4\n        /* \"#utility.yul\":411:428   */\n      add\n        /* \"#utility.yul\":402:408   */\n      dup5\n        /* \"#utility.yul\":358:429   */\n      tag_62\n      jump\t// in\n    tag_88:\n        /* \"#utility.yul\":214:436   */\n      swap3\n      swap2\n      pop\n      pop\n      jump\t// out\n        /* \"#utility.yul\":442:568   */\n    tag_63:\n        /* \"#utility.yul\":479:486   */\n      0x00\n        /* \"#utility.yul\":519:561   */\n      0xffffffffffffffffffffffffffffffffffffffff\n        /* \"#utility.yul\":512:517   */\n      dup3\n        /* \"#utility.yul\":508:562   */\n      and\n        /* \"#utility.yul\":497:562   */\n      swap1\n      pop\n        /* \"#utility.yul\":442:568   */\n      swap2\n      swap1\n      pop\n      jump\t// out\n        /* \"#utility.yul\":574:678   */\n    tag_64:\n        /* \"#utility.yul\":619:626   */\n      0x00\n        /* \"#utility.yul\":648:672   */\n      tag_91\n        /* \"#utility.yul\":666:671   */\n      dup3\n        /* \"#utility.yul\":648:672   */\n      tag_63\n      jump\t// in\n    tag_91:\n        /* \"#utility.yul\":637:672   */\n      swap1\n      pop\n        /* \"#utility.yul\":574:678   */\n      swap2\n      swap1\n      pop\n      jump\t// out\n        /* \"#utility.yul\":684:826   */\n    tag_65:\n        /* \"#utility.yul\":787:819   */\n      tag_93\n        /* \"#utility.yul\":813:818   */\n      dup2\n        /* \"#utility.yul\":787:819   */\n      tag_64\n      jump\t// in\n    tag_93:\n        /* \"#utility.yul\":782:785   */\n      dup3\n        /* \"#utility.yul\":775:820   */\n      mstore\n        /* \"#utility.yul\":684:826   */\n      pop\n      pop\n      jump\t// out\n        /* \"#utility.yul\":832:1086   */\n    tag_20:\n        /* \"#utility.yul\":941:945   */\n      0x00\n        /* \"#utility.yul\":979:981   */\n      0x20\n        /* \"#utility.yul\":968:977   */\n      dup3\n        /* \"#utility.yul\":964:982   */\n      add\n        /* \"#utility.yul\":956:982   */\n      swap1\n      pop\n        /* \"#utility.yul\":992:1079   */\n      tag_95\n        /* \"#utility.yul\":1076:1077   */\n      0x00\n        /* \"#utility.yul\":1065:1074   */\n      dup4\n        /* \"#utility.yul\":1061:1078   */\n      add\n        /* \"#utility.yul\":1052:1058   */\n      dup5\n        /* \"#utility.yul\":992:1079   */\n      tag_65\n      jump\t// in\n    tag_95:\n        /* \"#utility.yul\":832:1086   */\n      swap3\n      swap2\n      pop\n      pop\n      jump\t// out\n        /* \"#utility.yul\":1092:1188   */\n    tag_66:\n        /* \"#utility.yul\":1129:1136   */\n      0x00\n        /* \"#utility.yul\":1158:1182   */\n      tag_97\n        /* \"#utility.yul\":1176:1181   */\n      dup3\n        /* \"#utility.yul\":1158:1182   */\n      tag_63\n      jump\t// in\n    tag_97:\n        /* \"#utility.yul\":1147:1182   */\n      swap1\n      pop\n        /* \"#utility.yul\":1092:1188   */\n      swap2\n      swap1\n      pop\n      jump\t// out\n        /* \"#utility.yul\":1194:1312   */\n    tag_67:\n        /* \"#utility.yul\":1281:1305   */\n      tag_99\n        /* \"#utility.yul\":1299:1304   */\n      dup2\n        /* \"#utility.yul\":1281:1305   */\n      tag_66\n      jump\t// in\n    tag_99:\n        /* \"#utility.yul\":1276:1279   */\n      dup3\n        /* \"#utility.yul\":1269:1306   */\n      mstore\n        /* \"#utility.yul\":1194:1312   */\n      pop\n      pop\n      jump\t// out\n        /* \"#utility.yul\":1318:1540   */\n    tag_28:\n        /* \"#utility.yul\":1411:1415   */\n      0x00\n        /* \"#utility.yul\":1449:1451   */\n      0x20\n        /* \"#utility.yul\":1438:1447   */\n      dup3\n        /* \"#utility.yul\":1434:1452   */\n      add\n        /* \"#utility.yul\":1426:1452   */\n      swap1\n      pop\n        /* \"#utility.yul\":1462:1533   */\n      tag_101\n        /* \"#utility.yul\":1530:1531   */\n      0x00\n        /* \"#utility.yul\":1519:1528   */\n      dup4\n        /* \"#utility.yul\":1515:1532   */\n      add\n        /* \"#utility.yul\":1506:1512   */\n      dup5\n        /* \"#utility.yul\":1462:1533   */\n      tag_67\n      jump\t// in\n    tag_101:\n        /* \"#utility.yul\":1318:1540   */\n      swap3\n      swap2\n      pop\n      pop\n      jump\t// out\n        /* \"#utility.yul\":1627:1744   */\n    tag_69:\n        /* \"#utility.yul\":1736:1737   */\n      0x00\n        /* \"#utility.yul\":1733:1734   */\n      0x00\n        /* \"#utility.yul\":1726:1738   */\n      revert\n        /* \"#utility.yul\":1873:1995   */\n    tag_71:\n        /* \"#utility.yul\":1946:1970   */\n      tag_106\n        /* \"#utility.yul\":1964:1969   */\n      dup2\n        /* \"#utility.yul\":1946:1970   */\n      tag_61\n      jump\t// in\n    tag_106:\n        /* \"#utility.yul\":1939:1944   */\n      dup2\n        /* \"#utility.yul\":1936:1971   */\n      eq\n        /* \"#utility.yul\":1926:1989   */\n      tag_107\n      jumpi\n        /* \"#utility.yul\":1985:1986   */\n      0x00\n        /* \"#utility.yul\":1982:1983   */\n      0x00\n        /* \"#utility.yul\":1975:1987   */\n      revert\n        /* \"#utility.yul\":1926:1989   */\n    tag_107:\n        /* \"#utility.yul\":1873:1995   */\n      pop\n      jump\t// out\n        /* \"#utility.yul\":2001:2140   */\n    tag_72:\n        /* \"#utility.yul\":2047:2052   */\n      0x00\n        /* \"#utility.yul\":2085:2091   */\n      dup2\n        /* \"#utility.yul\":2072:2092   */\n      calldataload\n        /* \"#utility.yul\":2063:2092   */\n      swap1\n      pop\n        /* \"#utility.yul\":2101:2134   */\n      tag_109\n        /* \"#utility.yul\":2128:2133   */\n      dup2\n        /* \"#utility.yul\":2101:2134   */\n      tag_71\n      jump\t// in\n    tag_109:\n        /* \"#utility.yul\":2001:2140   */\n      swap3\n      swap2\n      pop\n      pop\n      jump\t// out\n        /* \"#utility.yul\":2146:2475   */\n    tag_35:\n        /* \"#utility.yul\":2205:2211   */\n      0x00\n        /* \"#utility.yul\":2254:2256   */\n      0x20\n        /* \"#utility.yul\":2242:2251   */\n      dup3\n        /* \"#utility.yul\":2233:2240   */\n      dup5\n        /* \"#utility.yul\":2229:2252   */\n      sub\n        /* \"#utility.yul\":2225:2257   */\n      slt\n        /* \"#utility.yul\":2222:2341   */\n      iszero\n      tag_111\n      jumpi\n        /* \"#utility.yul\":2260:2339   */\n      tag_112\n      tag_69\n      jump\t// in\n    tag_112:\n        /* \"#utility.yul\":2222:2341   */\n    tag_111:\n        /* \"#utility.yul\":2380:2381   */\n      0x00\n        /* \"#utility.yul\":2405:2458   */\n      tag_113\n        /* \"#utility.yul\":2450:2457   */\n      dup5\n        /* \"#utility.yul\":2441:2447   */\n      dup3\n        /* \"#utility.yul\":2430:2439   */\n      dup6\n        /* \"#utility.yul\":2426:2448   */\n      add\n        /* \"#utility.yul\":2405:2458   */\n      tag_72\n      jump\t// in\n    tag_113:\n        /* \"#utility.yul\":2395:2458   */\n      swap2\n      pop\n        /* \"#utility.yul\":2351:2468   */\n      pop\n        /* \"#utility.yul\":2146:2475   */\n      swap3\n      swap2\n      pop\n      pop\n      jump\t// out\n        /* \"#utility.yul\":2481:2650   */\n    tag_73:\n        /* \"#utility.yul\":2565:2576   */\n      0x00\n        /* \"#utility.yul\":2599:2605   */\n      dup3\n        /* \"#utility.yul\":2594:2597   */\n      dup3\n        /* \"#utility.yul\":2587:2606   */\n      mstore\n        /* \"#utility.yul\":2639:2643   */\n      0x20\n        /* \"#utility.yul\":2634:2637   */\n      dup3\n        /* \"#utility.yul\":2630:2644   */\n      add\n        /* \"#utility.yul\":2615:2644   */\n      swap1\n      pop\n        /* \"#utility.yul\":2481:2650   */\n      swap3\n      swap2\n      pop\n      pop\n      jump\t// out\n        /* \"#utility.yul\":2656:2826   */\n    tag_74:\n        /* \"#utility.yul\":2796:2818   */\n      0x4e6f20657320656c2070726f706965746172696f000000000000000000000000\n        /* \"#utility.yul\":2792:2793   */\n      0x00\n        /* \"#utility.yul\":2784:2790   */\n      dup3\n        /* \"#utility.yul\":2780:2794   */\n      add\n        /* \"#utility.yul\":2773:2819   */\n      mstore\n        /* \"#utility.yul\":2656:2826   */\n      pop\n      jump\t// out\n        /* \"#utility.yul\":2832:3198   */\n    tag_75:\n        /* \"#utility.yul\":2974:2977   */\n      0x00\n        /* \"#utility.yul\":2995:3062   */\n      tag_117\n        /* \"#utility.yul\":3059:3061   */\n      0x14\n        /* \"#utility.yul\":3054:3057   */\n      dup4\n        /* \"#utility.yul\":2995:3062   */\n      tag_73\n      jump\t// in\n    tag_117:\n        /* \"#utility.yul\":2988:3062   */\n      swap2\n      pop\n        /* \"#utility.yul\":3071:3164   */\n      tag_118\n        /* \"#utility.yul\":3160:3163   */\n      dup3\n        /* \"#utility.yul\":3071:3164   */\n      tag_74\n      jump\t// in\n    tag_118:\n        /* \"#utility.yul\":3189:3191   */\n      0x20\n        /* \"#utility.yul\":3184:3187   */\n      dup3\n        /* \"#utility.yul\":3180:3192   */\n      add\n        /* \"#utility.yul\":3173:3192   */\n      swap1\n      pop\n        /* \"#utility.yul\":2832:3198   */\n      swap2\n      swap1\n      pop\n      jump\t// out\n        /* \"#utility.yul\":3204:3623   */\n    tag_41:\n        /* \"#utility.yul\":3370:3374   */\n      0x00\n        /* \"#utility.yul\":3408:3410   */\n      0x20\n        /* \"#utility.yul\":3397:3406   */\n      dup3\n        /* \"#utility.yul\":3393:3411   */\n      add\n        /* \"#utility.yul\":3385:3411   */\n      swap1\n      pop\n        /* \"#utility.yul\":3457:3466   */\n      dup2\n        /* \"#utility.yul\":3451:3455   */\n      dup2\n        /* \"#utility.yul\":3447:3467   */\n      sub\n        /* \"#utility.yul\":3443:3444   */\n      0x00\n        /* \"#utility.yul\":3432:3441   */\n      dup4\n        /* \"#utility.yul\":3428:3445   */\n      add\n        /* \"#utility.yul\":3421:3468   */\n      mstore\n        /* \"#utility.yul\":3485:3616   */\n      tag_120\n        /* \"#utility.yul\":3611:3615   */\n      dup2\n        /* \"#utility.yul\":3485:3616   */\n      tag_75\n      jump\t// in\n    tag_120:\n        /* \"#utility.yul\":3477:3616   */\n      swap1\n      pop\n        /* \"#utility.yul\":3204:3623   */\n      swap2\n      swap1\n      pop\n      jump\t// out\n        /* \"#utility.yul\":3629:3809   */\n    tag_76:\n        /* \"#utility.yul\":3677:3754   */\n      0x4e487b7100000000000000000000000000000000000000000000000000000000\n        /* \"#utility.yul\":3674:3675   */\n      0x00\n        /* \"#utility.yul\":3667:3755   */\n      mstore\n        /* \"#utility.yul\":3774:3778   */\n      0x11\n        /* \"#utility.yul\":3771:3772   */\n      0x04\n        /* \"#utility.yul\":3764:3779   */\n      mstore\n        /* \"#utility.yul\":3798:3802   */\n      0x24\n        /* \"#utility.yul\":3795:3796   */\n      0x00\n        /* \"#utility.yul\":3788:3803   */\n      revert\n        /* \"#utility.yul\":3815:4006   */\n    tag_44:\n        /* \"#utility.yul\":3855:3858   */\n      0x00\n        /* \"#utility.yul\":3874:3894   */\n      tag_123\n        /* \"#utility.yul\":3892:3893   */\n      dup3\n        /* \"#utility.yul\":3874:3894   */\n      tag_61\n      jump\t// in\n    tag_123:\n        /* \"#utility.yul\":3869:3894   */\n      swap2\n      pop\n        /* \"#utility.yul\":3908:3928   */\n      tag_124\n        /* \"#utility.yul\":3926:3927   */\n      dup4\n        /* \"#utility.yul\":3908:3928   */\n      tag_61\n      jump\t// in\n    tag_124:\n        /* \"#utility.yul\":3903:3928   */\n      swap3\n      pop\n        /* \"#utility.yul\":3951:3952   */\n      dup3\n        /* \"#utility.yul\":3948:3949   */\n      dup3\n        /* \"#utility.yul\":3944:3953   */\n      add\n        /* \"#utility.yul\":3937:3953   */\n      swap1\n      pop\n        /* \"#utility.yul\":3972:3975   */\n      dup1\n        /* \"#utility.yul\":3969:3970   */\n      dup3\n        /* \"#utility.yul\":3966:3976   */\n      gt\n        /* \"#utility.yul\":3963:3999   */\n      iszero\n      tag_125\n      jumpi\n        /* \"#utility.yul\":3979:3997   */\n      tag_126\n      tag_76\n      jump\t// in\n    tag_126:\n        /* \"#utility.yul\":3963:3999   */\n    tag_125:\n        /* \"#utility.yul\":3815:4006   */\n      swap3\n      swap2\n      pop\n      pop\n      jump\t// out\n        /* \"#utility.yul\":4012:4243   */\n    tag_77:\n        /* \"#utility.yul\":4152:4186   */\n      0x4e6f207075656465207265746972617220616e74657320646520717565207061\n        /* \"#utility.yul\":4148:4149   */\n      0x00\n        /* \"#utility.yul\":4140:4146   */\n      dup3\n        /* \"#utility.yul\":4136:4150   */\n      add\n        /* \"#utility.yul\":4129:4187   */\n      mstore\n        /* \"#utility.yul\":4221:4235   */\n      0x73652032206d696e75746f730000000000000000000000000000000000000000\n        /* \"#utility.yul\":4216:4218   */\n      0x20\n        /* \"#utility.yul\":4208:4214   */\n      dup3\n        /* \"#utility.yul\":4204:4219   */\n      add\n        /* \"#utility.yul\":4197:4236   */\n      mstore\n        /* \"#utility.yul\":4012:4243   */\n      pop\n      jump\t// out\n        /* \"#utility.yul\":4249:4615   */\n    tag_78:\n        /* \"#utility.yul\":4391:4394   */\n      0x00\n        /* \"#utility.yul\":4412:4479   */\n      tag_129\n        /* \"#utility.yul\":4476:4478   */\n      0x2c\n        /* \"#utility.yul\":4471:4474   */\n      dup4\n        /* \"#utility.yul\":4412:4479   */\n      tag_73\n      jump\t// in\n    tag_129:\n        /* \"#utility.yul\":4405:4479   */\n      swap2\n      pop\n        /* \"#utility.yul\":4488:4581   */\n      tag_130\n        /* \"#utility.yul\":4577:4580   */\n      dup3\n        /* \"#utility.yul\":4488:4581   */\n      tag_77\n      jump\t// in\n    tag_130:\n        /* \"#utility.yul\":4606:4608   */\n      0x40\n        /* \"#utility.yul\":4601:4604   */\n      dup3\n        /* \"#utility.yul\":4597:4609   */\n      add\n        /* \"#utility.yul\":4590:4609   */\n      swap1\n      pop\n        /* \"#utility.yul\":4249:4615   */\n      swap2\n      swap1\n      pop\n      jump\t// out\n        /* \"#utility.yul\":4621:5040   */\n    tag_47:\n        /* \"#utility.yul\":4787:4791   */\n      0x00\n        /* \"#utility.yul\":4825:4827   */\n      0x20\n        /* \"#utility.yul\":4814:4823   */\n      dup3\n        /* \"#utility.yul\":4810:4828   */\n      add\n        /* \"#utility.yul\":4802:4828   */\n      swap1\n      pop\n        /* \"#utility.yul\":4874:4883   */\n      dup2\n        /* \"#utility.yul\":4868:4872   */\n      dup2\n        /* \"#utility.yul\":4864:4884   */\n      sub\n        /* \"#utility.yul\":4860:4861   */\n      0x00\n        /* \"#utility.yul\":4849:4858   */\n      dup4\n        /* \"#utility.yul\":4845:4862   */\n      add\n        /* \"#utility.yul\":4838:4885   */\n      mstore\n        /* \"#utility.yul\":4902:5033   */\n      tag_132\n        /* \"#utility.yul\":5028:5032   */\n      dup2\n        /* \"#utility.yul\":4902:5033   */\n      tag_78\n      jump\t// in\n    tag_132:\n        /* \"#utility.yul\":4894:5033   */\n      swap1\n      pop\n        /* \"#utility.yul\":4621:5040   */\n      swap2\n      swap1\n      pop\n      jump\t// out\n        /* \"#utility.yul\":5046:5225   */\n    tag_79:\n        /* \"#utility.yul\":5186:5217   */\n      0x456c2076616c6f72206465626520736572206d696e696d6f20302e3031000000\n        /* \"#utility.yul\":5182:5183   */\n      0x00\n        /* \"#utility.yul\":5174:5180   */\n      dup3\n        /* \"#utility.yul\":5170:5184   */\n      add\n        /* \"#utility.yul\":5163:5218   */\n      mstore\n        /* \"#utility.yul\":5046:5225   */\n      pop\n      jump\t// out\n        /* \"#utility.yul\":5231:5597   */\n    tag_80:\n        /* \"#utility.yul\":5373:5376   */\n      0x00\n        /* \"#utility.yul\":5394:5461   */\n      tag_135\n        /* \"#utility.yul\":5458:5460   */\n      0x1d\n        /* \"#utility.yul\":5453:5456   */\n      dup4\n        /* \"#utility.yul\":5394:5461   */\n      tag_73\n      jump\t// in\n    tag_135:\n        /* \"#utility.yul\":5387:5461   */\n      swap2\n      pop\n        /* \"#utility.yul\":5470:5563   */\n      tag_136\n        /* \"#utility.yul\":5559:5562   */\n      dup3\n        /* \"#utility.yul\":5470:5563   */\n      tag_79\n      jump\t// in\n    tag_136:\n        /* \"#utility.yul\":5588:5590   */\n      0x20\n        /* \"#utility.yul\":5583:5586   */\n      dup3\n        /* \"#utility.yul\":5579:5591   */\n      add\n        /* \"#utility.yul\":5572:5591   */\n      swap1\n      pop\n        /* \"#utility.yul\":5231:5597   */\n      swap2\n      swap1\n      pop\n      jump\t// out\n        /* \"#utility.yul\":5603:6022   */\n    tag_56:\n        /* \"#utility.yul\":5769:5773   */\n      0x00\n        /* \"#utility.yul\":5807:5809   */\n      0x20\n        /* \"#utility.yul\":5796:5805   */\n      dup3\n        /* \"#utility.yul\":5792:5810   */\n      add\n        /* \"#utility.yul\":5784:5810   */\n      swap1\n      pop\n        /* \"#utility.yul\":5856:5865   */\n      dup2\n        /* \"#utility.yul\":5850:5854   */\n      dup2\n        /* \"#utility.yul\":5846:5866   */\n      sub\n        /* \"#utility.yul\":5842:5843   */\n      0x00\n        /* \"#utility.yul\":5831:5840   */\n      dup4\n        /* \"#utility.yul\":5827:5844   */\n      add\n        /* \"#utility.yul\":5820:5867   */\n      mstore\n        /* \"#utility.yul\":5884:6015   */\n      tag_138\n        /* \"#utility.yul\":6010:6014   */\n      dup2\n        /* \"#utility.yul\":5884:6015   */\n      tag_80\n      jump\t// in\n    tag_138:\n        /* \"#utility.yul\":5876:6015   */\n      swap1\n      pop\n        /* \"#utility.yul\":5603:6022   */\n      swap2\n      swap1\n      pop\n      jump\t// out\n        /* \"#utility.yul\":6028:6252   */\n    tag_81:\n        /* \"#utility.yul\":6168:6202   */\n      0x456c20636f6469676f20706f7374616c20646562652074656e65722035206469\n        /* \"#utility.yul\":6164:6165   */\n      0x00\n        /* \"#utility.yul\":6156:6162   */\n      dup3\n        /* \"#utility.yul\":6152:6166   */\n      add\n        /* \"#utility.yul\":6145:6203   */\n      mstore\n        /* \"#utility.yul\":6237:6244   */\n      0x6769746f73000000000000000000000000000000000000000000000000000000\n        /* \"#utility.yul\":6232:6234   */\n      0x20\n        /* \"#utility.yul\":6224:6230   */\n      dup3\n        /* \"#utility.yul\":6220:6235   */\n      add\n        /* \"#utility.yul\":6213:6245   */\n      mstore\n        /* \"#utility.yul\":6028:6252   */\n      pop\n      jump\t// out\n        /* \"#utility.yul\":6258:6624   */\n    tag_82:\n        /* \"#utility.yul\":6400:6403   */\n      0x00\n        /* \"#utility.yul\":6421:6488   */\n      tag_141\n        /* \"#utility.yul\":6485:6487   */\n      0x25\n        /* \"#utility.yul\":6480:6483   */\n      dup4\n        /* \"#utility.yul\":6421:6488   */\n      tag_73\n      jump\t// in\n    tag_141:\n        /* \"#utility.yul\":6414:6488   */\n      swap2\n      pop\n        /* \"#utility.yul\":6497:6590   */\n      tag_142\n        /* \"#utility.yul\":6586:6589   */\n      dup3\n        /* \"#utility.yul\":6497:6590   */\n      tag_81\n      jump\t// in\n    tag_142:\n        /* \"#utility.yul\":6615:6617   */\n      0x40\n        /* \"#utility.yul\":6610:6613   */\n      dup3\n        /* \"#utility.yul\":6606:6618   */\n      add\n        /* \"#utility.yul\":6599:6618   */\n      swap1\n      pop\n        /* \"#utility.yul\":6258:6624   */\n      swap2\n      swap1\n      pop\n      jump\t// out\n        /* \"#utility.yul\":6630:7049   */\n    tag_60:\n        /* \"#utility.yul\":6796:6800   */\n      0x00\n        /* \"#utility.yul\":6834:6836   */\n      0x20\n        /* \"#utility.yul\":6823:6832   */\n      dup3\n        /* \"#utility.yul\":6819:6837   */\n      add\n        /* \"#utility.yul\":6811:6837   */\n      swap1\n      pop\n        /* \"#utility.yul\":6883:6892   */\n      dup2\n        /* \"#utility.yul\":6877:6881   */\n      dup2\n        /* \"#utility.yul\":6873:6893   */\n      sub\n        /* \"#utility.yul\":6869:6870   */\n      0x00\n        /* \"#utility.yul\":6858:6867   */\n      dup4\n        /* \"#utility.yul\":6854:6871   */\n      add\n        /* \"#utility.yul\":6847:6894   */\n      mstore\n        /* \"#utility.yul\":6911:7042   */\n      tag_144\n        /* \"#utility.yul\":7037:7041   */\n      dup2\n        /* \"#utility.yul\":6911:7042   */\n      tag_82\n      jump\t// in\n    tag_144:\n        /* \"#utility.yul\":6903:7042   */\n      swap1\n      pop\n        /* \"#utility.yul\":6630:7049   */\n      swap2\n      swap1\n      pop\n      jump\t// out\n\n    auxdata: 0xa2646970667358221220fa930338ad778a225874fb6bed87bf7df018b80717cd808ffad712bbecd7a81f64736f6c634300081e0033\n}\n",
				"bytecode": {
					"linkReferences": {},
					"object": "608060405234801561000f575f5ffd5b506040516109033803806109038339818101604052810190610031919061010f565b805f819055503360015f6101000a81548173ffffffffffffffffffffffffffffffffffffffff021916908373ffffffffffffffffffffffffffffffffffffffff160217905550735c6b0f7bf3e7ce046039bd8fabdfd3f9f502167860025f6101000a81548173ffffffffffffffffffffffffffffffffffffffff021916908373ffffffffffffffffffffffffffffffffffffffff160217905550426003819055505061013a565b5f5ffd5b5f819050919050565b6100ee816100dc565b81146100f8575f5ffd5b50565b5f81519050610109816100e5565b92915050565b5f60208284031215610124576101236100d8565b5b5f610131848285016100fb565b91505092915050565b6107bc806101475f395ff3fe608060405260043610610058575f3560e01c806312065fe0146100635780631b8795ff1461008d5780633ccfd60b146100b75780638da5cb5b146100cd5780638f65e5ef146100f7578063fbd7193e146101215761005f565b3661005f57005b5f5ffd5b34801561006e575f5ffd5b5061007761013d565b6040516100849190610427565b60405180910390f35b348015610098575f5ffd5b506100a1610144565b6040516100ae919061047f565b60405180910390f35b3480156100c2575f5ffd5b506100cb610169565b005b3480156100d8575f5ffd5b506100e16102af565b6040516100ee91906104b8565b60405180910390f35b348015610102575f5ffd5b5061010b6102d4565b6040516101189190610427565b60405180910390f35b61013b600480360381019061013691906104ff565b6102d9565b005b5f47905090565b60025f9054906101000a900473ffffffffffffffffffffffffffffffffffffffff1681565b60015f9054906101000a900473ffffffffffffffffffffffffffffffffffffffff1673ffffffffffffffffffffffffffffffffffffffff163373ffffffffffffffffffffffffffffffffffffffff16146101f8576040517f08c379a00000000000000000000000000000000000000000000000000000000081526004016101ef90610584565b60405180910390fd5b607860035461020791906105cf565b4211610248576040517f08c379a000000000000000000000000000000000000000000000000000000000815260040161023f90610672565b60405180910390fd5b60025f9054906101000a900473ffffffffffffffffffffffffffffffffffffffff1673ffffffffffffffffffffffffffffffffffffffff166108fc4790811502906040515f60405180830381858888f193505050501580156102ac573d5f5f3e3d5ffd5b50565b60015f9054906101000a900473ffffffffffffffffffffffffffffffffffffffff1681565b5f5481565b60015f9054906101000a900473ffffffffffffffffffffffffffffffffffffffff1673ffffffffffffffffffffffffffffffffffffffff163373ffffffffffffffffffffffffffffffffffffffff1614610368576040517f08c379a000000000000000000000000000000000000000000000000000000000815260040161035f90610584565b60405180910390fd5b662386f26fc100003410156103b2576040517f08c379a00000000000000000000000000000000000000000000000000000000081526004016103a9906106da565b60405180910390fd5b61271081101580156103c757506201869f8111155b610406576040517f08c379a00000000000000000000000000000000000000000000000000000000081526004016103fd90610768565b60405180910390fd5b805f8190555050565b5f819050919050565b6104218161040f565b82525050565b5f60208201905061043a5f830184610418565b92915050565b5f73ffffffffffffffffffffffffffffffffffffffff82169050919050565b5f61046982610440565b9050919050565b6104798161045f565b82525050565b5f6020820190506104925f830184610470565b92915050565b5f6104a282610440565b9050919050565b6104b281610498565b82525050565b5f6020820190506104cb5f8301846104a9565b92915050565b5f5ffd5b6104de8161040f565b81146104e8575f5ffd5b50565b5f813590506104f9816104d5565b92915050565b5f60208284031215610514576105136104d1565b5b5f610521848285016104eb565b91505092915050565b5f82825260208201905092915050565b7f4e6f20657320656c2070726f706965746172696f0000000000000000000000005f82015250565b5f61056e60148361052a565b91506105798261053a565b602082019050919050565b5f6020820190508181035f83015261059b81610562565b9050919050565b7f4e487b71000000000000000000000000000000000000000000000000000000005f52601160045260245ffd5b5f6105d98261040f565b91506105e48361040f565b92508282019050808211156105fc576105fb6105a2565b5b92915050565b7f4e6f207075656465207265746972617220616e746573206465207175652070615f8201527f73652032206d696e75746f730000000000000000000000000000000000000000602082015250565b5f61065c602c8361052a565b915061066782610602565b604082019050919050565b5f6020820190508181035f83015261068981610650565b9050919050565b7f456c2076616c6f72206465626520736572206d696e696d6f20302e30310000005f82015250565b5f6106c4601d8361052a565b91506106cf82610690565b602082019050919050565b5f6020820190508181035f8301526106f1816106b8565b9050919050565b7f456c20636f6469676f20706f7374616c20646562652074656e657220352064695f8201527f6769746f73000000000000000000000000000000000000000000000000000000602082015250565b5f61075260258361052a565b915061075d826106f8565b604082019050919050565b5f6020820190508181035f83015261077f81610746565b905091905056fea2646970667358221220fa930338ad778a225874fb6bed87bf7df018b80717cd808ffad712bbecd7a81f64736f6c634300081e0033",
					"opcodes": "PUSH1 0x80 PUSH1 0x40 MSTORE CALLVALUE DUP1 ISZERO PUSH2 0xF JUMPI PUSH0 PUSH0 REVERT JUMPDEST POP PUSH1 0x40 MLOAD PUSH2 0x903 CODESIZE SUB DUP1 PUSH2 0x903 DUP4 CODECOPY DUP2 DUP2 ADD PUSH1 0x40 MSTORE DUP2 ADD SWAP1 PUSH2 0x31 SWAP2 SWAP1 PUSH2 0x10F JUMP JUMPDEST DUP1 PUSH0 DUP2 SWAP1 SSTORE POP CALLER PUSH1 0x1 PUSH0 PUSH2 0x100 EXP DUP2 SLOAD DUP2 PUSH20 0xFFFFFFFFFFFFFFFFFFFFFFFFFFFFFFFFFFFFFFFF MUL NOT AND SWAP1 DUP4 PUSH20 0xFFFFFFFFFFFFFFFFFFFFFFFFFFFFFFFFFFFFFFFF AND MUL OR SWAP1 SSTORE POP PUSH20 0x5C6B0F7BF3E7CE046039BD8FABDFD3F9F5021678 PUSH1 0x2 PUSH0 PUSH2 0x100 EXP DUP2 SLOAD DUP2 PUSH20 0xFFFFFFFFFFFFFFFFFFFFFFFFFFFFFFFFFFFFFFFF MUL NOT AND SWAP1 DUP4 PUSH20 0xFFFFFFFFFFFFFFFFFFFFFFFFFFFFFFFFFFFFFFFF AND MUL OR SWAP1 SSTORE POP TIMESTAMP PUSH1 0x3 DUP2 SWAP1 SSTORE POP POP PUSH2 0x13A JUMP JUMPDEST PUSH0 PUSH0 REVERT JUMPDEST PUSH0 DUP2 SWAP1 POP SWAP2 SWAP1 POP JUMP JUMPDEST PUSH2 0xEE DUP2 PUSH2 0xDC JUMP JUMPDEST DUP2 EQ PUSH2 0xF8 JUMPI PUSH0 PUSH0 REVERT JUMPDEST POP JUMP JUMPDEST PUSH0 DUP2 MLOAD SWAP1 POP PUSH2 0x109 DUP2 PUSH2 0xE5 JUMP JUMPDEST SWAP3 SWAP2 POP POP JUMP JUMPDEST PUSH0 PUSH1 0x20 DUP3 DUP5 SUB SLT ISZERO PUSH2 0x124 JUMPI PUSH2 0x123 PUSH2 0xD8 JUMP JUMPDEST JUMPDEST PUSH0 PUSH2 0x131 DUP5 DUP3 DUP6 ADD PUSH2 0xFB JUMP JUMPDEST SWAP2 POP POP SWAP3 SWAP2 POP POP JUMP JUMPDEST PUSH2 0x7BC DUP1 PUSH2 0x147 PUSH0 CODECOPY PUSH0 RETURN INVALID PUSH1 0x80 PUSH1 0x40 MSTORE PUSH1 0x4 CALLDATASIZE LT PUSH2 0x58 JUMPI PUSH0 CALLDATALOAD PUSH1 0xE0 SHR DUP1 PUSH4 0x12065FE0 EQ PUSH2 0x63 JUMPI DUP1 PUSH4 0x1B8795FF EQ PUSH2 0x8D JUMPI DUP1 PUSH4 0x3CCFD60B EQ PUSH2 0xB7 JUMPI DUP1 PUSH4 0x8DA5CB5B EQ PUSH2 0xCD JUMPI DUP1 PUSH4 0x8F65E5EF EQ PUSH2 0xF7 JUMPI DUP1 PUSH4 0xFBD7193E EQ PUSH2 0x121 JUMPI PUSH2 0x5F JUMP JUMPDEST CALLDATASIZE PUSH2 0x5F JUMPI STOP JUMPDEST PUSH0 PUSH0 REVERT JUMPDEST CALLVALUE DUP1 ISZERO PUSH2 0x6E JUMPI PUSH0 PUSH0 REVERT JUMPDEST POP PUSH2 0x77 PUSH2 0x13D JUMP JUMPDEST PUSH1 0x40 MLOAD PUSH2 0x84 SWAP2 SWAP1 PUSH2 0x427 JUMP JUMPDEST PUSH1 0x40 MLOAD DUP1 SWAP2 SUB SWAP1 RETURN JUMPDEST CALLVALUE DUP1 ISZERO PUSH2 0x98 JUMPI PUSH0 PUSH0 REVERT JUMPDEST POP PUSH2 0xA1 PUSH2 0x144 JUMP JUMPDEST PUSH1 0x40 MLOAD PUSH2 0xAE SWAP2 SWAP1 PUSH2 0x47F JUMP JUMPDEST PUSH1 0x40 MLOAD DUP1 SWAP2 SUB SWAP1 RETURN JUMPDEST CALLVALUE DUP1 ISZERO PUSH2 0xC2 JUMPI PUSH0 PUSH0 REVERT JUMPDEST POP PUSH2 0xCB PUSH2 0x169 JUMP JUMPDEST STOP JUMPDEST CALLVALUE DUP1 ISZERO PUSH2 0xD8 JUMPI PUSH0 PUSH0 REVERT JUMPDEST POP PUSH2 0xE1 PUSH2 0x2AF JUMP JUMPDEST PUSH1 0x40 MLOAD PUSH2 0xEE SWAP2 SWAP1 PUSH2 0x4B8 JUMP JUMPDEST PUSH1 0x40 MLOAD DUP1 SWAP2 SUB SWAP1 RETURN JUMPDEST CALLVALUE DUP1 ISZERO PUSH2 0x102 JUMPI PUSH0 PUSH0 REVERT JUMPDEST POP PUSH2 0x10B PUSH2 0x2D4 JUMP JUMPDEST PUSH1 0x40 MLOAD PUSH2 0x118 SWAP2 SWAP1 PUSH2 0x427 JUMP JUMPDEST PUSH1 0x40 MLOAD DUP1 SWAP2 SUB SWAP1 RETURN JUMPDEST PUSH2 0x13B PUSH1 0x4 DUP1 CALLDATASIZE SUB DUP2 ADD SWAP1 PUSH2 0x136 SWAP2 SWAP1 PUSH2 0x4FF JUMP JUMPDEST PUSH2 0x2D9 JUMP JUMPDEST STOP JUMPDEST PUSH0 SELFBALANCE SWAP1 POP SWAP1 JUMP JUMPDEST PUSH1 0x2 PUSH0 SWAP1 SLOAD SWAP1 PUSH2 0x100 EXP SWAP1 DIV PUSH20 0xFFFFFFFFFFFFFFFFFFFFFFFFFFFFFFFFFFFFFFFF AND DUP2 JUMP JUMPDEST PUSH1 0x1 PUSH0 SWAP1 SLOAD SWAP1 PUSH2 0x100 EXP SWAP1 DIV PUSH20 0xFFFFFFFFFFFFFFFFFFFFFFFFFFFFFFFFFFFFFFFF AND PUSH20 0xFFFFFFFFFFFFFFFFFFFFFFFFFFFFFFFFFFFFFFFF AND CALLER PUSH20 0xFFFFFFFFFFFFFFFFFFFFFFFFFFFFFFFFFFFFFFFF AND EQ PUSH2 0x1F8 JUMPI PUSH1 0x40 MLOAD PUSH32 0x8C379A000000000000000000000000000000000000000000000000000000000 DUP2 MSTORE PUSH1 0x4 ADD PUSH2 0x1EF SWAP1 PUSH2 0x584 JUMP JUMPDEST PUSH1 0x40 MLOAD DUP1 SWAP2 SUB SWAP1 REVERT JUMPDEST PUSH1 0x78 PUSH1 0x3 SLOAD PUSH2 0x207 SWAP2 SWAP1 PUSH2 0x5CF JUMP JUMPDEST TIMESTAMP GT PUSH2 0x248 JUMPI PUSH1 0x40 MLOAD PUSH32 0x8C379A000000000000000000000000000000000000000000000000000000000 DUP2 MSTORE PUSH1 0x4 ADD PUSH2 0x23F SWAP1 PUSH2 0x672 JUMP JUMPDEST PUSH1 0x40 MLOAD DUP1 SWAP2 SUB SWAP1 REVERT JUMPDEST PUSH1 0x2 PUSH0 SWAP1 SLOAD SWAP1 PUSH2 0x100 EXP SWAP1 DIV PUSH20 0xFFFFFFFFFFFFFFFFFFFFFFFFFFFFFFFFFFFFFFFF AND PUSH20 0xFFFFFFFFFFFFFFFFFFFFFFFFFFFFFFFFFFFFFFFF AND PUSH2 0x8FC SELFBALANCE SWAP1 DUP2 ISZERO MUL SWAP1 PUSH1 0x40 MLOAD PUSH0 PUSH1 0x40 MLOAD DUP1 DUP4 SUB DUP2 DUP6 DUP9 DUP9 CALL SWAP4 POP POP POP POP ISZERO DUP1 ISZERO PUSH2 0x2AC JUMPI RETURNDATASIZE PUSH0 PUSH0 RETURNDATACOPY RETURNDATASIZE PUSH0 REVERT JUMPDEST POP JUMP JUMPDEST PUSH1 0x1 PUSH0 SWAP1 SLOAD SWAP1 PUSH2 0x100 EXP SWAP1 DIV PUSH20 0xFFFFFFFFFFFFFFFFFFFFFFFFFFFFFFFFFFFFFFFF AND DUP2 JUMP JUMPDEST PUSH0 SLOAD DUP2 JUMP JUMPDEST PUSH1 0x1 PUSH0 SWAP1 SLOAD SWAP1 PUSH2 0x100 EXP SWAP1 DIV PUSH20 0xFFFFFFFFFFFFFFFFFFFFFFFFFFFFFFFFFFFFFFFF AND PUSH20 0xFFFFFFFFFFFFFFFFFFFFFFFFFFFFFFFFFFFFFFFF AND CALLER PUSH20 0xFFFFFFFFFFFFFFFFFFFFFFFFFFFFFFFFFFFFFFFF AND EQ PUSH2 0x368 JUMPI PUSH1 0x40 MLOAD PUSH32 0x8C379A000000000000000000000000000000000000000000000000000000000 DUP2 MSTORE PUSH1 0x4 ADD PUSH2 0x35F SWAP1 PUSH2 0x584 JUMP JUMPDEST PUSH1 0x40 MLOAD DUP1 SWAP2 SUB SWAP1 REVERT JUMPDEST PUSH7 0x2386F26FC10000 CALLVALUE LT ISZERO PUSH2 0x3B2 JUMPI PUSH1 0x40 MLOAD PUSH32 0x8C379A000000000000000000000000000000000000000000000000000000000 DUP2 MSTORE PUSH1 0x4 ADD PUSH2 0x3A9 SWAP1 PUSH2 0x6DA JUMP JUMPDEST PUSH1 0x40 MLOAD DUP1 SWAP2 SUB SWAP1 REVERT JUMPDEST PUSH2 0x2710 DUP2 LT ISZERO DUP1 ISZERO PUSH2 0x3C7 JUMPI POP PUSH3 0x1869F DUP2 GT ISZERO JUMPDEST PUSH2 0x406 JUMPI PUSH1 0x40 MLOAD PUSH32 0x8C379A000000000000000000000000000000000000000000000000000000000 DUP2 MSTORE PUSH1 0x4 ADD PUSH2 0x3FD SWAP1 PUSH2 0x768 JUMP JUMPDEST PUSH1 0x40 MLOAD DUP1 SWAP2 SUB SWAP1 REVERT JUMPDEST DUP1 PUSH0 DUP2 SWAP1 SSTORE POP POP JUMP JUMPDEST PUSH0 DUP2 SWAP1 POP SWAP2 SWAP1 POP JUMP JUMPDEST PUSH2 0x421 DUP2 PUSH2 0x40F JUMP JUMPDEST DUP3 MSTORE POP POP JUMP JUMPDEST PUSH0 PUSH1 0x20 DUP3 ADD SWAP1 POP PUSH2 0x43A PUSH0 DUP4 ADD DUP5 PUSH2 0x418 JUMP JUMPDEST SWAP3 SWAP2 POP POP JUMP JUMPDEST PUSH0 PUSH20 0xFFFFFFFFFFFFFFFFFFFFFFFFFFFFFFFFFFFFFFFF DUP3 AND SWAP1 POP SWAP2 SWAP1 POP JUMP JUMPDEST PUSH0 PUSH2 0x469 DUP3 PUSH2 0x440 JUMP JUMPDEST SWAP1 POP SWAP2 SWAP1 POP JUMP JUMPDEST PUSH2 0x479 DUP2 PUSH2 0x45F JUMP JUMPDEST DUP3 MSTORE POP POP JUMP JUMPDEST PUSH0 PUSH1 0x20 DUP3 ADD SWAP1 POP PUSH2 0x492 PUSH0 DUP4 ADD DUP5 PUSH2 0x470 JUMP JUMPDEST SWAP3 SWAP2 POP POP JUMP JUMPDEST PUSH0 PUSH2 0x4A2 DUP3 PUSH2 0x440 JUMP JUMPDEST SWAP1 POP SWAP2 SWAP1 POP JUMP JUMPDEST PUSH2 0x4B2 DUP2 PUSH2 0x498 JUMP JUMPDEST DUP3 MSTORE POP POP JUMP JUMPDEST PUSH0 PUSH1 0x20 DUP3 ADD SWAP1 POP PUSH2 0x4CB PUSH0 DUP4 ADD DUP5 PUSH2 0x4A9 JUMP JUMPDEST SWAP3 SWAP2 POP POP JUMP JUMPDEST PUSH0 PUSH0 REVERT JUMPDEST PUSH2 0x4DE DUP2 PUSH2 0x40F JUMP JUMPDEST DUP2 EQ PUSH2 0x4E8 JUMPI PUSH0 PUSH0 REVERT JUMPDEST POP JUMP JUMPDEST PUSH0 DUP2 CALLDATALOAD SWAP1 POP PUSH2 0x4F9 DUP2 PUSH2 0x4D5 JUMP JUMPDEST SWAP3 SWAP2 POP POP JUMP JUMPDEST PUSH0 PUSH1 0x20 DUP3 DUP5 SUB SLT ISZERO PUSH2 0x514 JUMPI PUSH2 0x513 PUSH2 0x4D1 JUMP JUMPDEST JUMPDEST PUSH0 PUSH2 0x521 DUP5 DUP3 DUP6 ADD PUSH2 0x4EB JUMP JUMPDEST SWAP2 POP POP SWAP3 SWAP2 POP POP JUMP JUMPDEST PUSH0 DUP3 DUP3 MSTORE PUSH1 0x20 DUP3 ADD SWAP1 POP SWAP3 SWAP2 POP POP JUMP JUMPDEST PUSH32 0x4E6F20657320656C2070726F706965746172696F000000000000000000000000 PUSH0 DUP3 ADD MSTORE POP JUMP JUMPDEST PUSH0 PUSH2 0x56E PUSH1 0x14 DUP4 PUSH2 0x52A JUMP JUMPDEST SWAP2 POP PUSH2 0x579 DUP3 PUSH2 0x53A JUMP JUMPDEST PUSH1 0x20 DUP3 ADD SWAP1 POP SWAP2 SWAP1 POP JUMP JUMPDEST PUSH0 PUSH1 0x20 DUP3 ADD SWAP1 POP DUP2 DUP2 SUB PUSH0 DUP4 ADD MSTORE PUSH2 0x59B DUP2 PUSH2 0x562 JUMP JUMPDEST SWAP1 POP SWAP2 SWAP1 POP JUMP JUMPDEST PUSH32 0x4E487B7100000000000000000000000000000000000000000000000000000000 PUSH0 MSTORE PUSH1 0x11 PUSH1 0x4 MSTORE PUSH1 0x24 PUSH0 REVERT JUMPDEST PUSH0 PUSH2 0x5D9 DUP3 PUSH2 0x40F JUMP JUMPDEST SWAP2 POP PUSH2 0x5E4 DUP4 PUSH2 0x40F JUMP JUMPDEST SWAP3 POP DUP3 DUP3 ADD SWAP1 POP DUP1 DUP3 GT ISZERO PUSH2 0x5FC JUMPI PUSH2 0x5FB PUSH2 0x5A2 JUMP JUMPDEST JUMPDEST SWAP3 SWAP2 POP POP JUMP JUMPDEST PUSH32 0x4E6F207075656465207265746972617220616E74657320646520717565207061 PUSH0 DUP3 ADD MSTORE PUSH32 0x73652032206D696E75746F730000000000000000000000000000000000000000 PUSH1 0x20 DUP3 ADD MSTORE POP JUMP JUMPDEST PUSH0 PUSH2 0x65C PUSH1 0x2C DUP4 PUSH2 0x52A JUMP JUMPDEST SWAP2 POP PUSH2 0x667 DUP3 PUSH2 0x602 JUMP JUMPDEST PUSH1 0x40 DUP3 ADD SWAP1 POP SWAP2 SWAP1 POP JUMP JUMPDEST PUSH0 PUSH1 0x20 DUP3 ADD SWAP1 POP DUP2 DUP2 SUB PUSH0 DUP4 ADD MSTORE PUSH2 0x689 DUP2 PUSH2 0x650 JUMP JUMPDEST SWAP1 POP SWAP2 SWAP1 POP JUMP JUMPDEST PUSH32 0x456C2076616C6F72206465626520736572206D696E696D6F20302E3031000000 PUSH0 DUP3 ADD MSTORE POP JUMP JUMPDEST PUSH0 PUSH2 0x6C4 PUSH1 0x1D DUP4 PUSH2 0x52A JUMP JUMPDEST SWAP2 POP PUSH2 0x6CF DUP3 PUSH2 0x690 JUMP JUMPDEST PUSH1 0x20 DUP3 ADD SWAP1 POP SWAP2 SWAP1 POP JUMP JUMPDEST PUSH0 PUSH1 0x20 DUP3 ADD SWAP1 POP DUP2 DUP2 SUB PUSH0 DUP4 ADD MSTORE PUSH2 0x6F1 DUP2 PUSH2 0x6B8 JUMP JUMPDEST SWAP1 POP SWAP2 SWAP1 POP JUMP JUMPDEST PUSH32 0x456C20636F6469676F20706F7374616C20646562652074656E65722035206469 PUSH0 DUP3 ADD MSTORE PUSH32 0x6769746F73000000000000000000000000000000000000000000000000000000 PUSH1 0x20 DUP3 ADD MSTORE POP JUMP JUMPDEST PUSH0 PUSH2 0x752 PUSH1 0x25 DUP4 PUSH2 0x52A JUMP JUMPDEST SWAP2 POP PUSH2 0x75D DUP3 PUSH2 0x6F8 JUMP JUMPDEST PUSH1 0x40 DUP3 ADD SWAP1 POP SWAP2 SWAP1 POP JUMP JUMPDEST PUSH0 PUSH1 0x20 DUP3 ADD SWAP1 POP DUP2 DUP2 SUB PUSH0 DUP4 ADD MSTORE PUSH2 0x77F DUP2 PUSH2 0x746 JUMP JUMPDEST SWAP1 POP SWAP2 SWAP1 POP JUMP INVALID LOG2 PUSH5 0x6970667358 0x22 SLT KECCAK256 STATICCALL SWAP4 SUB CODESIZE 0xAD PUSH24 0x8A225874FB6BED87BF7DF018B80717CD808FFAD712BBECD7 0xA8 0x1F PUSH5 0x736F6C6343 STOP ADDMOD 0x1E STOP CALLER "
				},
				"gasEstimates": {
					"creation": {
						"codeDepositCost": "396000",
						"executionCost": "infinite",
						"totalCost": "infinite"
					},
					"external": {
						"destAccount()": "2508",
						"getBalance()": "312",
						"owner()": "2552",
						"setZipCode(uint256)": "24832",
						"withdraw()": "infinite",
						"zipCode()": "2490"
					}
				},
				"methodIdentifiers": {
					"destAccount()": "1b8795ff",
					"getBalance()": "12065fe0",
					"owner()": "8da5cb5b",
					"setZipCode(uint256)": "fbd7193e",
					"withdraw()": "3ccfd60b",
					"zipCode()": "8f65e5ef"
				}
			},
			"storageLayout": {
				"storage": [
					{
						"astId": 3,
						"contract": "contracts/7_WhereAmI.sol:WhereAmI",
						"label": "zipCode",
						"offset": 0,
						"slot": "0",
						"type": "t_uint256"
					},
					{
						"astId": 5,
						"contract": "contracts/7_WhereAmI.sol:WhereAmI",
						"label": "owner",
						"offset": 0,
						"slot": "1",
						"type": "t_address"
					},
					{
						"astId": 7,
						"contract": "contracts/7_WhereAmI.sol:WhereAmI",
						"label": "destAccount",
						"offset": 0,
						"slot": "2",
						"type": "t_address_payable"
					},
					{
						"astId": 9,
						"contract": "contracts/7_WhereAmI.sol:WhereAmI",
						"label": "creationTime",
						"offset": 0,
						"slot": "3",
						"type": "t_uint256"
					}
				],
				"types": {
					"t_address": {
						"encoding": "inplace",
						"label": "address",
						"numberOfBytes": "20"
					},
					"t_address_payable": {
						"encoding": "inplace",
						"label": "address payable",
						"numberOfBytes": "20"
					},
					"t_uint256": {
						"encoding": "inplace",
						"label": "uint256",
						"numberOfBytes": "32"
					}
				}
			},
			"userdoc": {
				"kind": "user",
				"methods": {},
				"version": 1
			}
		}
	}
}