{
	"data": {
		"bytecode": {
			"linkReferences": {},
			"object": "608060405234801561000f575f80fd5b50610d898061001d5f395ff3fe608060405234801561000f575f80fd5b5060043610610060575f3560e01c806345c151df146100645780639f9fd80514610094578063ab177cbd146100c4578063c7cd0075146100f4578063d6a69afb14610124578063f8e9e31f14610154575b5f80fd5b61007e600480360381019061007991906105e3565b610185565b60405161008b9190610630565b60405180910390f35b6100ae60048036038101906100a99190610649565b6101c8565b6040516100bb9190610630565b60405180910390f35b6100de60048036038101906100d991906107b0565b610226565b6040516100eb9190610630565b60405180910390f35b61010e600480360381019061010991906107b0565b6102ea565b60405161011b9190610630565b60405180910390f35b61013e60048036038101906101399190610649565b6104d8565b60405161014b9190610630565b60405180910390f35b61016e60048036038101906101699190610649565b61051b565b60405161017c92919061081c565b60405180910390f35b5f805f90505f8490505b838561019b9190610870565b8110156101bd5780826101ae9190610870565b9150808060010191505061018f565b508091505092915050565b5f805f90505f805b8481101561021b575f6002836101e691906108d0565b146102085781836101f79190610870565b9250808061020490610900565b9150505b818061021390610900565b9250506101d0565b829350505050919050565b5f808460405160200161023991906109b3565b60405160208183030381529060405280519060200120905060405160200161026090610a13565b6040516020818303038152906040528051906020012081036102905782846102889190610870565b9150506102e3565b838311156102d3576040517f08c379a00000000000000000000000000000000000000000000000000000000081526004016102ca90610aa7565b60405180910390fd5b82846102df9190610ac5565b9150505b9392505050565b5f80846040516020016102fd91906109b3565b60405160208183030381529060405280519060200120905060405160200161032490610a13565b60405160208183030381529060405280519060200120810361035457828461034c9190610870565b9150506104d1565b60405160200161036390610b42565b6040516020818303038152906040528051906020012081036103d657838311156103c2576040517f08c379a00000000000000000000000000000000000000000000000000000000081526004016103b990610aa7565b60405180910390fd5b82846103ce9190610ac5565b9150506104d1565b6040516020016103e590610ba0565b60405160208183030381529060405280519060200120810361041557828461040d9190610bb4565b9150506104d1565b60405160200161042490610c3f565b604051602081830303815290604052805190602001208103610496575f8303610482576040517f08c379a000000000000000000000000000000000000000000000000000000000815260040161047990610c9d565b60405180910390fd5b828461048e9190610cbb565b9150506104d1565b6040517f08c379a00000000000000000000000000000000000000000000000000000000081526004016104c890610d35565b60405180910390fd5b9392505050565b5f805f90505f8390505b83600a6104ef9190610870565b8110156105115780826105029190610870565b915080806001019150506104e2565b5080915050919050565b5f805f805f5b8582108061052e57508581105b15610597575f60028461054191906108d0565b146105675782856105529190610870565b9450818061055f90610900565b925050610584565b82846105739190610870565b9350808061058090610900565b9150505b828061058f90610900565b935050610521565b505050915091565b5f604051905090565b5f80fd5b5f80fd5b5f819050919050565b6105c2816105b0565b81146105cc575f80fd5b50565b5f813590506105dd816105b9565b92915050565b5f80604083850312156105f9576105f86105a8565b5b5f610606858286016105cf565b9250506020610617858286016105cf565b9150509250929050565b61062a816105b0565b82525050565b5f6020820190506106435f830184610621565b92915050565b5f6020828403121561065e5761065d6105a8565b5b5f61066b848285016105cf565b91505092915050565b5f80fd5b5f80fd5b5f601f19601f8301169050919050565b7f4e487b71000000000000000000000000000000000000000000000000000000005f52604160045260245ffd5b6106c28261067c565b810181811067ffffffffffffffff821117156106e1576106e061068c565b5b80604052505050565b5f6106f361059f565b90506106ff82826106b9565b919050565b5f67ffffffffffffffff82111561071e5761071d61068c565b5b6107278261067c565b9050602081019050919050565b828183375f83830152505050565b5f61075461074f84610704565b6106ea565b9050828152602081018484840111156107705761076f610678565b5b61077b848285610734565b509392505050565b5f82601f83011261079757610796610674565b5b81356107a7848260208601610742565b91505092915050565b5f805f606084860312156107c7576107c66105a8565b5b5f84013567ffffffffffffffff8111156107e4576107e36105ac565b5b6107f086828701610783565b9350506020610801868287016105cf565b9250506040610812868287016105cf565b9150509250925092565b5f60408201905061082f5f830185610621565b61083c6020830184610621565b9392505050565b7f4e487b71000000000000000000000000000000000000000000000000000000005f52601160045260245ffd5b5f61087a826105b0565b9150610885836105b0565b925082820190508082111561089d5761089c610843565b5b92915050565b7f4e487b71000000000000000000000000000000000000000000000000000000005f52601260045260245ffd5b5f6108da826105b0565b91506108e5836105b0565b9250826108f5576108f46108a3565b5b828206905092915050565b5f61090a826105b0565b91507fffffffffffffffffffffffffffffffffffffffffffffffffffffffffffffffff820361093c5761093b610843565b5b600182019050919050565b5f81519050919050565b5f81905092915050565b5f5b8381101561097857808201518184015260208101905061095d565b5f8484015250505050565b5f61098d82610947565b6109978185610951565b93506109a781856020860161095b565b80840191505092915050565b5f6109be8284610983565b915081905092915050565b7f73756d00000000000000000000000000000000000000000000000000000000005f82015250565b5f6109fd600383610951565b9150610a08826109c9565b600382019050919050565b5f610a1d826109f1565b9150819050919050565b5f82825260208201905092915050565b7f456c20736567756e646f206e756d65726f206465626520736572206d656e6f725f8201527f206f20696775616c20616c207072696d65726f00000000000000000000000000602082015250565b5f610a91603383610a27565b9150610a9c82610a37565b604082019050919050565b5f6020820190508181035f830152610abe81610a85565b9050919050565b5f610acf826105b0565b9150610ada836105b0565b9250828203905081811115610af257610af1610843565b5b92915050565b7f72657300000000000000000000000000000000000000000000000000000000005f82015250565b5f610b2c600383610951565b9150610b3782610af8565b600382019050919050565b5f610b4c82610b20565b9150819050919050565b7f6d756c74690000000000000000000000000000000000000000000000000000005f82015250565b5f610b8a600583610951565b9150610b9582610b56565b600582019050919050565b5f610baa82610b7e565b9150819050919050565b5f610bbe826105b0565b9150610bc9836105b0565b9250828202610bd7816105b0565b91508282048414831517610bee57610bed610843565b5b5092915050565b7f64697600000000000000000000000000000000000000000000000000000000005f82015250565b5f610c29600383610951565b9150610c3482610bf5565b600382019050919050565b5f610c4982610c1d565b9150819050919050565b7f4e6f207365207075656465206469766964697220656e747265206365726f00005f82015250565b5f610c87601e83610a27565b9150610c9282610c53565b602082019050919050565b5f6020820190508181035f830152610cb481610c7b565b9050919050565b5f610cc5826105b0565b9150610cd0836105b0565b925082610ce057610cdf6108a3565b5b828204905092915050565b7f4f7065726163696f6e206e6f20736f706f7274616461000000000000000000005f82015250565b5f610d1f601683610a27565b9150610d2a82610ceb565b602082019050919050565b5f6020820190508181035f830152610d4c81610d13565b905091905056fea2646970667358221220f3f6885b0070545f5852f4b0e17212cc975aabb07cfdebdbee8d13abaa60fe8964736f6c63430008170033",
			"opcodes": "PUSH1 0x80 PUSH1 0x40 MSTORE CALLVALUE DUP1 ISZERO PUSH2 0xF JUMPI PUSH0 DUP1 REVERT JUMPDEST POP PUSH2 0xD89 DUP1 PUSH2 0x1D PUSH0 CODECOPY PUSH0 RETURN INVALID PUSH1 0x80 PUSH1 0x40 MSTORE CALLVALUE DUP1 ISZERO PUSH2 0xF JUMPI PUSH0 DUP1 REVERT JUMPDEST POP PUSH1 0x4 CALLDATASIZE LT PUSH2 0x60 JUMPI PUSH0 CALLDATALOAD PUSH1 0xE0 SHR DUP1 PUSH4 0x45C151DF EQ PUSH2 0x64 JUMPI DUP1 PUSH4 0x9F9FD805 EQ PUSH2 0x94 JUMPI DUP1 PUSH4 0xAB177CBD EQ PUSH2 0xC4 JUMPI DUP1 PUSH4 0xC7CD0075 EQ PUSH2 0xF4 JUMPI DUP1 PUSH4 0xD6A69AFB EQ PUSH2 0x124 JUMPI DUP1 PUSH4 0xF8E9E31F EQ PUSH2 0x154 JUMPI JUMPDEST PUSH0 DUP1 REVERT JUMPDEST PUSH2 0x7E PUSH1 0x4 DUP1 CALLDATASIZE SUB DUP2 ADD SWAP1 PUSH2 0x79 SWAP2 SWAP1 PUSH2 0x5E3 JUMP JUMPDEST PUSH2 0x185 JUMP JUMPDEST PUSH1 0x40 MLOAD PUSH2 0x8B SWAP2 SWAP1 PUSH2 0x630 JUMP JUMPDEST PUSH1 0x40 MLOAD DUP1 SWAP2 SUB SWAP1 RETURN JUMPDEST PUSH2 0xAE PUSH1 0x4 DUP1 CALLDATASIZE SUB DUP2 ADD SWAP1 PUSH2 0xA9 SWAP2 SWAP1 PUSH2 0x649 JUMP JUMPDEST PUSH2 0x1C8 JUMP JUMPDEST PUSH1 0x40 MLOAD PUSH2 0xBB SWAP2 SWAP1 PUSH2 0x630 JUMP JUMPDEST PUSH1 0x40 MLOAD DUP1 SWAP2 SUB SWAP1 RETURN JUMPDEST PUSH2 0xDE PUSH1 0x4 DUP1 CALLDATASIZE SUB DUP2 ADD SWAP1 PUSH2 0xD9 SWAP2 SWAP1 PUSH2 0x7B0 JUMP JUMPDEST PUSH2 0x226 JUMP JUMPDEST PUSH1 0x40 MLOAD PUSH2 0xEB SWAP2 SWAP1 PUSH2 0x630 JUMP JUMPDEST PUSH1 0x40 MLOAD DUP1 SWAP2 SUB SWAP1 RETURN JUMPDEST PUSH2 0x10E PUSH1 0x4 DUP1 CALLDATASIZE SUB DUP2 ADD SWAP1 PUSH2 0x109 SWAP2 SWAP1 PUSH2 0x7B0 JUMP JUMPDEST PUSH2 0x2EA JUMP JUMPDEST PUSH1 0x40 MLOAD PUSH2 0x11B SWAP2 SWAP1 PUSH2 0x630 JUMP JUMPDEST PUSH1 0x40 MLOAD DUP1 SWAP2 SUB SWAP1 RETURN JUMPDEST PUSH2 0x13E PUSH1 0x4 DUP1 CALLDATASIZE SUB DUP2 ADD SWAP1 PUSH2 0x139 SWAP2 SWAP1 PUSH2 0x649 JUMP JUMPDEST PUSH2 0x4D8 JUMP JUMPDEST PUSH1 0x40 MLOAD PUSH2 0x14B SWAP2 SWAP1 PUSH2 0x630 JUMP JUMPDEST PUSH1 0x40 MLOAD DUP1 SWAP2 SUB SWAP1 RETURN JUMPDEST PUSH2 0x16E PUSH1 0x4 DUP1 CALLDATASIZE SUB DUP2 ADD SWAP1 PUSH2 0x169 SWAP2 SWAP1 PUSH2 0x649 JUMP JUMPDEST PUSH2 0x51B JUMP JUMPDEST PUSH1 0x40 MLOAD PUSH2 0x17C SWAP3 SWAP2 SWAP1 PUSH2 0x81C JUMP JUMPDEST PUSH1 0x40 MLOAD DUP1 SWAP2 SUB SWAP1 RETURN JUMPDEST PUSH0 DUP1 PUSH0 SWAP1 POP PUSH0 DUP5 SWAP1 POP JUMPDEST DUP4 DUP6 PUSH2 0x19B SWAP2 SWAP1 PUSH2 0x870 JUMP JUMPDEST DUP2 LT ISZERO PUSH2 0x1BD JUMPI DUP1 DUP3 PUSH2 0x1AE SWAP2 SWAP1 PUSH2 0x870 JUMP JUMPDEST SWAP2 POP DUP1 DUP1 PUSH1 0x1 ADD SWAP2 POP POP PUSH2 0x18F JUMP JUMPDEST POP DUP1 SWAP2 POP POP SWAP3 SWAP2 POP POP JUMP JUMPDEST PUSH0 DUP1 PUSH0 SWAP1 POP PUSH0 DUP1 JUMPDEST DUP5 DUP2 LT ISZERO PUSH2 0x21B JUMPI PUSH0 PUSH1 0x2 DUP4 PUSH2 0x1E6 SWAP2 SWAP1 PUSH2 0x8D0 JUMP JUMPDEST EQ PUSH2 0x208 JUMPI DUP2 DUP4 PUSH2 0x1F7 SWAP2 SWAP1 PUSH2 0x870 JUMP JUMPDEST SWAP3 POP DUP1 DUP1 PUSH2 0x204 SWAP1 PUSH2 0x900 JUMP JUMPDEST SWAP2 POP POP JUMPDEST DUP2 DUP1 PUSH2 0x213 SWAP1 PUSH2 0x900 JUMP JUMPDEST SWAP3 POP POP PUSH2 0x1D0 JUMP JUMPDEST DUP3 SWAP4 POP POP POP POP SWAP2 SWAP1 POP JUMP JUMPDEST PUSH0 DUP1 DUP5 PUSH1 0x40 MLOAD PUSH1 0x20 ADD PUSH2 0x239 SWAP2 SWAP1 PUSH2 0x9B3 JUMP JUMPDEST PUSH1 0x40 MLOAD PUSH1 0x20 DUP2 DUP4 SUB SUB DUP2 MSTORE SWAP1 PUSH1 0x40 MSTORE DUP1 MLOAD SWAP1 PUSH1 0x20 ADD KECCAK256 SWAP1 POP PUSH1 0x40 MLOAD PUSH1 0x20 ADD PUSH2 0x260 SWAP1 PUSH2 0xA13 JUMP JUMPDEST PUSH1 0x40 MLOAD PUSH1 0x20 DUP2 DUP4 SUB SUB DUP2 MSTORE SWAP1 PUSH1 0x40 MSTORE DUP1 MLOAD SWAP1 PUSH1 0x20 ADD KECCAK256 DUP2 SUB PUSH2 0x290 JUMPI DUP3 DUP5 PUSH2 0x288 SWAP2 SWAP1 PUSH2 0x870 JUMP JUMPDEST SWAP2 POP POP PUSH2 0x2E3 JUMP JUMPDEST DUP4 DUP4 GT ISZERO PUSH2 0x2D3 JUMPI PUSH1 0x40 MLOAD PUSH32 0x8C379A000000000000000000000000000000000000000000000000000000000 DUP2 MSTORE PUSH1 0x4 ADD PUSH2 0x2CA SWAP1 PUSH2 0xAA7 JUMP JUMPDEST PUSH1 0x40 MLOAD DUP1 SWAP2 SUB SWAP1 REVERT JUMPDEST DUP3 DUP5 PUSH2 0x2DF SWAP2 SWAP1 PUSH2 0xAC5 JUMP JUMPDEST SWAP2 POP POP JUMPDEST SWAP4 SWAP3 POP POP POP JUMP JUMPDEST PUSH0 DUP1 DUP5 PUSH1 0x40 MLOAD PUSH1 0x20 ADD PUSH2 0x2FD SWAP2 SWAP1 PUSH2 0x9B3 JUMP JUMPDEST PUSH1 0x40 MLOAD PUSH1 0x20 DUP2 DUP4 SUB SUB DUP2 MSTORE SWAP1 PUSH1 0x40 MSTORE DUP1 MLOAD SWAP1 PUSH1 0x20 ADD KECCAK256 SWAP1 POP PUSH1 0x40 MLOAD PUSH1 0x20 ADD PUSH2 0x324 SWAP1 PUSH2 0xA13 JUMP JUMPDEST PUSH1 0x40 MLOAD PUSH1 0x20 DUP2 DUP4 SUB SUB DUP2 MSTORE SWAP1 PUSH1 0x40 MSTORE DUP1 MLOAD SWAP1 PUSH1 0x20 ADD KECCAK256 DUP2 SUB PUSH2 0x354 JUMPI DUP3 DUP5 PUSH2 0x34C SWAP2 SWAP1 PUSH2 0x870 JUMP JUMPDEST SWAP2 POP POP PUSH2 0x4D1 JUMP JUMPDEST PUSH1 0x40 MLOAD PUSH1 0x20 ADD PUSH2 0x363 SWAP1 PUSH2 0xB42 JUMP JUMPDEST PUSH1 0x40 MLOAD PUSH1 0x20 DUP2 DUP4 SUB SUB DUP2 MSTORE SWAP1 PUSH1 0x40 MSTORE DUP1 MLOAD SWAP1 PUSH1 0x20 ADD KECCAK256 DUP2 SUB PUSH2 0x3D6 JUMPI DUP4 DUP4 GT ISZERO PUSH2 0x3C2 JUMPI PUSH1 0x40 MLOAD PUSH32 0x8C379A000000000000000000000000000000000000000000000000000000000 DUP2 MSTORE PUSH1 0x4 ADD PUSH2 0x3B9 SWAP1 PUSH2 0xAA7 JUMP JUMPDEST PUSH1 0x40 MLOAD DUP1 SWAP2 SUB SWAP1 REVERT JUMPDEST DUP3 DUP5 PUSH2 0x3CE SWAP2 SWAP1 PUSH2 0xAC5 JUMP JUMPDEST SWAP2 POP POP PUSH2 0x4D1 JUMP JUMPDEST PUSH1 0x40 MLOAD PUSH1 0x20 ADD PUSH2 0x3E5 SWAP1 PUSH2 0xBA0 JUMP JUMPDEST PUSH1 0x40 MLOAD PUSH1 0x20 DUP2 DUP4 SUB SUB DUP2 MSTORE SWAP1 PUSH1 0x40 MSTORE DUP1 MLOAD SWAP1 PUSH1 0x20 ADD KECCAK256 DUP2 SUB PUSH2 0x415 JUMPI DUP3 DUP5 PUSH2 0x40D SWAP2 SWAP1 PUSH2 0xBB4 JUMP JUMPDEST SWAP2 POP POP PUSH2 0x4D1 JUMP JUMPDEST PUSH1 0x40 MLOAD PUSH1 0x20 ADD PUSH2 0x424 SWAP1 PUSH2 0xC3F JUMP JUMPDEST PUSH1 0x40 MLOAD PUSH1 0x20 DUP2 DUP4 SUB SUB DUP2 MSTORE SWAP1 PUSH1 0x40 MSTORE DUP1 MLOAD SWAP1 PUSH1 0x20 ADD KECCAK256 DUP2 SUB PUSH2 0x496 JUMPI PUSH0 DUP4 SUB PUSH2 0x482 JUMPI PUSH1 0x40 MLOAD PUSH32 0x8C379A000000000000000000000000000000000000000000000000000000000 DUP2 MSTORE PUSH1 0x4 ADD PUSH2 0x479 SWAP1 PUSH2 0xC9D JUMP JUMPDEST PUSH1 0x40 MLOAD DUP1 SWAP2 SUB SWAP1 REVERT JUMPDEST DUP3 DUP5 PUSH2 0x48E SWAP2 SWAP1 PUSH2 0xCBB JUMP JUMPDEST SWAP2 POP POP PUSH2 0x4D1 JUMP JUMPDEST PUSH1 0x40 MLOAD PUSH32 0x8C379A000000000000000000000000000000000000000000000000000000000 DUP2 MSTORE PUSH1 0x4 ADD PUSH2 0x4C8 SWAP1 PUSH2 0xD35 JUMP JUMPDEST PUSH1 0x40 MLOAD DUP1 SWAP2 SUB SWAP1 REVERT JUMPDEST SWAP4 SWAP3 POP POP POP JUMP JUMPDEST PUSH0 DUP1 PUSH0 SWAP1 POP PUSH0 DUP4 SWAP1 POP JUMPDEST DUP4 PUSH1 0xA PUSH2 0x4EF SWAP2 SWAP1 PUSH2 0x870 JUMP JUMPDEST DUP2 LT ISZERO PUSH2 0x511 JUMPI DUP1 DUP3 PUSH2 0x502 SWAP2 SWAP1 PUSH2 0x870 JUMP JUMPDEST SWAP2 POP DUP1 DUP1 PUSH1 0x1 ADD SWAP2 POP POP PUSH2 0x4E2 JUMP JUMPDEST POP DUP1 SWAP2 POP POP SWAP2 SWAP1 POP JUMP JUMPDEST PUSH0 DUP1 PUSH0 DUP1 PUSH0 JUMPDEST DUP6 DUP3 LT DUP1 PUSH2 0x52E JUMPI POP DUP6 DUP2 LT JUMPDEST ISZERO PUSH2 0x597 JUMPI PUSH0 PUSH1 0x2 DUP5 PUSH2 0x541 SWAP2 SWAP1 PUSH2 0x8D0 JUMP JUMPDEST EQ PUSH2 0x567 JUMPI DUP3 DUP6 PUSH2 0x552 SWAP2 SWAP1 PUSH2 0x870 JUMP JUMPDEST SWAP5 POP DUP2 DUP1 PUSH2 0x55F SWAP1 PUSH2 0x900 JUMP JUMPDEST SWAP3 POP POP PUSH2 0x584 JUMP JUMPDEST DUP3 DUP5 PUSH2 0x573 SWAP2 SWAP1 PUSH2 0x870 JUMP JUMPDEST SWAP4 POP DUP1 DUP1 PUSH2 0x580 SWAP1 PUSH2 0x900 JUMP JUMPDEST SWAP2 POP POP JUMPDEST DUP3 DUP1 PUSH2 0x58F SWAP1 PUSH2 0x900 JUMP JUMPDEST SWAP4 POP POP PUSH2 0x521 JUMP JUMPDEST POP POP POP SWAP2 POP SWAP2 JUMP JUMPDEST PUSH0 PUSH1 0x40 MLOAD SWAP1 POP SWAP1 JUMP JUMPDEST PUSH0 DUP1 REVERT JUMPDEST PUSH0 DUP1 REVERT JUMPDEST PUSH0 DUP2 SWAP1 POP SWAP2 SWAP1 POP JUMP JUMPDEST PUSH2 0x5C2 DUP2 PUSH2 0x5B0 JUMP JUMPDEST DUP2 EQ PUSH2 0x5CC JUMPI PUSH0 DUP1 REVERT JUMPDEST POP JUMP JUMPDEST PUSH0 DUP2 CALLDATALOAD SWAP1 POP PUSH2 0x5DD DUP2 PUSH2 0x5B9 JUMP JUMPDEST SWAP3 SWAP2 POP POP JUMP JUMPDEST PUSH0 DUP1 PUSH1 0x40 DUP4 DUP6 SUB SLT ISZERO PUSH2 0x5F9 JUMPI PUSH2 0x5F8 PUSH2 0x5A8 JUMP JUMPDEST JUMPDEST PUSH0 PUSH2 0x606 DUP6 DUP3 DUP7 ADD PUSH2 0x5CF JUMP JUMPDEST SWAP3 POP POP PUSH1 0x20 PUSH2 0x617 DUP6 DUP3 DUP7 ADD PUSH2 0x5CF JUMP JUMPDEST SWAP2 POP POP SWAP3 POP SWAP3 SWAP1 POP JUMP JUMPDEST PUSH2 0x62A DUP2 PUSH2 0x5B0 JUMP JUMPDEST DUP3 MSTORE POP POP JUMP JUMPDEST PUSH0 PUSH1 0x20 DUP3 ADD SWAP1 POP PUSH2 0x643 PUSH0 DUP4 ADD DUP5 PUSH2 0x621 JUMP JUMPDEST SWAP3 SWAP2 POP POP JUMP JUMPDEST PUSH0 PUSH1 0x20 DUP3 DUP5 SUB SLT ISZERO PUSH2 0x65E JUMPI PUSH2 0x65D PUSH2 0x5A8 JUMP JUMPDEST JUMPDEST PUSH0 PUSH2 0x66B DUP5 DUP3 DUP6 ADD PUSH2 0x5CF JUMP JUMPDEST SWAP2 POP POP SWAP3 SWAP2 POP POP JUMP JUMPDEST PUSH0 DUP1 REVERT JUMPDEST PUSH0 DUP1 REVERT JUMPDEST PUSH0 PUSH1 0x1F NOT PUSH1 0x1F DUP4 ADD AND SWAP1 POP SWAP2 SWAP1 POP JUMP JUMPDEST PUSH32 0x4E487B7100000000000000000000000000000000000000000000000000000000 PUSH0 MSTORE PUSH1 0x41 PUSH1 0x4 MSTORE PUSH1 0x24 PUSH0 REVERT JUMPDEST PUSH2 0x6C2 DUP3 PUSH2 0x67C JUMP JUMPDEST DUP2 ADD DUP2 DUP2 LT PUSH8 0xFFFFFFFFFFFFFFFF DUP3 GT OR ISZERO PUSH2 0x6E1 JUMPI PUSH2 0x6E0 PUSH2 0x68C JUMP JUMPDEST JUMPDEST DUP1 PUSH1 0x40 MSTORE POP POP POP JUMP JUMPDEST PUSH0 PUSH2 0x6F3 PUSH2 0x59F JUMP JUMPDEST SWAP1 POP PUSH2 0x6FF DUP3 DUP3 PUSH2 0x6B9 JUMP JUMPDEST SWAP2 SWAP1 POP JUMP JUMPDEST PUSH0 PUSH8 0xFFFFFFFFFFFFFFFF DUP3 GT ISZERO PUSH2 0x71E JUMPI PUSH2 0x71D PUSH2 0x68C JUMP JUMPDEST JUMPDEST PUSH2 0x727 DUP3 PUSH2 0x67C JUMP JUMPDEST SWAP1 POP PUSH1 0x20 DUP2 ADD SWAP1 POP SWAP2 SWAP1 POP JUMP JUMPDEST DUP3 DUP2 DUP4 CALLDATACOPY PUSH0 DUP4 DUP4 ADD MSTORE POP POP POP JUMP JUMPDEST PUSH0 PUSH2 0x754 PUSH2 0x74F DUP5 PUSH2 0x704 JUMP JUMPDEST PUSH2 0x6EA JUMP JUMPDEST SWAP1 POP DUP3 DUP2 MSTORE PUSH1 0x20 DUP2 ADD DUP5 DUP5 DUP5 ADD GT ISZERO PUSH2 0x770 JUMPI PUSH2 0x76F PUSH2 0x678 JUMP JUMPDEST JUMPDEST PUSH2 0x77B DUP5 DUP3 DUP6 PUSH2 0x734 JUMP JUMPDEST POP SWAP4 SWAP3 POP POP POP JUMP JUMPDEST PUSH0 DUP3 PUSH1 0x1F DUP4 ADD SLT PUSH2 0x797 JUMPI PUSH2 0x796 PUSH2 0x674 JUMP JUMPDEST JUMPDEST DUP2 CALLDATALOAD PUSH2 0x7A7 DUP5 DUP3 PUSH1 0x20 DUP7 ADD PUSH2 0x742 JUMP JUMPDEST SWAP2 POP POP SWAP3 SWAP2 POP POP JUMP JUMPDEST PUSH0 DUP1 PUSH0 PUSH1 0x60 DUP5 DUP7 SUB SLT ISZERO PUSH2 0x7C7 JUMPI PUSH2 0x7C6 PUSH2 0x5A8 JUMP JUMPDEST JUMPDEST PUSH0 DUP5 ADD CALLDATALOAD PUSH8 0xFFFFFFFFFFFFFFFF DUP2 GT ISZERO PUSH2 0x7E4 JUMPI PUSH2 0x7E3 PUSH2 0x5AC JUMP JUMPDEST JUMPDEST PUSH2 0x7F0 DUP7 DUP3 DUP8 ADD PUSH2 0x783 JUMP JUMPDEST SWAP4 POP POP PUSH1 0x20 PUSH2 0x801 DUP7 DUP3 DUP8 ADD PUSH2 0x5CF JUMP JUMPDEST SWAP3 POP POP PUSH1 0x40 PUSH2 0x812 DUP7 DUP3 DUP8 ADD PUSH2 0x5CF JUMP JUMPDEST SWAP2 POP POP SWAP3 POP SWAP3 POP SWAP3 JUMP JUMPDEST PUSH0 PUSH1 0x40 DUP3 ADD SWAP1 POP PUSH2 0x82F PUSH0 DUP4 ADD DUP6 PUSH2 0x621 JUMP JUMPDEST PUSH2 0x83C PUSH1 0x20 DUP4 ADD DUP5 PUSH2 0x621 JUMP JUMPDEST SWAP4 SWAP3 POP POP POP JUMP JUMPDEST PUSH32 0x4E487B7100000000000000000000000000000000000000000000000000000000 PUSH0 MSTORE PUSH1 0x11 PUSH1 0x4 MSTORE PUSH1 0x24 PUSH0 REVERT JUMPDEST PUSH0 PUSH2 0x87A DUP3 PUSH2 0x5B0 JUMP JUMPDEST SWAP2 POP PUSH2 0x885 DUP4 PUSH2 0x5B0 JUMP JUMPDEST SWAP3 POP DUP3 DUP3 ADD SWAP1 POP DUP1 DUP3 GT ISZERO PUSH2 0x89D JUMPI PUSH2 0x89C PUSH2 0x843 JUMP JUMPDEST JUMPDEST SWAP3 SWAP2 POP POP JUMP JUMPDEST PUSH32 0x4E487B7100000000000000000000000000000000000000000000000000000000 PUSH0 MSTORE PUSH1 0x12 PUSH1 0x4 MSTORE PUSH1 0x24 PUSH0 REVERT JUMPDEST PUSH0 PUSH2 0x8DA DUP3 PUSH2 0x5B0 JUMP JUMPDEST SWAP2 POP PUSH2 0x8E5 DUP4 PUSH2 0x5B0 JUMP JUMPDEST SWAP3 POP DUP3 PUSH2 0x8F5 JUMPI PUSH2 0x8F4 PUSH2 0x8A3 JUMP JUMPDEST JUMPDEST DUP3 DUP3 MOD SWAP1 POP SWAP3 SWAP2 POP POP JUMP JUMPDEST PUSH0 PUSH2 0x90A DUP3 PUSH2 0x5B0 JUMP JUMPDEST SWAP2 POP PUSH32 0xFFFFFFFFFFFFFFFFFFFFFFFFFFFFFFFFFFFFFFFFFFFFFFFFFFFFFFFFFFFFFFFF DUP3 SUB PUSH2 0x93C JUMPI PUSH2 0x93B PUSH2 0x843 JUMP JUMPDEST JUMPDEST PUSH1 0x1 DUP3 ADD SWAP1 POP SWAP2 SWAP1 POP JUMP JUMPDEST PUSH0 DUP2 MLOAD SWAP1 POP SWAP2 SWAP1 POP JUMP JUMPDEST PUSH0 DUP2 SWAP1 POP SWAP3 SWAP2 POP POP JUMP JUMPDEST PUSH0 JUMPDEST DUP4 DUP2 LT ISZERO PUSH2 0x978 JUMPI DUP1 DUP3 ADD MLOAD DUP2 DUP5 ADD MSTORE PUSH1 0x20 DUP2 ADD SWAP1 POP PUSH2 0x95D JUMP JUMPDEST PUSH0 DUP5 DUP5 ADD MSTORE POP POP POP POP JUMP JUMPDEST PUSH0 PUSH2 0x98D DUP3 PUSH2 0x947 JUMP JUMPDEST PUSH2 0x997 DUP2 DUP6 PUSH2 0x951 JUMP JUMPDEST SWAP4 POP PUSH2 0x9A7 DUP2 DUP6 PUSH1 0x20 DUP7 ADD PUSH2 0x95B JUMP JUMPDEST DUP1 DUP5 ADD SWAP2 POP POP SWAP3 SWAP2 POP POP JUMP JUMPDEST PUSH0 PUSH2 0x9BE DUP3 DUP5 PUSH2 0x983 JUMP JUMPDEST SWAP2 POP DUP2 SWAP1 POP SWAP3 SWAP2 POP POP JUMP JUMPDEST PUSH32 0x73756D0000000000000000000000000000000000000000000000000000000000 PUSH0 DUP3 ADD MSTORE POP JUMP JUMPDEST PUSH0 PUSH2 0x9FD PUSH1 0x3 DUP4 PUSH2 0x951 JUMP JUMPDEST SWAP2 POP PUSH2 0xA08 DUP3 PUSH2 0x9C9 JUMP JUMPDEST PUSH1 0x3 DUP3 ADD SWAP1 POP SWAP2 SWAP1 POP JUMP JUMPDEST PUSH0 PUSH2 0xA1D DUP3 PUSH2 0x9F1 JUMP JUMPDEST SWAP2 POP DUP2 SWAP1 POP SWAP2 SWAP1 POP JUMP JUMPDEST PUSH0 DUP3 DUP3 MSTORE PUSH1 0x20 DUP3 ADD SWAP1 POP SWAP3 SWAP2 POP POP JUMP JUMPDEST PUSH32 0x456C20736567756E646F206E756D65726F206465626520736572206D656E6F72 PUSH0 DUP3 ADD MSTORE PUSH32 0x206F20696775616C20616C207072696D65726F00000000000000000000000000 PUSH1 0x20 DUP3 ADD MSTORE POP JUMP JUMPDEST PUSH0 PUSH2 0xA91 PUSH1 0x33 DUP4 PUSH2 0xA27 JUMP JUMPDEST SWAP2 POP PUSH2 0xA9C DUP3 PUSH2 0xA37 JUMP JUMPDEST PUSH1 0x40 DUP3 ADD SWAP1 POP SWAP2 SWAP1 POP JUMP JUMPDEST PUSH0 PUSH1 0x20 DUP3 ADD SWAP1 POP DUP2 DUP2 SUB PUSH0 DUP4 ADD MSTORE PUSH2 0xABE DUP2 PUSH2 0xA85 JUMP JUMPDEST SWAP1 POP SWAP2 SWAP1 POP JUMP JUMPDEST PUSH0 PUSH2 0xACF DUP3 PUSH2 0x5B0 JUMP JUMPDEST SWAP2 POP PUSH2 0xADA DUP4 PUSH2 0x5B0 JUMP JUMPDEST SWAP3 POP DUP3 DUP3 SUB SWAP1 POP DUP2 DUP2 GT ISZERO PUSH2 0xAF2 JUMPI PUSH2 0xAF1 PUSH2 0x843 JUMP JUMPDEST JUMPDEST SWAP3 SWAP2 POP POP JUMP JUMPDEST PUSH32 0x7265730000000000000000000000000000000000000000000000000000000000 PUSH0 DUP3 ADD MSTORE POP JUMP JUMPDEST PUSH0 PUSH2 0xB2C PUSH1 0x3 DUP4 PUSH2 0x951 JUMP JUMPDEST SWAP2 POP PUSH2 0xB37 DUP3 PUSH2 0xAF8 JUMP JUMPDEST PUSH1 0x3 DUP3 ADD SWAP1 POP SWAP2 SWAP1 POP JUMP JUMPDEST PUSH0 PUSH2 0xB4C DUP3 PUSH2 0xB20 JUMP JUMPDEST SWAP2 POP DUP2 SWAP1 POP SWAP2 SWAP1 POP JUMP JUMPDEST PUSH32 0x6D756C7469000000000000000000000000000000000000000000000000000000 PUSH0 DUP3 ADD MSTORE POP JUMP JUMPDEST PUSH0 PUSH2 0xB8A PUSH1 0x5 DUP4 PUSH2 0x951 JUMP JUMPDEST SWAP2 POP PUSH2 0xB95 DUP3 PUSH2 0xB56 JUMP JUMPDEST PUSH1 0x5 DUP3 ADD SWAP1 POP SWAP2 SWAP1 POP JUMP JUMPDEST PUSH0 PUSH2 0xBAA DUP3 PUSH2 0xB7E JUMP JUMPDEST SWAP2 POP DUP2 SWAP1 POP SWAP2 SWAP1 POP JUMP JUMPDEST PUSH0 PUSH2 0xBBE DUP3 PUSH2 0x5B0 JUMP JUMPDEST SWAP2 POP PUSH2 0xBC9 DUP4 PUSH2 0x5B0 JUMP JUMPDEST SWAP3 POP DUP3 DUP3 MUL PUSH2 0xBD7 DUP2 PUSH2 0x5B0 JUMP JUMPDEST SWAP2 POP DUP3 DUP3 DIV DUP5 EQ DUP4 ISZERO OR PUSH2 0xBEE JUMPI PUSH2 0xBED PUSH2 0x843 JUMP JUMPDEST JUMPDEST POP SWAP3 SWAP2 POP POP JUMP JUMPDEST PUSH32 0x6469760000000000000000000000000000000000000000000000000000000000 PUSH0 DUP3 ADD MSTORE POP JUMP JUMPDEST PUSH0 PUSH2 0xC29 PUSH1 0x3 DUP4 PUSH2 0x951 JUMP JUMPDEST SWAP2 POP PUSH2 0xC34 DUP3 PUSH2 0xBF5 JUMP JUMPDEST PUSH1 0x3 DUP3 ADD SWAP1 POP SWAP2 SWAP1 POP JUMP JUMPDEST PUSH0 PUSH2 0xC49 DUP3 PUSH2 0xC1D JUMP JUMPDEST SWAP2 POP DUP2 SWAP1 POP SWAP2 SWAP1 POP JUMP JUMPDEST PUSH32 0x4E6F207365207075656465206469766964697220656E747265206365726F0000 PUSH0 DUP3 ADD MSTORE POP JUMP JUMPDEST PUSH0 PUSH2 0xC87 PUSH1 0x1E DUP4 PUSH2 0xA27 JUMP JUMPDEST SWAP2 POP PUSH2 0xC92 DUP3 PUSH2 0xC53 JUMP JUMPDEST PUSH1 0x20 DUP3 ADD SWAP1 POP SWAP2 SWAP1 POP JUMP JUMPDEST PUSH0 PUSH1 0x20 DUP3 ADD SWAP1 POP DUP2 DUP2 SUB PUSH0 DUP4 ADD MSTORE PUSH2 0xCB4 DUP2 PUSH2 0xC7B JUMP JUMPDEST SWAP1 POP SWAP2 SWAP1 POP JUMP JUMPDEST PUSH0 PUSH2 0xCC5 DUP3 PUSH2 0x5B0 JUMP JUMPDEST SWAP2 POP PUSH2 0xCD0 DUP4 PUSH2 0x5B0 JUMP JUMPDEST SWAP3 POP DUP3 PUSH2 0xCE0 JUMPI PUSH2 0xCDF PUSH2 0x8A3 JUMP JUMPDEST JUMPDEST DUP3 DUP3 DIV SWAP1 POP SWAP3 SWAP2 POP POP JUMP JUMPDEST PUSH32 0x4F7065726163696F6E206E6F20736F706F727461646100000000000000000000 PUSH0 DUP3 ADD MSTORE POP JUMP JUMPDEST PUSH0 PUSH2 0xD1F PUSH1 0x16 DUP4 PUSH2 0xA27 JUMP JUMPDEST SWAP2 POP PUSH2 0xD2A DUP3 PUSH2 0xCEB JUMP JUMPDEST PUSH1 0x20 DUP3 ADD SWAP1 POP SWAP2 SWAP1 POP JUMP JUMPDEST PUSH0 PUSH1 0x20 DUP3 ADD SWAP1 POP DUP2 DUP2 SUB PUSH0 DUP4 ADD MSTORE PUSH2 0xD4C DUP2 PUSH2 0xD13 JUMP JUMPDEST SWAP1 POP SWAP2 SWAP1 POP JUMP INVALID LOG2 PUSH5 0x6970667358 0x22 SLT KECCAK256 RETURN 0xF6 DUP9 JUMPDEST STOP PUSH17 0x545F5852F4B0E17212CC975AABB07CFDEB 0xDB 0xEE DUP14 SGT 0xAB 0xAA PUSH1 0xFE DUP10 PUSH5 0x736F6C6343 STOP ADDMOD OR STOP CALLER "
		},
		"gasEstimates": {
			"creation": {
				"codeDepositCost": "693000",
				"executionCost": "726",
				"totalCost": "693726"
			},
			"external": {
				"operar(string,uint256,uint256)": "infinite",
				"operarT(string,uint256,uint256)": "infinite",
				"sumar10siguientes(uint256)": "infinite",
				"sumarImpares(uint256)": "infinite",
				"sumarImparesYPares(uint256)": "infinite",
				"sumarXsiguientes(uint256,uint256)": "infinite"
			}
		},
		"methodIdentifiers": {
			"operar(string,uint256,uint256)": "ab177cbd",
			"operarT(string,uint256,uint256)": "c7cd0075",
			"sumar10siguientes(uint256)": "d6a69afb",
			"sumarImpares(uint256)": "9f9fd805",
			"sumarImparesYPares(uint256)": "f8e9e31f",
			"sumarXsiguientes(uint256,uint256)": "45c151df"
		}
	},
	"abi": [
		{
			"inputs": [
				{
					"internalType": "string",
					"name": "operacion",
					"type": "string"
				},
				{
					"internalType": "uint256",
					"name": "numeroA",
					"type": "uint256"
				},
				{
					"internalType": "uint256",
					"name": "numeroB",
					"type": "uint256"
				}
			],
			"name": "operar",
			"outputs": [
				{
					"internalType": "uint256",
					"name": "",
					"type": "uint256"
				}
			],
			"stateMutability": "pure",
			"type": "function"
		},
		{
			"inputs": [
				{
					"internalType": "string",
					"name": "operacion",
					"type": "string"
				},
				{
					"internalType": "uint256",
					"name": "numeroA",
					"type": "uint256"
				},
				{
					"internalType": "uint256",
					"name": "numeroB",
					"type": "uint256"
				}
			],
			"name": "operarT",
			"outputs": [
				{
					"internalType": "uint256",
					"name": "",
					"type": "uint256"
				}
			],
			"stateMutability": "pure",
			"type": "function"
		},
		{
			"inputs": [
				{
					"internalType": "uint256",
					"name": "_number",
					"type": "uint256"
				}
			],
			"name": "sumar10siguientes",
			"outputs": [
				{
					"internalType": "uint256",
					"name": "",
					"type": "uint256"
				}
			],
			"stateMutability": "pure",
			"type": "function"
		},
		{
			"inputs": [
				{
					"internalType": "uint256",
					"name": "n",
					"type": "uint256"
				}
			],
			"name": "sumarImpares",
			"outputs": [
				{
					"internalType": "uint256",
					"name": "sumaImpares",
					"type": "uint256"
				}
			],
			"stateMutability": "pure",
			"type": "function"
		},
		{
			"inputs": [
				{
					"internalType": "uint256",
					"name": "n",
					"type": "uint256"
				}
			],
			"name": "sumarImparesYPares",
			"outputs": [
				{
					"internalType": "uint256",
					"name": "sumaImpares",
					"type": "uint256"
				},
				{
					"internalType": "uint256",
					"name": "sumaPares",
					"type": "uint256"
				}
			],
			"stateMutability": "pure",
			"type": "function"
		},
		{
			"inputs": [
				{
					"internalType": "uint256",
					"name": "_number",
					"type": "uint256"
				},
				{
					"internalType": "uint256",
					"name": "_times",
					"type": "uint256"
				}
			],
			"name": "sumarXsiguientes",
			"outputs": [
				{
					"internalType": "uint256",
					"name": "",
					"type": "uint256"
				}
			],
			"stateMutability": "pure",
			"type": "function"
		}
	]
}