{
	"data": {
		"bytecode": {
			"linkReferences": {},
			"object": "608060405234801561000f575f80fd5b506109058061001d5f395ff3fe608060405234801561000f575f80fd5b5060043610610055575f3560e01c806345c151df146100595780639f9fd80514610089578063ab177cbd146100b9578063d6a69afb146100e9578063f8e9e31f14610119575b5f80fd5b610073600480360381019061006e91906103ba565b61014a565b6040516100809190610407565b60405180910390f35b6100a3600480360381019061009e9190610420565b61018d565b6040516100b09190610407565b60405180910390f35b6100d360048036038101906100ce9190610587565b6101eb565b6040516100e09190610407565b60405180910390f35b61010360048036038101906100fe9190610420565b6102af565b6040516101109190610407565b60405180910390f35b610133600480360381019061012e9190610420565b6102f2565b6040516101419291906105f3565b60405180910390f35b5f805f90505f8490505b83856101609190610647565b8110156101825780826101739190610647565b91508080600101915050610154565b508091505092915050565b5f805f90505f805b848110156101e0575f6002836101ab91906106a7565b146101cd5781836101bc9190610647565b925080806101c9906106d7565b9150505b81806101d8906106d7565b925050610195565b829350505050919050565b5f80846040516020016101fe919061078a565b604051602081830303815290604052805190602001209050604051602001610225906107ea565b60405160208183030381529060405280519060200120810361025557828461024d9190610647565b9150506102a8565b83831115610298576040517f08c379a000000000000000000000000000000000000000000000000000000000815260040161028f9061087e565b60405180910390fd5b82846102a4919061089c565b9150505b9392505050565b5f805f90505f8390505b83600a6102c69190610647565b8110156102e85780826102d99190610647565b915080806001019150506102b9565b5080915050919050565b5f805f805f5b8582108061030557508581105b1561036e575f60028461031891906106a7565b1461033e5782856103299190610647565b94508180610336906106d7565b92505061035b565b828461034a9190610647565b93508080610357906106d7565b9150505b8280610366906106d7565b9350506102f8565b505050915091565b5f604051905090565b5f80fd5b5f80fd5b5f819050919050565b61039981610387565b81146103a3575f80fd5b50565b5f813590506103b481610390565b92915050565b5f80604083850312156103d0576103cf61037f565b5b5f6103dd858286016103a6565b92505060206103ee858286016103a6565b9150509250929050565b61040181610387565b82525050565b5f60208201905061041a5f8301846103f8565b92915050565b5f602082840312156104355761043461037f565b5b5f610442848285016103a6565b91505092915050565b5f80fd5b5f80fd5b5f601f19601f8301169050919050565b7f4e487b71000000000000000000000000000000000000000000000000000000005f52604160045260245ffd5b61049982610453565b810181811067ffffffffffffffff821117156104b8576104b7610463565b5b80604052505050565b5f6104ca610376565b90506104d68282610490565b919050565b5f67ffffffffffffffff8211156104f5576104f4610463565b5b6104fe82610453565b9050602081019050919050565b828183375f83830152505050565b5f61052b610526846104db565b6104c1565b9050828152602081018484840111156105475761054661044f565b5b61055284828561050b565b509392505050565b5f82601f83011261056e5761056d61044b565b5b813561057e848260208601610519565b91505092915050565b5f805f6060848603121561059e5761059d61037f565b5b5f84013567ffffffffffffffff8111156105bb576105ba610383565b5b6105c78682870161055a565b93505060206105d8868287016103a6565b92505060406105e9868287016103a6565b9150509250925092565b5f6040820190506106065f8301856103f8565b61061360208301846103f8565b9392505050565b7f4e487b71000000000000000000000000000000000000000000000000000000005f52601160045260245ffd5b5f61065182610387565b915061065c83610387565b92508282019050808211156106745761067361061a565b5b92915050565b7f4e487b71000000000000000000000000000000000000000000000000000000005f52601260045260245ffd5b5f6106b182610387565b91506106bc83610387565b9250826106cc576106cb61067a565b5b828206905092915050565b5f6106e182610387565b91507fffffffffffffffffffffffffffffffffffffffffffffffffffffffffffffffff82036107135761071261061a565b5b600182019050919050565b5f81519050919050565b5f81905092915050565b5f5b8381101561074f578082015181840152602081019050610734565b5f8484015250505050565b5f6107648261071e565b61076e8185610728565b935061077e818560208601610732565b80840191505092915050565b5f610795828461075a565b915081905092915050565b7f73756d61000000000000000000000000000000000000000000000000000000005f82015250565b5f6107d4600483610728565b91506107df826107a0565b600482019050919050565b5f6107f4826107c8565b9150819050919050565b5f82825260208201905092915050565b7f456c20736567756e646f206e756d65726f206465626520736572206d656e6f725f8201527f206f20696775616c20616c207072696d65726f00000000000000000000000000602082015250565b5f6108686033836107fe565b91506108738261080e565b604082019050919050565b5f6020820190508181035f8301526108958161085c565b9050919050565b5f6108a682610387565b91506108b183610387565b92508282039050818111156108c9576108c861061a565b5b9291505056fea26469706673582212208e11b205a270afba06b21a280a6be9a328cee76a423af8a2fc88d60cc0d831b364736f6c63430008170033",
			"opcodes": "PUSH1 0x80 PUSH1 0x40 MSTORE CALLVALUE DUP1 ISZERO PUSH2 0xF JUMPI PUSH0 DUP1 REVERT JUMPDEST POP PUSH2 0x905 DUP1 PUSH2 0x1D PUSH0 CODECOPY PUSH0 RETURN INVALID PUSH1 0x80 PUSH1 0x40 MSTORE CALLVALUE DUP1 ISZERO PUSH2 0xF JUMPI PUSH0 DUP1 REVERT JUMPDEST POP PUSH1 0x4 CALLDATASIZE LT PUSH2 0x55 JUMPI PUSH0 CALLDATALOAD PUSH1 0xE0 SHR DUP1 PUSH4 0x45C151DF EQ PUSH2 0x59 JUMPI DUP1 PUSH4 0x9F9FD805 EQ PUSH2 0x89 JUMPI DUP1 PUSH4 0xAB177CBD EQ PUSH2 0xB9 JUMPI DUP1 PUSH4 0xD6A69AFB EQ PUSH2 0xE9 JUMPI DUP1 PUSH4 0xF8E9E31F EQ PUSH2 0x119 JUMPI JUMPDEST PUSH0 DUP1 REVERT JUMPDEST PUSH2 0x73 PUSH1 0x4 DUP1 CALLDATASIZE SUB DUP2 ADD SWAP1 PUSH2 0x6E SWAP2 SWAP1 PUSH2 0x3BA JUMP JUMPDEST PUSH2 0x14A JUMP JUMPDEST PUSH1 0x40 MLOAD PUSH2 0x80 SWAP2 SWAP1 PUSH2 0x407 JUMP JUMPDEST PUSH1 0x40 MLOAD DUP1 SWAP2 SUB SWAP1 RETURN JUMPDEST PUSH2 0xA3 PUSH1 0x4 DUP1 CALLDATASIZE SUB DUP2 ADD SWAP1 PUSH2 0x9E SWAP2 SWAP1 PUSH2 0x420 JUMP JUMPDEST PUSH2 0x18D JUMP JUMPDEST PUSH1 0x40 MLOAD PUSH2 0xB0 SWAP2 SWAP1 PUSH2 0x407 JUMP JUMPDEST PUSH1 0x40 MLOAD DUP1 SWAP2 SUB SWAP1 RETURN JUMPDEST PUSH2 0xD3 PUSH1 0x4 DUP1 CALLDATASIZE SUB DUP2 ADD SWAP1 PUSH2 0xCE SWAP2 SWAP1 PUSH2 0x587 JUMP JUMPDEST PUSH2 0x1EB JUMP JUMPDEST PUSH1 0x40 MLOAD PUSH2 0xE0 SWAP2 SWAP1 PUSH2 0x407 JUMP JUMPDEST PUSH1 0x40 MLOAD DUP1 SWAP2 SUB SWAP1 RETURN JUMPDEST PUSH2 0x103 PUSH1 0x4 DUP1 CALLDATASIZE SUB DUP2 ADD SWAP1 PUSH2 0xFE SWAP2 SWAP1 PUSH2 0x420 JUMP JUMPDEST PUSH2 0x2AF JUMP JUMPDEST PUSH1 0x40 MLOAD PUSH2 0x110 SWAP2 SWAP1 PUSH2 0x407 JUMP JUMPDEST PUSH1 0x40 MLOAD DUP1 SWAP2 SUB SWAP1 RETURN JUMPDEST PUSH2 0x133 PUSH1 0x4 DUP1 CALLDATASIZE SUB DUP2 ADD SWAP1 PUSH2 0x12E SWAP2 SWAP1 PUSH2 0x420 JUMP JUMPDEST PUSH2 0x2F2 JUMP JUMPDEST PUSH1 0x40 MLOAD PUSH2 0x141 SWAP3 SWAP2 SWAP1 PUSH2 0x5F3 JUMP JUMPDEST PUSH1 0x40 MLOAD DUP1 SWAP2 SUB SWAP1 RETURN JUMPDEST PUSH0 DUP1 PUSH0 SWAP1 POP PUSH0 DUP5 SWAP1 POP JUMPDEST DUP4 DUP6 PUSH2 0x160 SWAP2 SWAP1 PUSH2 0x647 JUMP JUMPDEST DUP2 LT ISZERO PUSH2 0x182 JUMPI DUP1 DUP3 PUSH2 0x173 SWAP2 SWAP1 PUSH2 0x647 JUMP JUMPDEST SWAP2 POP DUP1 DUP1 PUSH1 0x1 ADD SWAP2 POP POP PUSH2 0x154 JUMP JUMPDEST POP DUP1 SWAP2 POP POP SWAP3 SWAP2 POP POP JUMP JUMPDEST PUSH0 DUP1 PUSH0 SWAP1 POP PUSH0 DUP1 JUMPDEST DUP5 DUP2 LT ISZERO PUSH2 0x1E0 JUMPI PUSH0 PUSH1 0x2 DUP4 PUSH2 0x1AB SWAP2 SWAP1 PUSH2 0x6A7 JUMP JUMPDEST EQ PUSH2 0x1CD JUMPI DUP2 DUP4 PUSH2 0x1BC SWAP2 SWAP1 PUSH2 0x647 JUMP JUMPDEST SWAP3 POP DUP1 DUP1 PUSH2 0x1C9 SWAP1 PUSH2 0x6D7 JUMP JUMPDEST SWAP2 POP POP JUMPDEST DUP2 DUP1 PUSH2 0x1D8 SWAP1 PUSH2 0x6D7 JUMP JUMPDEST SWAP3 POP POP PUSH2 0x195 JUMP JUMPDEST DUP3 SWAP4 POP POP POP POP SWAP2 SWAP1 POP JUMP JUMPDEST PUSH0 DUP1 DUP5 PUSH1 0x40 MLOAD PUSH1 0x20 ADD PUSH2 0x1FE SWAP2 SWAP1 PUSH2 0x78A JUMP JUMPDEST PUSH1 0x40 MLOAD PUSH1 0x20 DUP2 DUP4 SUB SUB DUP2 MSTORE SWAP1 PUSH1 0x40 MSTORE DUP1 MLOAD SWAP1 PUSH1 0x20 ADD KECCAK256 SWAP1 POP PUSH1 0x40 MLOAD PUSH1 0x20 ADD PUSH2 0x225 SWAP1 PUSH2 0x7EA JUMP JUMPDEST PUSH1 0x40 MLOAD PUSH1 0x20 DUP2 DUP4 SUB SUB DUP2 MSTORE SWAP1 PUSH1 0x40 MSTORE DUP1 MLOAD SWAP1 PUSH1 0x20 ADD KECCAK256 DUP2 SUB PUSH2 0x255 JUMPI DUP3 DUP5 PUSH2 0x24D SWAP2 SWAP1 PUSH2 0x647 JUMP JUMPDEST SWAP2 POP POP PUSH2 0x2A8 JUMP JUMPDEST DUP4 DUP4 GT ISZERO PUSH2 0x298 JUMPI PUSH1 0x40 MLOAD PUSH32 0x8C379A000000000000000000000000000000000000000000000000000000000 DUP2 MSTORE PUSH1 0x4 ADD PUSH2 0x28F SWAP1 PUSH2 0x87E JUMP JUMPDEST PUSH1 0x40 MLOAD DUP1 SWAP2 SUB SWAP1 REVERT JUMPDEST DUP3 DUP5 PUSH2 0x2A4 SWAP2 SWAP1 PUSH2 0x89C JUMP JUMPDEST SWAP2 POP POP JUMPDEST SWAP4 SWAP3 POP POP POP JUMP JUMPDEST PUSH0 DUP1 PUSH0 SWAP1 POP PUSH0 DUP4 SWAP1 POP JUMPDEST DUP4 PUSH1 0xA PUSH2 0x2C6 SWAP2 SWAP1 PUSH2 0x647 JUMP JUMPDEST DUP2 LT ISZERO PUSH2 0x2E8 JUMPI DUP1 DUP3 PUSH2 0x2D9 SWAP2 SWAP1 PUSH2 0x647 JUMP JUMPDEST SWAP2 POP DUP1 DUP1 PUSH1 0x1 ADD SWAP2 POP POP PUSH2 0x2B9 JUMP JUMPDEST POP DUP1 SWAP2 POP POP SWAP2 SWAP1 POP JUMP JUMPDEST PUSH0 DUP1 PUSH0 DUP1 PUSH0 JUMPDEST DUP6 DUP3 LT DUP1 PUSH2 0x305 JUMPI POP DUP6 DUP2 LT JUMPDEST ISZERO PUSH2 0x36E JUMPI PUSH0 PUSH1 0x2 DUP5 PUSH2 0x318 SWAP2 SWAP1 PUSH2 0x6A7 JUMP JUMPDEST EQ PUSH2 0x33E JUMPI DUP3 DUP6 PUSH2 0x329 SWAP2 SWAP1 PUSH2 0x647 JUMP JUMPDEST SWAP5 POP DUP2 DUP1 PUSH2 0x336 SWAP1 PUSH2 0x6D7 JUMP JUMPDEST SWAP3 POP POP PUSH2 0x35B JUMP JUMPDEST DUP3 DUP5 PUSH2 0x34A SWAP2 SWAP1 PUSH2 0x647 JUMP JUMPDEST SWAP4 POP DUP1 DUP1 PUSH2 0x357 SWAP1 PUSH2 0x6D7 JUMP JUMPDEST SWAP2 POP POP JUMPDEST DUP3 DUP1 PUSH2 0x366 SWAP1 PUSH2 0x6D7 JUMP JUMPDEST SWAP4 POP POP PUSH2 0x2F8 JUMP JUMPDEST POP POP POP SWAP2 POP SWAP2 JUMP JUMPDEST PUSH0 PUSH1 0x40 MLOAD SWAP1 POP SWAP1 JUMP JUMPDEST PUSH0 DUP1 REVERT JUMPDEST PUSH0 DUP1 REVERT JUMPDEST PUSH0 DUP2 SWAP1 POP SWAP2 SWAP1 POP JUMP JUMPDEST PUSH2 0x399 DUP2 PUSH2 0x387 JUMP JUMPDEST DUP2 EQ PUSH2 0x3A3 JUMPI PUSH0 DUP1 REVERT JUMPDEST POP JUMP JUMPDEST PUSH0 DUP2 CALLDATALOAD SWAP1 POP PUSH2 0x3B4 DUP2 PUSH2 0x390 JUMP JUMPDEST SWAP3 SWAP2 POP POP JUMP JUMPDEST PUSH0 DUP1 PUSH1 0x40 DUP4 DUP6 SUB SLT ISZERO PUSH2 0x3D0 JUMPI PUSH2 0x3CF PUSH2 0x37F JUMP JUMPDEST JUMPDEST PUSH0 PUSH2 0x3DD DUP6 DUP3 DUP7 ADD PUSH2 0x3A6 JUMP JUMPDEST SWAP3 POP POP PUSH1 0x20 PUSH2 0x3EE DUP6 DUP3 DUP7 ADD PUSH2 0x3A6 JUMP JUMPDEST SWAP2 POP POP SWAP3 POP SWAP3 SWAP1 POP JUMP JUMPDEST PUSH2 0x401 DUP2 PUSH2 0x387 JUMP JUMPDEST DUP3 MSTORE POP POP JUMP JUMPDEST PUSH0 PUSH1 0x20 DUP3 ADD SWAP1 POP PUSH2 0x41A PUSH0 DUP4 ADD DUP5 PUSH2 0x3F8 JUMP JUMPDEST SWAP3 SWAP2 POP POP JUMP JUMPDEST PUSH0 PUSH1 0x20 DUP3 DUP5 SUB SLT ISZERO PUSH2 0x435 JUMPI PUSH2 0x434 PUSH2 0x37F JUMP JUMPDEST JUMPDEST PUSH0 PUSH2 0x442 DUP5 DUP3 DUP6 ADD PUSH2 0x3A6 JUMP JUMPDEST SWAP2 POP POP SWAP3 SWAP2 POP POP JUMP JUMPDEST PUSH0 DUP1 REVERT JUMPDEST PUSH0 DUP1 REVERT JUMPDEST PUSH0 PUSH1 0x1F NOT PUSH1 0x1F DUP4 ADD AND SWAP1 POP SWAP2 SWAP1 POP JUMP JUMPDEST PUSH32 0x4E487B7100000000000000000000000000000000000000000000000000000000 PUSH0 MSTORE PUSH1 0x41 PUSH1 0x4 MSTORE PUSH1 0x24 PUSH0 REVERT JUMPDEST PUSH2 0x499 DUP3 PUSH2 0x453 JUMP JUMPDEST DUP2 ADD DUP2 DUP2 LT PUSH8 0xFFFFFFFFFFFFFFFF DUP3 GT OR ISZERO PUSH2 0x4B8 JUMPI PUSH2 0x4B7 PUSH2 0x463 JUMP JUMPDEST JUMPDEST DUP1 PUSH1 0x40 MSTORE POP POP POP JUMP JUMPDEST PUSH0 PUSH2 0x4CA PUSH2 0x376 JUMP JUMPDEST SWAP1 POP PUSH2 0x4D6 DUP3 DUP3 PUSH2 0x490 JUMP JUMPDEST SWAP2 SWAP1 POP JUMP JUMPDEST PUSH0 PUSH8 0xFFFFFFFFFFFFFFFF DUP3 GT ISZERO PUSH2 0x4F5 JUMPI PUSH2 0x4F4 PUSH2 0x463 JUMP JUMPDEST JUMPDEST PUSH2 0x4FE DUP3 PUSH2 0x453 JUMP JUMPDEST SWAP1 POP PUSH1 0x20 DUP2 ADD SWAP1 POP SWAP2 SWAP1 POP JUMP JUMPDEST DUP3 DUP2 DUP4 CALLDATACOPY PUSH0 DUP4 DUP4 ADD MSTORE POP POP POP JUMP JUMPDEST PUSH0 PUSH2 0x52B PUSH2 0x526 DUP5 PUSH2 0x4DB JUMP JUMPDEST PUSH2 0x4C1 JUMP JUMPDEST SWAP1 POP DUP3 DUP2 MSTORE PUSH1 0x20 DUP2 ADD DUP5 DUP5 DUP5 ADD GT ISZERO PUSH2 0x547 JUMPI PUSH2 0x546 PUSH2 0x44F JUMP JUMPDEST JUMPDEST PUSH2 0x552 DUP5 DUP3 DUP6 PUSH2 0x50B JUMP JUMPDEST POP SWAP4 SWAP3 POP POP POP JUMP JUMPDEST PUSH0 DUP3 PUSH1 0x1F DUP4 ADD SLT PUSH2 0x56E JUMPI PUSH2 0x56D PUSH2 0x44B JUMP JUMPDEST JUMPDEST DUP2 CALLDATALOAD PUSH2 0x57E DUP5 DUP3 PUSH1 0x20 DUP7 ADD PUSH2 0x519 JUMP JUMPDEST SWAP2 POP POP SWAP3 SWAP2 POP POP JUMP JUMPDEST PUSH0 DUP1 PUSH0 PUSH1 0x60 DUP5 DUP7 SUB SLT ISZERO PUSH2 0x59E JUMPI PUSH2 0x59D PUSH2 0x37F JUMP JUMPDEST JUMPDEST PUSH0 DUP5 ADD CALLDATALOAD PUSH8 0xFFFFFFFFFFFFFFFF DUP2 GT ISZERO PUSH2 0x5BB JUMPI PUSH2 0x5BA PUSH2 0x383 JUMP JUMPDEST JUMPDEST PUSH2 0x5C7 DUP7 DUP3 DUP8 ADD PUSH2 0x55A JUMP JUMPDEST SWAP4 POP POP PUSH1 0x20 PUSH2 0x5D8 DUP7 DUP3 DUP8 ADD PUSH2 0x3A6 JUMP JUMPDEST SWAP3 POP POP PUSH1 0x40 PUSH2 0x5E9 DUP7 DUP3 DUP8 ADD PUSH2 0x3A6 JUMP JUMPDEST SWAP2 POP POP SWAP3 POP SWAP3 POP SWAP3 JUMP JUMPDEST PUSH0 PUSH1 0x40 DUP3 ADD SWAP1 POP PUSH2 0x606 PUSH0 DUP4 ADD DUP6 PUSH2 0x3F8 JUMP JUMPDEST PUSH2 0x613 PUSH1 0x20 DUP4 ADD DUP5 PUSH2 0x3F8 JUMP JUMPDEST SWAP4 SWAP3 POP POP POP JUMP JUMPDEST PUSH32 0x4E487B7100000000000000000000000000000000000000000000000000000000 PUSH0 MSTORE PUSH1 0x11 PUSH1 0x4 MSTORE PUSH1 0x24 PUSH0 REVERT JUMPDEST PUSH0 PUSH2 0x651 DUP3 PUSH2 0x387 JUMP JUMPDEST SWAP2 POP PUSH2 0x65C DUP4 PUSH2 0x387 JUMP JUMPDEST SWAP3 POP DUP3 DUP3 ADD SWAP1 POP DUP1 DUP3 GT ISZERO PUSH2 0x674 JUMPI PUSH2 0x673 PUSH2 0x61A JUMP JUMPDEST JUMPDEST SWAP3 SWAP2 POP POP JUMP JUMPDEST PUSH32 0x4E487B7100000000000000000000000000000000000000000000000000000000 PUSH0 MSTORE PUSH1 0x12 PUSH1 0x4 MSTORE PUSH1 0x24 PUSH0 REVERT JUMPDEST PUSH0 PUSH2 0x6B1 DUP3 PUSH2 0x387 JUMP JUMPDEST SWAP2 POP PUSH2 0x6BC DUP4 PUSH2 0x387 JUMP JUMPDEST SWAP3 POP DUP3 PUSH2 0x6CC JUMPI PUSH2 0x6CB PUSH2 0x67A JUMP JUMPDEST JUMPDEST DUP3 DUP3 MOD SWAP1 POP SWAP3 SWAP2 POP POP JUMP JUMPDEST PUSH0 PUSH2 0x6E1 DUP3 PUSH2 0x387 JUMP JUMPDEST SWAP2 POP PUSH32 0xFFFFFFFFFFFFFFFFFFFFFFFFFFFFFFFFFFFFFFFFFFFFFFFFFFFFFFFFFFFFFFFF DUP3 SUB PUSH2 0x713 JUMPI PUSH2 0x712 PUSH2 0x61A JUMP JUMPDEST JUMPDEST PUSH1 0x1 DUP3 ADD SWAP1 POP SWAP2 SWAP1 POP JUMP JUMPDEST PUSH0 DUP2 MLOAD SWAP1 POP SWAP2 SWAP1 POP JUMP JUMPDEST PUSH0 DUP2 SWAP1 POP SWAP3 SWAP2 POP POP JUMP JUMPDEST PUSH0 JUMPDEST DUP4 DUP2 LT ISZERO PUSH2 0x74F JUMPI DUP1 DUP3 ADD MLOAD DUP2 DUP5 ADD MSTORE PUSH1 0x20 DUP2 ADD SWAP1 POP PUSH2 0x734 JUMP JUMPDEST PUSH0 DUP5 DUP5 ADD MSTORE POP POP POP POP JUMP JUMPDEST PUSH0 PUSH2 0x764 DUP3 PUSH2 0x71E JUMP JUMPDEST PUSH2 0x76E DUP2 DUP6 PUSH2 0x728 JUMP JUMPDEST SWAP4 POP PUSH2 0x77E DUP2 DUP6 PUSH1 0x20 DUP7 ADD PUSH2 0x732 JUMP JUMPDEST DUP1 DUP5 ADD SWAP2 POP POP SWAP3 SWAP2 POP POP JUMP JUMPDEST PUSH0 PUSH2 0x795 DUP3 DUP5 PUSH2 0x75A JUMP JUMPDEST SWAP2 POP DUP2 SWAP1 POP SWAP3 SWAP2 POP POP JUMP JUMPDEST PUSH32 0x73756D6100000000000000000000000000000000000000000000000000000000 PUSH0 DUP3 ADD MSTORE POP JUMP JUMPDEST PUSH0 PUSH2 0x7D4 PUSH1 0x4 DUP4 PUSH2 0x728 JUMP JUMPDEST SWAP2 POP PUSH2 0x7DF DUP3 PUSH2 0x7A0 JUMP JUMPDEST PUSH1 0x4 DUP3 ADD SWAP1 POP SWAP2 SWAP1 POP JUMP JUMPDEST PUSH0 PUSH2 0x7F4 DUP3 PUSH2 0x7C8 JUMP JUMPDEST SWAP2 POP DUP2 SWAP1 POP SWAP2 SWAP1 POP JUMP JUMPDEST PUSH0 DUP3 DUP3 MSTORE PUSH1 0x20 DUP3 ADD SWAP1 POP SWAP3 SWAP2 POP POP JUMP JUMPDEST PUSH32 0x456C20736567756E646F206E756D65726F206465626520736572206D656E6F72 PUSH0 DUP3 ADD MSTORE PUSH32 0x206F20696775616C20616C207072696D65726F00000000000000000000000000 PUSH1 0x20 DUP3 ADD MSTORE POP JUMP JUMPDEST PUSH0 PUSH2 0x868 PUSH1 0x33 DUP4 PUSH2 0x7FE JUMP JUMPDEST SWAP2 POP PUSH2 0x873 DUP3 PUSH2 0x80E JUMP JUMPDEST PUSH1 0x40 DUP3 ADD SWAP1 POP SWAP2 SWAP1 POP JUMP JUMPDEST PUSH0 PUSH1 0x20 DUP3 ADD SWAP1 POP DUP2 DUP2 SUB PUSH0 DUP4 ADD MSTORE PUSH2 0x895 DUP2 PUSH2 0x85C JUMP JUMPDEST SWAP1 POP SWAP2 SWAP1 POP JUMP JUMPDEST PUSH0 PUSH2 0x8A6 DUP3 PUSH2 0x387 JUMP JUMPDEST SWAP2 POP PUSH2 0x8B1 DUP4 PUSH2 0x387 JUMP JUMPDEST SWAP3 POP DUP3 DUP3 SUB SWAP1 POP DUP2 DUP2 GT ISZERO PUSH2 0x8C9 JUMPI PUSH2 0x8C8 PUSH2 0x61A JUMP JUMPDEST JUMPDEST SWAP3 SWAP2 POP POP JUMP INVALID LOG2 PUSH5 0x6970667358 0x22 SLT KECCAK256 DUP15 GT 0xB2 SDIV LOG2 PUSH17 0xAFBA06B21A280A6BE9A328CEE76A423AF8 LOG2 0xFC DUP9 0xD6 0xC 0xC0 0xD8 BALANCE 0xB3 PUSH5 0x736F6C6343 STOP ADDMOD OR STOP CALLER "
		},
		"gasEstimates": {
			"creation": {
				"codeDepositCost": "461800",
				"executionCost": "497",
				"totalCost": "462297"
			},
			"external": {
				"operar(string,uint256,uint256)": "infinite",
				"sumar10siguientes(uint256)": "infinite",
				"sumarImpares(uint256)": "infinite",
				"sumarImparesYPares(uint256)": "infinite",
				"sumarXsiguientes(uint256,uint256)": "infinite"
			}
		},
		"methodIdentifiers": {
			"operar(string,uint256,uint256)": "ab177cbd",
			"sumar10siguientes(uint256)": "d6a69afb",
			"sumarImpares(uint256)": "9f9fd805",
			"sumarImparesYPares(uint256)": "f8e9e31f",
			"sumarXsiguientes(uint256,uint256)": "45c151df"
		}
	},
	"abi": [
		{
			"inputs": [
				{
					"internalType": "string",
					"name": "operacion",
					"type": "string"
				},
				{
					"internalType": "uint256",
					"name": "numeroA",
					"type": "uint256"
				},
				{
					"internalType": "uint256",
					"name": "numeroB",
					"type": "uint256"
				}
			],
			"name": "operar",
			"outputs": [
				{
					"internalType": "uint256",
					"name": "",
					"type": "uint256"
				}
			],
			"stateMutability": "pure",
			"type": "function"
		},
		{
			"inputs": [
				{
					"internalType": "uint256",
					"name": "_number",
					"type": "uint256"
				}
			],
			"name": "sumar10siguientes",
			"outputs": [
				{
					"internalType": "uint256",
					"name": "",
					"type": "uint256"
				}
			],
			"stateMutability": "pure",
			"type": "function"
		},
		{
			"inputs": [
				{
					"internalType": "uint256",
					"name": "n",
					"type": "uint256"
				}
			],
			"name": "sumarImpares",
			"outputs": [
				{
					"internalType": "uint256",
					"name": "sumaImpares",
					"type": "uint256"
				}
			],
			"stateMutability": "pure",
			"type": "function"
		},
		{
			"inputs": [
				{
					"internalType": "uint256",
					"name": "n",
					"type": "uint256"
				}
			],
			"name": "sumarImparesYPares",
			"outputs": [
				{
					"internalType": "uint256",
					"name": "sumaImpares",
					"type": "uint256"
				},
				{
					"internalType": "uint256",
					"name": "sumaPares",
					"type": "uint256"
				}
			],
			"stateMutability": "pure",
			"type": "function"
		},
		{
			"inputs": [
				{
					"internalType": "uint256",
					"name": "_number",
					"type": "uint256"
				},
				{
					"internalType": "uint256",
					"name": "_times",
					"type": "uint256"
				}
			],
			"name": "sumarXsiguientes",
			"outputs": [
				{
					"internalType": "uint256",
					"name": "",
					"type": "uint256"
				}
			],
			"stateMutability": "pure",
			"type": "function"
		}
	]
}