{
	"data": {
		"bytecode": {
			"linkReferences": {},
			"object": "608060405234801561000f575f80fd5b50610b0e8061001d5f395ff3fe608060405234801561000f575f80fd5b506004361061003f575f3560e01c806327468dcb146100435780637aa361c8146100765780639c53cddb14610092575b5f80fd5b61005d6004803603810190610058919061048a565b61009c565b60405161006d949392919061058d565b60405180910390f35b610090600480360381019061008b919061072d565b61019a565b005b61009a6102be565b005b5f81815481106100aa575f80fd5b905f5260205f2090600402015f91509050805f015f9054906101000a900473ffffffffffffffffffffffffffffffffffffffff1690806001015f9054906101000a900473ffffffffffffffffffffffffffffffffffffffff1690806002018054610113906107b4565b80601f016020809104026020016040519081016040528092919081815260200182805461013f906107b4565b801561018a5780601f106101615761010080835404028352916020019161018a565b820191905f5260205f20905b81548152906001019060200180831161016d57829003601f168201915b5050505050908060030154905084565b5f60405180608001604052803373ffffffffffffffffffffffffffffffffffffffff1681526020018473ffffffffffffffffffffffffffffffffffffffff16815260200183815260200142815250908060018154018082558091505060019003905f5260205f2090600402015f909190919091505f820151815f015f6101000a81548173ffffffffffffffffffffffffffffffffffffffff021916908373ffffffffffffffffffffffffffffffffffffffff1602179055506020820151816001015f6101000a81548173ffffffffffffffffffffffffffffffffffffffff021916908373ffffffffffffffffffffffffffffffffffffffff16021790555060408201518160020190816102ad9190610981565b506060820151816003015550505050565b5f5b5f805490508110156103595761034c6040518060400160405280600b81526020017f4d656e73616a6520613a200000000000000000000000000000000000000000008152505f838154811061031857610317610a50565b5b905f5260205f2090600402016001015f9054906101000a900473ffffffffffffffffffffffffffffffffffffffff1661035c565b80806001019150506102c0565b50565b6103f48282604051602401610372929190610a7d565b6040516020818303038152906040527f319af333000000000000000000000000000000000000000000000000000000007bffffffffffffffffffffffffffffffffffffffffffffffffffffffff19166020820180517bffffffffffffffffffffffffffffffffffffffffffffffffffffffff83818316178352505050506103f8565b5050565b61040f81610407610412610431565b63ffffffff16565b50565b5f6a636f6e736f6c652e6c6f6790505f80835160208501845afa505050565b61043c819050919050565b610444610aab565b565b5f604051905090565b5f80fd5b5f80fd5b5f819050919050565b61046981610457565b8114610473575f80fd5b50565b5f8135905061048481610460565b92915050565b5f6020828403121561049f5761049e61044f565b5b5f6104ac84828501610476565b91505092915050565b5f73ffffffffffffffffffffffffffffffffffffffff82169050919050565b5f6104de826104b5565b9050919050565b6104ee816104d4565b82525050565b5f81519050919050565b5f82825260208201905092915050565b5f5b8381101561052b578082015181840152602081019050610510565b5f8484015250505050565b5f601f19601f8301169050919050565b5f610550826104f4565b61055a81856104fe565b935061056a81856020860161050e565b61057381610536565b840191505092915050565b61058781610457565b82525050565b5f6080820190506105a05f8301876104e5565b6105ad60208301866104e5565b81810360408301526105bf8185610546565b90506105ce606083018461057e565b95945050505050565b6105e0816104d4565b81146105ea575f80fd5b50565b5f813590506105fb816105d7565b92915050565b5f80fd5b5f80fd5b7f4e487b71000000000000000000000000000000000000000000000000000000005f52604160045260245ffd5b61063f82610536565b810181811067ffffffffffffffff8211171561065e5761065d610609565b5b80604052505050565b5f610670610446565b905061067c8282610636565b919050565b5f67ffffffffffffffff82111561069b5761069a610609565b5b6106a482610536565b9050602081019050919050565b828183375f83830152505050565b5f6106d16106cc84610681565b610667565b9050828152602081018484840111156106ed576106ec610605565b5b6106f88482856106b1565b509392505050565b5f82601f83011261071457610713610601565b5b81356107248482602086016106bf565b91505092915050565b5f80604083850312156107435761074261044f565b5b5f610750858286016105ed565b925050602083013567ffffffffffffffff81111561077157610770610453565b5b61077d85828601610700565b9150509250929050565b7f4e487b71000000000000000000000000000000000000000000000000000000005f52602260045260245ffd5b5f60028204905060018216806107cb57607f821691505b6020821081036107de576107dd610787565b5b50919050565b5f819050815f5260205f209050919050565b5f6020601f8301049050919050565b5f82821b905092915050565b5f600883026108407fffffffffffffffffffffffffffffffffffffffffffffffffffffffffffffffff82610805565b61084a8683610805565b95508019841693508086168417925050509392505050565b5f819050919050565b5f61088561088061087b84610457565b610862565b610457565b9050919050565b5f819050919050565b61089e8361086b565b6108b26108aa8261088c565b848454610811565b825550505050565b5f90565b6108c66108ba565b6108d1818484610895565b505050565b5b818110156108f4576108e95f826108be565b6001810190506108d7565b5050565b601f8211156109395761090a816107e4565b610913846107f6565b81016020851015610922578190505b61093661092e856107f6565b8301826108d6565b50505b505050565b5f82821c905092915050565b5f6109595f198460080261093e565b1980831691505092915050565b5f610971838361094a565b9150826002028217905092915050565b61098a826104f4565b67ffffffffffffffff8111156109a3576109a2610609565b5b6109ad82546107b4565b6109b88282856108f8565b5f60209050601f8311600181146109e9575f84156109d7578287015190505b6109e18582610966565b865550610a48565b601f1984166109f7866107e4565b5f5b82811015610a1e578489015182556001820191506020850194506020810190506109f9565b86831015610a3b5784890151610a37601f89168261094a565b8355505b6001600288020188555050505b505050505050565b7f4e487b71000000000000000000000000000000000000000000000000000000005f52603260045260245ffd5b5f6040820190508181035f830152610a958185610546565b9050610aa460208301846104e5565b9392505050565b7f4e487b71000000000000000000000000000000000000000000000000000000005f52605160045260245ffdfea2646970667358221220a23569ef41403d96c37500bfc0d67f3598f3d2641a1c5770bbd0a40ddf510d7964736f6c63430008170033",
			"opcodes": "PUSH1 0x80 PUSH1 0x40 MSTORE CALLVALUE DUP1 ISZERO PUSH2 0xF JUMPI PUSH0 DUP1 REVERT JUMPDEST POP PUSH2 0xB0E DUP1 PUSH2 0x1D PUSH0 CODECOPY PUSH0 RETURN INVALID PUSH1 0x80 PUSH1 0x40 MSTORE CALLVALUE DUP1 ISZERO PUSH2 0xF JUMPI PUSH0 DUP1 REVERT JUMPDEST POP PUSH1 0x4 CALLDATASIZE LT PUSH2 0x3F JUMPI PUSH0 CALLDATALOAD PUSH1 0xE0 SHR DUP1 PUSH4 0x27468DCB EQ PUSH2 0x43 JUMPI DUP1 PUSH4 0x7AA361C8 EQ PUSH2 0x76 JUMPI DUP1 PUSH4 0x9C53CDDB EQ PUSH2 0x92 JUMPI JUMPDEST PUSH0 DUP1 REVERT JUMPDEST PUSH2 0x5D PUSH1 0x4 DUP1 CALLDATASIZE SUB DUP2 ADD SWAP1 PUSH2 0x58 SWAP2 SWAP1 PUSH2 0x48A JUMP JUMPDEST PUSH2 0x9C JUMP JUMPDEST PUSH1 0x40 MLOAD PUSH2 0x6D SWAP5 SWAP4 SWAP3 SWAP2 SWAP1 PUSH2 0x58D JUMP JUMPDEST PUSH1 0x40 MLOAD DUP1 SWAP2 SUB SWAP1 RETURN JUMPDEST PUSH2 0x90 PUSH1 0x4 DUP1 CALLDATASIZE SUB DUP2 ADD SWAP1 PUSH2 0x8B SWAP2 SWAP1 PUSH2 0x72D JUMP JUMPDEST PUSH2 0x19A JUMP JUMPDEST STOP JUMPDEST PUSH2 0x9A PUSH2 0x2BE JUMP JUMPDEST STOP JUMPDEST PUSH0 DUP2 DUP2 SLOAD DUP2 LT PUSH2 0xAA JUMPI PUSH0 DUP1 REVERT JUMPDEST SWAP1 PUSH0 MSTORE PUSH1 0x20 PUSH0 KECCAK256 SWAP1 PUSH1 0x4 MUL ADD PUSH0 SWAP2 POP SWAP1 POP DUP1 PUSH0 ADD PUSH0 SWAP1 SLOAD SWAP1 PUSH2 0x100 EXP SWAP1 DIV PUSH20 0xFFFFFFFFFFFFFFFFFFFFFFFFFFFFFFFFFFFFFFFF AND SWAP1 DUP1 PUSH1 0x1 ADD PUSH0 SWAP1 SLOAD SWAP1 PUSH2 0x100 EXP SWAP1 DIV PUSH20 0xFFFFFFFFFFFFFFFFFFFFFFFFFFFFFFFFFFFFFFFF AND SWAP1 DUP1 PUSH1 0x2 ADD DUP1 SLOAD PUSH2 0x113 SWAP1 PUSH2 0x7B4 JUMP JUMPDEST DUP1 PUSH1 0x1F ADD PUSH1 0x20 DUP1 SWAP2 DIV MUL PUSH1 0x20 ADD PUSH1 0x40 MLOAD SWAP1 DUP2 ADD PUSH1 0x40 MSTORE DUP1 SWAP3 SWAP2 SWAP1 DUP2 DUP2 MSTORE PUSH1 0x20 ADD DUP3 DUP1 SLOAD PUSH2 0x13F SWAP1 PUSH2 0x7B4 JUMP JUMPDEST DUP1 ISZERO PUSH2 0x18A JUMPI DUP1 PUSH1 0x1F LT PUSH2 0x161 JUMPI PUSH2 0x100 DUP1 DUP4 SLOAD DIV MUL DUP4 MSTORE SWAP2 PUSH1 0x20 ADD SWAP2 PUSH2 0x18A JUMP JUMPDEST DUP3 ADD SWAP2 SWAP1 PUSH0 MSTORE PUSH1 0x20 PUSH0 KECCAK256 SWAP1 JUMPDEST DUP2 SLOAD DUP2 MSTORE SWAP1 PUSH1 0x1 ADD SWAP1 PUSH1 0x20 ADD DUP1 DUP4 GT PUSH2 0x16D JUMPI DUP3 SWAP1 SUB PUSH1 0x1F AND DUP3 ADD SWAP2 JUMPDEST POP POP POP POP POP SWAP1 DUP1 PUSH1 0x3 ADD SLOAD SWAP1 POP DUP5 JUMP JUMPDEST PUSH0 PUSH1 0x40 MLOAD DUP1 PUSH1 0x80 ADD PUSH1 0x40 MSTORE DUP1 CALLER PUSH20 0xFFFFFFFFFFFFFFFFFFFFFFFFFFFFFFFFFFFFFFFF AND DUP2 MSTORE PUSH1 0x20 ADD DUP5 PUSH20 0xFFFFFFFFFFFFFFFFFFFFFFFFFFFFFFFFFFFFFFFF AND DUP2 MSTORE PUSH1 0x20 ADD DUP4 DUP2 MSTORE PUSH1 0x20 ADD TIMESTAMP DUP2 MSTORE POP SWAP1 DUP1 PUSH1 0x1 DUP2 SLOAD ADD DUP1 DUP3 SSTORE DUP1 SWAP2 POP POP PUSH1 0x1 SWAP1 SUB SWAP1 PUSH0 MSTORE PUSH1 0x20 PUSH0 KECCAK256 SWAP1 PUSH1 0x4 MUL ADD PUSH0 SWAP1 SWAP2 SWAP1 SWAP2 SWAP1 SWAP2 POP PUSH0 DUP3 ADD MLOAD DUP2 PUSH0 ADD PUSH0 PUSH2 0x100 EXP DUP2 SLOAD DUP2 PUSH20 0xFFFFFFFFFFFFFFFFFFFFFFFFFFFFFFFFFFFFFFFF MUL NOT AND SWAP1 DUP4 PUSH20 0xFFFFFFFFFFFFFFFFFFFFFFFFFFFFFFFFFFFFFFFF AND MUL OR SWAP1 SSTORE POP PUSH1 0x20 DUP3 ADD MLOAD DUP2 PUSH1 0x1 ADD PUSH0 PUSH2 0x100 EXP DUP2 SLOAD DUP2 PUSH20 0xFFFFFFFFFFFFFFFFFFFFFFFFFFFFFFFFFFFFFFFF MUL NOT AND SWAP1 DUP4 PUSH20 0xFFFFFFFFFFFFFFFFFFFFFFFFFFFFFFFFFFFFFFFF AND MUL OR SWAP1 SSTORE POP PUSH1 0x40 DUP3 ADD MLOAD DUP2 PUSH1 0x2 ADD SWAP1 DUP2 PUSH2 0x2AD SWAP2 SWAP1 PUSH2 0x981 JUMP JUMPDEST POP PUSH1 0x60 DUP3 ADD MLOAD DUP2 PUSH1 0x3 ADD SSTORE POP POP POP POP JUMP JUMPDEST PUSH0 JUMPDEST PUSH0 DUP1 SLOAD SWAP1 POP DUP2 LT ISZERO PUSH2 0x359 JUMPI PUSH2 0x34C PUSH1 0x40 MLOAD DUP1 PUSH1 0x40 ADD PUSH1 0x40 MSTORE DUP1 PUSH1 0xB DUP2 MSTORE PUSH1 0x20 ADD PUSH32 0x4D656E73616A6520613A20000000000000000000000000000000000000000000 DUP2 MSTORE POP PUSH0 DUP4 DUP2 SLOAD DUP2 LT PUSH2 0x318 JUMPI PUSH2 0x317 PUSH2 0xA50 JUMP JUMPDEST JUMPDEST SWAP1 PUSH0 MSTORE PUSH1 0x20 PUSH0 KECCAK256 SWAP1 PUSH1 0x4 MUL ADD PUSH1 0x1 ADD PUSH0 SWAP1 SLOAD SWAP1 PUSH2 0x100 EXP SWAP1 DIV PUSH20 0xFFFFFFFFFFFFFFFFFFFFFFFFFFFFFFFFFFFFFFFF AND PUSH2 0x35C JUMP JUMPDEST DUP1 DUP1 PUSH1 0x1 ADD SWAP2 POP POP PUSH2 0x2C0 JUMP JUMPDEST POP JUMP JUMPDEST PUSH2 0x3F4 DUP3 DUP3 PUSH1 0x40 MLOAD PUSH1 0x24 ADD PUSH2 0x372 SWAP3 SWAP2 SWAP1 PUSH2 0xA7D JUMP JUMPDEST PUSH1 0x40 MLOAD PUSH1 0x20 DUP2 DUP4 SUB SUB DUP2 MSTORE SWAP1 PUSH1 0x40 MSTORE PUSH32 0x319AF33300000000000000000000000000000000000000000000000000000000 PUSH28 0xFFFFFFFFFFFFFFFFFFFFFFFFFFFFFFFFFFFFFFFFFFFFFFFFFFFFFFFF NOT AND PUSH1 0x20 DUP3 ADD DUP1 MLOAD PUSH28 0xFFFFFFFFFFFFFFFFFFFFFFFFFFFFFFFFFFFFFFFFFFFFFFFFFFFFFFFF DUP4 DUP2 DUP4 AND OR DUP4 MSTORE POP POP POP POP PUSH2 0x3F8 JUMP JUMPDEST POP POP JUMP JUMPDEST PUSH2 0x40F DUP2 PUSH2 0x407 PUSH2 0x412 PUSH2 0x431 JUMP JUMPDEST PUSH4 0xFFFFFFFF AND JUMP JUMPDEST POP JUMP JUMPDEST PUSH0 PUSH11 0x636F6E736F6C652E6C6F67 SWAP1 POP PUSH0 DUP1 DUP4 MLOAD PUSH1 0x20 DUP6 ADD DUP5 GAS STATICCALL POP POP POP JUMP JUMPDEST PUSH2 0x43C DUP2 SWAP1 POP SWAP2 SWAP1 POP JUMP JUMPDEST PUSH2 0x444 PUSH2 0xAAB JUMP JUMPDEST JUMP JUMPDEST PUSH0 PUSH1 0x40 MLOAD SWAP1 POP SWAP1 JUMP JUMPDEST PUSH0 DUP1 REVERT JUMPDEST PUSH0 DUP1 REVERT JUMPDEST PUSH0 DUP2 SWAP1 POP SWAP2 SWAP1 POP JUMP JUMPDEST PUSH2 0x469 DUP2 PUSH2 0x457 JUMP JUMPDEST DUP2 EQ PUSH2 0x473 JUMPI PUSH0 DUP1 REVERT JUMPDEST POP JUMP JUMPDEST PUSH0 DUP2 CALLDATALOAD SWAP1 POP PUSH2 0x484 DUP2 PUSH2 0x460 JUMP JUMPDEST SWAP3 SWAP2 POP POP JUMP JUMPDEST PUSH0 PUSH1 0x20 DUP3 DUP5 SUB SLT ISZERO PUSH2 0x49F JUMPI PUSH2 0x49E PUSH2 0x44F JUMP JUMPDEST JUMPDEST PUSH0 PUSH2 0x4AC DUP5 DUP3 DUP6 ADD PUSH2 0x476 JUMP JUMPDEST SWAP2 POP POP SWAP3 SWAP2 POP POP JUMP JUMPDEST PUSH0 PUSH20 0xFFFFFFFFFFFFFFFFFFFFFFFFFFFFFFFFFFFFFFFF DUP3 AND SWAP1 POP SWAP2 SWAP1 POP JUMP JUMPDEST PUSH0 PUSH2 0x4DE DUP3 PUSH2 0x4B5 JUMP JUMPDEST SWAP1 POP SWAP2 SWAP1 POP JUMP JUMPDEST PUSH2 0x4EE DUP2 PUSH2 0x4D4 JUMP JUMPDEST DUP3 MSTORE POP POP JUMP JUMPDEST PUSH0 DUP2 MLOAD SWAP1 POP SWAP2 SWAP1 POP JUMP JUMPDEST PUSH0 DUP3 DUP3 MSTORE PUSH1 0x20 DUP3 ADD SWAP1 POP SWAP3 SWAP2 POP POP JUMP JUMPDEST PUSH0 JUMPDEST DUP4 DUP2 LT ISZERO PUSH2 0x52B JUMPI DUP1 DUP3 ADD MLOAD DUP2 DUP5 ADD MSTORE PUSH1 0x20 DUP2 ADD SWAP1 POP PUSH2 0x510 JUMP JUMPDEST PUSH0 DUP5 DUP5 ADD MSTORE POP POP POP POP JUMP JUMPDEST PUSH0 PUSH1 0x1F NOT PUSH1 0x1F DUP4 ADD AND SWAP1 POP SWAP2 SWAP1 POP JUMP JUMPDEST PUSH0 PUSH2 0x550 DUP3 PUSH2 0x4F4 JUMP JUMPDEST PUSH2 0x55A DUP2 DUP6 PUSH2 0x4FE JUMP JUMPDEST SWAP4 POP PUSH2 0x56A DUP2 DUP6 PUSH1 0x20 DUP7 ADD PUSH2 0x50E JUMP JUMPDEST PUSH2 0x573 DUP2 PUSH2 0x536 JUMP JUMPDEST DUP5 ADD SWAP2 POP POP SWAP3 SWAP2 POP POP JUMP JUMPDEST PUSH2 0x587 DUP2 PUSH2 0x457 JUMP JUMPDEST DUP3 MSTORE POP POP JUMP JUMPDEST PUSH0 PUSH1 0x80 DUP3 ADD SWAP1 POP PUSH2 0x5A0 PUSH0 DUP4 ADD DUP8 PUSH2 0x4E5 JUMP JUMPDEST PUSH2 0x5AD PUSH1 0x20 DUP4 ADD DUP7 PUSH2 0x4E5 JUMP JUMPDEST DUP2 DUP2 SUB PUSH1 0x40 DUP4 ADD MSTORE PUSH2 0x5BF DUP2 DUP6 PUSH2 0x546 JUMP JUMPDEST SWAP1 POP PUSH2 0x5CE PUSH1 0x60 DUP4 ADD DUP5 PUSH2 0x57E JUMP JUMPDEST SWAP6 SWAP5 POP POP POP POP POP JUMP JUMPDEST PUSH2 0x5E0 DUP2 PUSH2 0x4D4 JUMP JUMPDEST DUP2 EQ PUSH2 0x5EA JUMPI PUSH0 DUP1 REVERT JUMPDEST POP JUMP JUMPDEST PUSH0 DUP2 CALLDATALOAD SWAP1 POP PUSH2 0x5FB DUP2 PUSH2 0x5D7 JUMP JUMPDEST SWAP3 SWAP2 POP POP JUMP JUMPDEST PUSH0 DUP1 REVERT JUMPDEST PUSH0 DUP1 REVERT JUMPDEST PUSH32 0x4E487B7100000000000000000000000000000000000000000000000000000000 PUSH0 MSTORE PUSH1 0x41 PUSH1 0x4 MSTORE PUSH1 0x24 PUSH0 REVERT JUMPDEST PUSH2 0x63F DUP3 PUSH2 0x536 JUMP JUMPDEST DUP2 ADD DUP2 DUP2 LT PUSH8 0xFFFFFFFFFFFFFFFF DUP3 GT OR ISZERO PUSH2 0x65E JUMPI PUSH2 0x65D PUSH2 0x609 JUMP JUMPDEST JUMPDEST DUP1 PUSH1 0x40 MSTORE POP POP POP JUMP JUMPDEST PUSH0 PUSH2 0x670 PUSH2 0x446 JUMP JUMPDEST SWAP1 POP PUSH2 0x67C DUP3 DUP3 PUSH2 0x636 JUMP JUMPDEST SWAP2 SWAP1 POP JUMP JUMPDEST PUSH0 PUSH8 0xFFFFFFFFFFFFFFFF DUP3 GT ISZERO PUSH2 0x69B JUMPI PUSH2 0x69A PUSH2 0x609 JUMP JUMPDEST JUMPDEST PUSH2 0x6A4 DUP3 PUSH2 0x536 JUMP JUMPDEST SWAP1 POP PUSH1 0x20 DUP2 ADD SWAP1 POP SWAP2 SWAP1 POP JUMP JUMPDEST DUP3 DUP2 DUP4 CALLDATACOPY PUSH0 DUP4 DUP4 ADD MSTORE POP POP POP JUMP JUMPDEST PUSH0 PUSH2 0x6D1 PUSH2 0x6CC DUP5 PUSH2 0x681 JUMP JUMPDEST PUSH2 0x667 JUMP JUMPDEST SWAP1 POP DUP3 DUP2 MSTORE PUSH1 0x20 DUP2 ADD DUP5 DUP5 DUP5 ADD GT ISZERO PUSH2 0x6ED JUMPI PUSH2 0x6EC PUSH2 0x605 JUMP JUMPDEST JUMPDEST PUSH2 0x6F8 DUP5 DUP3 DUP6 PUSH2 0x6B1 JUMP JUMPDEST POP SWAP4 SWAP3 POP POP POP JUMP JUMPDEST PUSH0 DUP3 PUSH1 0x1F DUP4 ADD SLT PUSH2 0x714 JUMPI PUSH2 0x713 PUSH2 0x601 JUMP JUMPDEST JUMPDEST DUP2 CALLDATALOAD PUSH2 0x724 DUP5 DUP3 PUSH1 0x20 DUP7 ADD PUSH2 0x6BF JUMP JUMPDEST SWAP2 POP POP SWAP3 SWAP2 POP POP JUMP JUMPDEST PUSH0 DUP1 PUSH1 0x40 DUP4 DUP6 SUB SLT ISZERO PUSH2 0x743 JUMPI PUSH2 0x742 PUSH2 0x44F JUMP JUMPDEST JUMPDEST PUSH0 PUSH2 0x750 DUP6 DUP3 DUP7 ADD PUSH2 0x5ED JUMP JUMPDEST SWAP3 POP POP PUSH1 0x20 DUP4 ADD CALLDATALOAD PUSH8 0xFFFFFFFFFFFFFFFF DUP2 GT ISZERO PUSH2 0x771 JUMPI PUSH2 0x770 PUSH2 0x453 JUMP JUMPDEST JUMPDEST PUSH2 0x77D DUP6 DUP3 DUP7 ADD PUSH2 0x700 JUMP JUMPDEST SWAP2 POP POP SWAP3 POP SWAP3 SWAP1 POP JUMP JUMPDEST PUSH32 0x4E487B7100000000000000000000000000000000000000000000000000000000 PUSH0 MSTORE PUSH1 0x22 PUSH1 0x4 MSTORE PUSH1 0x24 PUSH0 REVERT JUMPDEST PUSH0 PUSH1 0x2 DUP3 DIV SWAP1 POP PUSH1 0x1 DUP3 AND DUP1 PUSH2 0x7CB JUMPI PUSH1 0x7F DUP3 AND SWAP2 POP JUMPDEST PUSH1 0x20 DUP3 LT DUP2 SUB PUSH2 0x7DE JUMPI PUSH2 0x7DD PUSH2 0x787 JUMP JUMPDEST JUMPDEST POP SWAP2 SWAP1 POP JUMP JUMPDEST PUSH0 DUP2 SWAP1 POP DUP2 PUSH0 MSTORE PUSH1 0x20 PUSH0 KECCAK256 SWAP1 POP SWAP2 SWAP1 POP JUMP JUMPDEST PUSH0 PUSH1 0x20 PUSH1 0x1F DUP4 ADD DIV SWAP1 POP SWAP2 SWAP1 POP JUMP JUMPDEST PUSH0 DUP3 DUP3 SHL SWAP1 POP SWAP3 SWAP2 POP POP JUMP JUMPDEST PUSH0 PUSH1 0x8 DUP4 MUL PUSH2 0x840 PUSH32 0xFFFFFFFFFFFFFFFFFFFFFFFFFFFFFFFFFFFFFFFFFFFFFFFFFFFFFFFFFFFFFFFF DUP3 PUSH2 0x805 JUMP JUMPDEST PUSH2 0x84A DUP7 DUP4 PUSH2 0x805 JUMP JUMPDEST SWAP6 POP DUP1 NOT DUP5 AND SWAP4 POP DUP1 DUP7 AND DUP5 OR SWAP3 POP POP POP SWAP4 SWAP3 POP POP POP JUMP JUMPDEST PUSH0 DUP2 SWAP1 POP SWAP2 SWAP1 POP JUMP JUMPDEST PUSH0 PUSH2 0x885 PUSH2 0x880 PUSH2 0x87B DUP5 PUSH2 0x457 JUMP JUMPDEST PUSH2 0x862 JUMP JUMPDEST PUSH2 0x457 JUMP JUMPDEST SWAP1 POP SWAP2 SWAP1 POP JUMP JUMPDEST PUSH0 DUP2 SWAP1 POP SWAP2 SWAP1 POP JUMP JUMPDEST PUSH2 0x89E DUP4 PUSH2 0x86B JUMP JUMPDEST PUSH2 0x8B2 PUSH2 0x8AA DUP3 PUSH2 0x88C JUMP JUMPDEST DUP5 DUP5 SLOAD PUSH2 0x811 JUMP JUMPDEST DUP3 SSTORE POP POP POP POP JUMP JUMPDEST PUSH0 SWAP1 JUMP JUMPDEST PUSH2 0x8C6 PUSH2 0x8BA JUMP JUMPDEST PUSH2 0x8D1 DUP2 DUP5 DUP5 PUSH2 0x895 JUMP JUMPDEST POP POP POP JUMP JUMPDEST JUMPDEST DUP2 DUP2 LT ISZERO PUSH2 0x8F4 JUMPI PUSH2 0x8E9 PUSH0 DUP3 PUSH2 0x8BE JUMP JUMPDEST PUSH1 0x1 DUP2 ADD SWAP1 POP PUSH2 0x8D7 JUMP JUMPDEST POP POP JUMP JUMPDEST PUSH1 0x1F DUP3 GT ISZERO PUSH2 0x939 JUMPI PUSH2 0x90A DUP2 PUSH2 0x7E4 JUMP JUMPDEST PUSH2 0x913 DUP5 PUSH2 0x7F6 JUMP JUMPDEST DUP2 ADD PUSH1 0x20 DUP6 LT ISZERO PUSH2 0x922 JUMPI DUP2 SWAP1 POP JUMPDEST PUSH2 0x936 PUSH2 0x92E DUP6 PUSH2 0x7F6 JUMP JUMPDEST DUP4 ADD DUP3 PUSH2 0x8D6 JUMP JUMPDEST POP POP JUMPDEST POP POP POP JUMP JUMPDEST PUSH0 DUP3 DUP3 SHR SWAP1 POP SWAP3 SWAP2 POP POP JUMP JUMPDEST PUSH0 PUSH2 0x959 PUSH0 NOT DUP5 PUSH1 0x8 MUL PUSH2 0x93E JUMP JUMPDEST NOT DUP1 DUP4 AND SWAP2 POP POP SWAP3 SWAP2 POP POP JUMP JUMPDEST PUSH0 PUSH2 0x971 DUP4 DUP4 PUSH2 0x94A JUMP JUMPDEST SWAP2 POP DUP3 PUSH1 0x2 MUL DUP3 OR SWAP1 POP SWAP3 SWAP2 POP POP JUMP JUMPDEST PUSH2 0x98A DUP3 PUSH2 0x4F4 JUMP JUMPDEST PUSH8 0xFFFFFFFFFFFFFFFF DUP2 GT ISZERO PUSH2 0x9A3 JUMPI PUSH2 0x9A2 PUSH2 0x609 JUMP JUMPDEST JUMPDEST PUSH2 0x9AD DUP3 SLOAD PUSH2 0x7B4 JUMP JUMPDEST PUSH2 0x9B8 DUP3 DUP3 DUP6 PUSH2 0x8F8 JUMP JUMPDEST PUSH0 PUSH1 0x20 SWAP1 POP PUSH1 0x1F DUP4 GT PUSH1 0x1 DUP2 EQ PUSH2 0x9E9 JUMPI PUSH0 DUP5 ISZERO PUSH2 0x9D7 JUMPI DUP3 DUP8 ADD MLOAD SWAP1 POP JUMPDEST PUSH2 0x9E1 DUP6 DUP3 PUSH2 0x966 JUMP JUMPDEST DUP7 SSTORE POP PUSH2 0xA48 JUMP JUMPDEST PUSH1 0x1F NOT DUP5 AND PUSH2 0x9F7 DUP7 PUSH2 0x7E4 JUMP JUMPDEST PUSH0 JUMPDEST DUP3 DUP2 LT ISZERO PUSH2 0xA1E JUMPI DUP5 DUP10 ADD MLOAD DUP3 SSTORE PUSH1 0x1 DUP3 ADD SWAP2 POP PUSH1 0x20 DUP6 ADD SWAP5 POP PUSH1 0x20 DUP2 ADD SWAP1 POP PUSH2 0x9F9 JUMP JUMPDEST DUP7 DUP4 LT ISZERO PUSH2 0xA3B JUMPI DUP5 DUP10 ADD MLOAD PUSH2 0xA37 PUSH1 0x1F DUP10 AND DUP3 PUSH2 0x94A JUMP JUMPDEST DUP4 SSTORE POP JUMPDEST PUSH1 0x1 PUSH1 0x2 DUP9 MUL ADD DUP9 SSTORE POP POP POP JUMPDEST POP POP POP POP POP POP JUMP JUMPDEST PUSH32 0x4E487B7100000000000000000000000000000000000000000000000000000000 PUSH0 MSTORE PUSH1 0x32 PUSH1 0x4 MSTORE PUSH1 0x24 PUSH0 REVERT JUMPDEST PUSH0 PUSH1 0x40 DUP3 ADD SWAP1 POP DUP2 DUP2 SUB PUSH0 DUP4 ADD MSTORE PUSH2 0xA95 DUP2 DUP6 PUSH2 0x546 JUMP JUMPDEST SWAP1 POP PUSH2 0xAA4 PUSH1 0x20 DUP4 ADD DUP5 PUSH2 0x4E5 JUMP JUMPDEST SWAP4 SWAP3 POP POP POP JUMP JUMPDEST PUSH32 0x4E487B7100000000000000000000000000000000000000000000000000000000 PUSH0 MSTORE PUSH1 0x51 PUSH1 0x4 MSTORE PUSH1 0x24 PUSH0 REVERT INVALID LOG2 PUSH5 0x6970667358 0x22 SLT KECCAK256 LOG2 CALLDATALOAD PUSH10 0xEF41403D96C37500BFC0 0xD6 PUSH32 0x3598F3D2641A1C5770BBD0A40DDF510D7964736F6C6343000817003300000000 "
		},
		"gasEstimates": {
			"creation": {
				"codeDepositCost": "566000",
				"executionCost": "598",
				"totalCost": "566598"
			},
			"external": {
				"enviarMensaje(address,string)": "infinite",
				"mensajes(uint256)": "infinite",
				"pintarDestinatarioMensajes()": "infinite"
			}
		},
		"methodIdentifiers": {
			"enviarMensaje(address,string)": "7aa361c8",
			"mensajes(uint256)": "27468dcb",
			"pintarDestinatarioMensajes()": "9c53cddb"
		}
	},
	"abi": [
		{
			"inputs": [
				{
					"internalType": "address",
					"name": "_to",
					"type": "address"
				},
				{
					"internalType": "string",
					"name": "_contenido",
					"type": "string"
				}
			],
			"name": "enviarMensaje",
			"outputs": [],
			"stateMutability": "nonpayable",
			"type": "function"
		},
		{
			"inputs": [
				{
					"internalType": "uint256",
					"name": "",
					"type": "uint256"
				}
			],
			"name": "mensajes",
			"outputs": [
				{
					"internalType": "address",
					"name": "from",
					"type": "address"
				},
				{
					"internalType": "address",
					"name": "to",
					"type": "address"
				},
				{
					"internalType": "string",
					"name": "contenido",
					"type": "string"
				},
				{
					"internalType": "uint256",
					"name": "timestamp",
					"type": "uint256"
				}
			],
			"stateMutability": "view",
			"type": "function"
		},
		{
			"inputs": [],
			"name": "pintarDestinatarioMensajes",
			"outputs": [],
			"stateMutability": "view",
			"type": "function"
		}
	]
}