{
	"data": {
		"bytecode": {
			"linkReferences": {},
			"object": "608060405234801561000f575f80fd5b506106048061001d5f395ff3fe608060405234801561000f575f80fd5b5060043610610034575f3560e01c80634426efba1461003857806359a7fb0614610069575b5f80fd5b610052600480360381019061004d919061036b565b610099565b6040516100609291906103a5565b60405180910390f35b610083600480360381019061007e919061036b565b6101a9565b60405161009091906103cc565b60405180910390f35b5f805f805f805f600190505b878310806100b257508782105b15610199575f6002826100c59190610412565b0361012a576101096040518060400160405280600d81526020017f53756d61722050617265733a20000000000000000000000000000000000000008152508261024a565b8085610115919061046f565b94508280610122906104a2565b935050610186565b6101696040518060400160405280600f81526020017f53756d617220496d70617265733a2000000000000000000000000000000000008152508261024a565b8084610175919061046f565b93508180610182906104a2565b9250505b8080610191906104a2565b9150506100a5565b8484965096505050505050915091565b5f805f90505f600190505f5b8481101561023f575f6002836101cb9190610412565b0361022c5761020f6040518060400160405280600781526020017f53756d61723a20000000000000000000000000000000000000000000000000008152508361024a565b818361021b919061046f565b92508080610228906104a2565b9150505b8180610237906104a2565b9250506101b5565b829350505050919050565b6102e28282604051602401610260929190610573565b6040516020818303038152906040527fb60e72cc000000000000000000000000000000000000000000000000000000007bffffffffffffffffffffffffffffffffffffffffffffffffffffffff19166020820180517bffffffffffffffffffffffffffffffffffffffffffffffffffffffff83818316178352505050506102e6565b5050565b6102fd816102f561030061031f565b63ffffffff16565b50565b5f6a636f6e736f6c652e6c6f6790505f80835160208501845afa505050565b61032a819050919050565b6103326105a1565b565b5f80fd5b5f819050919050565b61034a81610338565b8114610354575f80fd5b50565b5f8135905061036581610341565b92915050565b5f602082840312156103805761037f610334565b5b5f61038d84828501610357565b91505092915050565b61039f81610338565b82525050565b5f6040820190506103b85f830185610396565b6103c56020830184610396565b9392505050565b5f6020820190506103df5f830184610396565b92915050565b7f4e487b71000000000000000000000000000000000000000000000000000000005f52601260045260245ffd5b5f61041c82610338565b915061042783610338565b925082610437576104366103e5565b5b828206905092915050565b7f4e487b71000000000000000000000000000000000000000000000000000000005f52601160045260245ffd5b5f61047982610338565b915061048483610338565b925082820190508082111561049c5761049b610442565b5b92915050565b5f6104ac82610338565b91507fffffffffffffffffffffffffffffffffffffffffffffffffffffffffffffffff82036104de576104dd610442565b5b600182019050919050565b5f81519050919050565b5f82825260208201905092915050565b5f5b83811015610520578082015181840152602081019050610505565b5f8484015250505050565b5f601f19601f8301169050919050565b5f610545826104e9565b61054f81856104f3565b935061055f818560208601610503565b6105688161052b565b840191505092915050565b5f6040820190508181035f83015261058b818561053b565b905061059a6020830184610396565b9392505050565b7f4e487b71000000000000000000000000000000000000000000000000000000005f52605160045260245ffdfea2646970667358221220e7120243e7387ffca727855e7877926d026edc5cb30e42dfc40d849325f0a98c64736f6c63430008170033",
			"opcodes": "PUSH1 0x80 PUSH1 0x40 MSTORE CALLVALUE DUP1 ISZERO PUSH2 0xF JUMPI PUSH0 DUP1 REVERT JUMPDEST POP PUSH2 0x604 DUP1 PUSH2 0x1D PUSH0 CODECOPY PUSH0 RETURN INVALID PUSH1 0x80 PUSH1 0x40 MSTORE CALLVALUE DUP1 ISZERO PUSH2 0xF JUMPI PUSH0 DUP1 REVERT JUMPDEST POP PUSH1 0x4 CALLDATASIZE LT PUSH2 0x34 JUMPI PUSH0 CALLDATALOAD PUSH1 0xE0 SHR DUP1 PUSH4 0x4426EFBA EQ PUSH2 0x38 JUMPI DUP1 PUSH4 0x59A7FB06 EQ PUSH2 0x69 JUMPI JUMPDEST PUSH0 DUP1 REVERT JUMPDEST PUSH2 0x52 PUSH1 0x4 DUP1 CALLDATASIZE SUB DUP2 ADD SWAP1 PUSH2 0x4D SWAP2 SWAP1 PUSH2 0x36B JUMP JUMPDEST PUSH2 0x99 JUMP JUMPDEST PUSH1 0x40 MLOAD PUSH2 0x60 SWAP3 SWAP2 SWAP1 PUSH2 0x3A5 JUMP JUMPDEST PUSH1 0x40 MLOAD DUP1 SWAP2 SUB SWAP1 RETURN JUMPDEST PUSH2 0x83 PUSH1 0x4 DUP1 CALLDATASIZE SUB DUP2 ADD SWAP1 PUSH2 0x7E SWAP2 SWAP1 PUSH2 0x36B JUMP JUMPDEST PUSH2 0x1A9 JUMP JUMPDEST PUSH1 0x40 MLOAD PUSH2 0x90 SWAP2 SWAP1 PUSH2 0x3CC JUMP JUMPDEST PUSH1 0x40 MLOAD DUP1 SWAP2 SUB SWAP1 RETURN JUMPDEST PUSH0 DUP1 PUSH0 DUP1 PUSH0 DUP1 PUSH0 PUSH1 0x1 SWAP1 POP JUMPDEST DUP8 DUP4 LT DUP1 PUSH2 0xB2 JUMPI POP DUP8 DUP3 LT JUMPDEST ISZERO PUSH2 0x199 JUMPI PUSH0 PUSH1 0x2 DUP3 PUSH2 0xC5 SWAP2 SWAP1 PUSH2 0x412 JUMP JUMPDEST SUB PUSH2 0x12A JUMPI PUSH2 0x109 PUSH1 0x40 MLOAD DUP1 PUSH1 0x40 ADD PUSH1 0x40 MSTORE DUP1 PUSH1 0xD DUP2 MSTORE PUSH1 0x20 ADD PUSH32 0x53756D61722050617265733A2000000000000000000000000000000000000000 DUP2 MSTORE POP DUP3 PUSH2 0x24A JUMP JUMPDEST DUP1 DUP6 PUSH2 0x115 SWAP2 SWAP1 PUSH2 0x46F JUMP JUMPDEST SWAP5 POP DUP3 DUP1 PUSH2 0x122 SWAP1 PUSH2 0x4A2 JUMP JUMPDEST SWAP4 POP POP PUSH2 0x186 JUMP JUMPDEST PUSH2 0x169 PUSH1 0x40 MLOAD DUP1 PUSH1 0x40 ADD PUSH1 0x40 MSTORE DUP1 PUSH1 0xF DUP2 MSTORE PUSH1 0x20 ADD PUSH32 0x53756D617220496D70617265733A200000000000000000000000000000000000 DUP2 MSTORE POP DUP3 PUSH2 0x24A JUMP JUMPDEST DUP1 DUP5 PUSH2 0x175 SWAP2 SWAP1 PUSH2 0x46F JUMP JUMPDEST SWAP4 POP DUP2 DUP1 PUSH2 0x182 SWAP1 PUSH2 0x4A2 JUMP JUMPDEST SWAP3 POP POP JUMPDEST DUP1 DUP1 PUSH2 0x191 SWAP1 PUSH2 0x4A2 JUMP JUMPDEST SWAP2 POP POP PUSH2 0xA5 JUMP JUMPDEST DUP5 DUP5 SWAP7 POP SWAP7 POP POP POP POP POP POP SWAP2 POP SWAP2 JUMP JUMPDEST PUSH0 DUP1 PUSH0 SWAP1 POP PUSH0 PUSH1 0x1 SWAP1 POP PUSH0 JUMPDEST DUP5 DUP2 LT ISZERO PUSH2 0x23F JUMPI PUSH0 PUSH1 0x2 DUP4 PUSH2 0x1CB SWAP2 SWAP1 PUSH2 0x412 JUMP JUMPDEST SUB PUSH2 0x22C JUMPI PUSH2 0x20F PUSH1 0x40 MLOAD DUP1 PUSH1 0x40 ADD PUSH1 0x40 MSTORE DUP1 PUSH1 0x7 DUP2 MSTORE PUSH1 0x20 ADD PUSH32 0x53756D61723A2000000000000000000000000000000000000000000000000000 DUP2 MSTORE POP DUP4 PUSH2 0x24A JUMP JUMPDEST DUP2 DUP4 PUSH2 0x21B SWAP2 SWAP1 PUSH2 0x46F JUMP JUMPDEST SWAP3 POP DUP1 DUP1 PUSH2 0x228 SWAP1 PUSH2 0x4A2 JUMP JUMPDEST SWAP2 POP POP JUMPDEST DUP2 DUP1 PUSH2 0x237 SWAP1 PUSH2 0x4A2 JUMP JUMPDEST SWAP3 POP POP PUSH2 0x1B5 JUMP JUMPDEST DUP3 SWAP4 POP POP POP POP SWAP2 SWAP1 POP JUMP JUMPDEST PUSH2 0x2E2 DUP3 DUP3 PUSH1 0x40 MLOAD PUSH1 0x24 ADD PUSH2 0x260 SWAP3 SWAP2 SWAP1 PUSH2 0x573 JUMP JUMPDEST PUSH1 0x40 MLOAD PUSH1 0x20 DUP2 DUP4 SUB SUB DUP2 MSTORE SWAP1 PUSH1 0x40 MSTORE PUSH32 0xB60E72CC00000000000000000000000000000000000000000000000000000000 PUSH28 0xFFFFFFFFFFFFFFFFFFFFFFFFFFFFFFFFFFFFFFFFFFFFFFFFFFFFFFFF NOT AND PUSH1 0x20 DUP3 ADD DUP1 MLOAD PUSH28 0xFFFFFFFFFFFFFFFFFFFFFFFFFFFFFFFFFFFFFFFFFFFFFFFFFFFFFFFF DUP4 DUP2 DUP4 AND OR DUP4 MSTORE POP POP POP POP PUSH2 0x2E6 JUMP JUMPDEST POP POP JUMP JUMPDEST PUSH2 0x2FD DUP2 PUSH2 0x2F5 PUSH2 0x300 PUSH2 0x31F JUMP JUMPDEST PUSH4 0xFFFFFFFF AND JUMP JUMPDEST POP JUMP JUMPDEST PUSH0 PUSH11 0x636F6E736F6C652E6C6F67 SWAP1 POP PUSH0 DUP1 DUP4 MLOAD PUSH1 0x20 DUP6 ADD DUP5 GAS STATICCALL POP POP POP JUMP JUMPDEST PUSH2 0x32A DUP2 SWAP1 POP SWAP2 SWAP1 POP JUMP JUMPDEST PUSH2 0x332 PUSH2 0x5A1 JUMP JUMPDEST JUMP JUMPDEST PUSH0 DUP1 REVERT JUMPDEST PUSH0 DUP2 SWAP1 POP SWAP2 SWAP1 POP JUMP JUMPDEST PUSH2 0x34A DUP2 PUSH2 0x338 JUMP JUMPDEST DUP2 EQ PUSH2 0x354 JUMPI PUSH0 DUP1 REVERT JUMPDEST POP JUMP JUMPDEST PUSH0 DUP2 CALLDATALOAD SWAP1 POP PUSH2 0x365 DUP2 PUSH2 0x341 JUMP JUMPDEST SWAP3 SWAP2 POP POP JUMP JUMPDEST PUSH0 PUSH1 0x20 DUP3 DUP5 SUB SLT ISZERO PUSH2 0x380 JUMPI PUSH2 0x37F PUSH2 0x334 JUMP JUMPDEST JUMPDEST PUSH0 PUSH2 0x38D DUP5 DUP3 DUP6 ADD PUSH2 0x357 JUMP JUMPDEST SWAP2 POP POP SWAP3 SWAP2 POP POP JUMP JUMPDEST PUSH2 0x39F DUP2 PUSH2 0x338 JUMP JUMPDEST DUP3 MSTORE POP POP JUMP JUMPDEST PUSH0 PUSH1 0x40 DUP3 ADD SWAP1 POP PUSH2 0x3B8 PUSH0 DUP4 ADD DUP6 PUSH2 0x396 JUMP JUMPDEST PUSH2 0x3C5 PUSH1 0x20 DUP4 ADD DUP5 PUSH2 0x396 JUMP JUMPDEST SWAP4 SWAP3 POP POP POP JUMP JUMPDEST PUSH0 PUSH1 0x20 DUP3 ADD SWAP1 POP PUSH2 0x3DF PUSH0 DUP4 ADD DUP5 PUSH2 0x396 JUMP JUMPDEST SWAP3 SWAP2 POP POP JUMP JUMPDEST PUSH32 0x4E487B7100000000000000000000000000000000000000000000000000000000 PUSH0 MSTORE PUSH1 0x12 PUSH1 0x4 MSTORE PUSH1 0x24 PUSH0 REVERT JUMPDEST PUSH0 PUSH2 0x41C DUP3 PUSH2 0x338 JUMP JUMPDEST SWAP2 POP PUSH2 0x427 DUP4 PUSH2 0x338 JUMP JUMPDEST SWAP3 POP DUP3 PUSH2 0x437 JUMPI PUSH2 0x436 PUSH2 0x3E5 JUMP JUMPDEST JUMPDEST DUP3 DUP3 MOD SWAP1 POP SWAP3 SWAP2 POP POP JUMP JUMPDEST PUSH32 0x4E487B7100000000000000000000000000000000000000000000000000000000 PUSH0 MSTORE PUSH1 0x11 PUSH1 0x4 MSTORE PUSH1 0x24 PUSH0 REVERT JUMPDEST PUSH0 PUSH2 0x479 DUP3 PUSH2 0x338 JUMP JUMPDEST SWAP2 POP PUSH2 0x484 DUP4 PUSH2 0x338 JUMP JUMPDEST SWAP3 POP DUP3 DUP3 ADD SWAP1 POP DUP1 DUP3 GT ISZERO PUSH2 0x49C JUMPI PUSH2 0x49B PUSH2 0x442 JUMP JUMPDEST JUMPDEST SWAP3 SWAP2 POP POP JUMP JUMPDEST PUSH0 PUSH2 0x4AC DUP3 PUSH2 0x338 JUMP JUMPDEST SWAP2 POP PUSH32 0xFFFFFFFFFFFFFFFFFFFFFFFFFFFFFFFFFFFFFFFFFFFFFFFFFFFFFFFFFFFFFFFF DUP3 SUB PUSH2 0x4DE JUMPI PUSH2 0x4DD PUSH2 0x442 JUMP JUMPDEST JUMPDEST PUSH1 0x1 DUP3 ADD SWAP1 POP SWAP2 SWAP1 POP JUMP JUMPDEST PUSH0 DUP2 MLOAD SWAP1 POP SWAP2 SWAP1 POP JUMP JUMPDEST PUSH0 DUP3 DUP3 MSTORE PUSH1 0x20 DUP3 ADD SWAP1 POP SWAP3 SWAP2 POP POP JUMP JUMPDEST PUSH0 JUMPDEST DUP4 DUP2 LT ISZERO PUSH2 0x520 JUMPI DUP1 DUP3 ADD MLOAD DUP2 DUP5 ADD MSTORE PUSH1 0x20 DUP2 ADD SWAP1 POP PUSH2 0x505 JUMP JUMPDEST PUSH0 DUP5 DUP5 ADD MSTORE POP POP POP POP JUMP JUMPDEST PUSH0 PUSH1 0x1F NOT PUSH1 0x1F DUP4 ADD AND SWAP1 POP SWAP2 SWAP1 POP JUMP JUMPDEST PUSH0 PUSH2 0x545 DUP3 PUSH2 0x4E9 JUMP JUMPDEST PUSH2 0x54F DUP2 DUP6 PUSH2 0x4F3 JUMP JUMPDEST SWAP4 POP PUSH2 0x55F DUP2 DUP6 PUSH1 0x20 DUP7 ADD PUSH2 0x503 JUMP JUMPDEST PUSH2 0x568 DUP2 PUSH2 0x52B JUMP JUMPDEST DUP5 ADD SWAP2 POP POP SWAP3 SWAP2 POP POP JUMP JUMPDEST PUSH0 PUSH1 0x40 DUP3 ADD SWAP1 POP DUP2 DUP2 SUB PUSH0 DUP4 ADD MSTORE PUSH2 0x58B DUP2 DUP6 PUSH2 0x53B JUMP JUMPDEST SWAP1 POP PUSH2 0x59A PUSH1 0x20 DUP4 ADD DUP5 PUSH2 0x396 JUMP JUMPDEST SWAP4 SWAP3 POP POP POP JUMP JUMPDEST PUSH32 0x4E487B7100000000000000000000000000000000000000000000000000000000 PUSH0 MSTORE PUSH1 0x51 PUSH1 0x4 MSTORE PUSH1 0x24 PUSH0 REVERT INVALID LOG2 PUSH5 0x6970667358 0x22 SLT KECCAK256 0xE7 SLT MUL NUMBER 0xE7 CODESIZE PUSH32 0xFCA727855E7877926D026EDC5CB30E42DFC40D849325F0A98C64736F6C634300 ADDMOD OR STOP CALLER "
		},
		"gasEstimates": {
			"creation": {
				"codeDepositCost": "308000",
				"executionCost": "347",
				"totalCost": "308347"
			},
			"external": {
				"sumNumbers(uint256)": "infinite",
				"sumNumeros(uint256)": "infinite"
			}
		},
		"methodIdentifiers": {
			"sumNumbers(uint256)": "59a7fb06",
			"sumNumeros(uint256)": "4426efba"
		}
	},
	"abi": [
		{
			"inputs": [
				{
					"internalType": "uint256",
					"name": "n",
					"type": "uint256"
				}
			],
			"name": "sumNumbers",
			"outputs": [
				{
					"internalType": "uint256",
					"name": "",
					"type": "uint256"
				}
			],
			"stateMutability": "pure",
			"type": "function"
		},
		{
			"inputs": [
				{
					"internalType": "uint256",
					"name": "n",
					"type": "uint256"
				}
			],
			"name": "sumNumeros",
			"outputs": [
				{
					"internalType": "uint256",
					"name": "",
					"type": "uint256"
				},
				{
					"internalType": "uint256",
					"name": "",
					"type": "uint256"
				}
			],
			"stateMutability": "pure",
			"type": "function"
		}
	]
}